:020000040000FA
:100000000080262800000165000003AD0000016F9C
:1000100000000000000000000000000000000000E0
:10002000000000000000000000000000000001715E
:1000300000000000000000000000017300000175D6
:10004000000003F3000003FF000004390000046512
:1000500000000491000004BF000001770000017758
:1000600000000177000001770000017700000177B0
:1000700000000535000005790000017700000177D8
:100080000000017700000177000001770000017790
:100090000000017700000177000001770000017780
:1000A0000000017700000177000001770000017770
:1000B0000000017700000177000001770000017760
:1000C00000F002F800F03EF80CA030C80838241800
:1000D0002D18A246671EAB4654465D46AC4201D180
:1000E00000F030F87E460F3E0FCCB6460126334274
:1000F00000D0FB1AA246AB4633431847000038A88D
:10010000000038C8103A02D378C878C1FAD852072C
:1001100001D330C830C101D504680C6070470000BD
:100120000023002400250026103A01D378C1FBD813
:10013000520700D330C100D50B6070471FB51FBDFB
:1001400010B510BD03F07AFB1146FFF7F7FF01F081
:10015000B7FD03F092FB03B4FFF7F2FF03BC03F01B
:1001600099FB00000748804707480047FEE7FEE785
:10017000FEE7FEE7FEE7FEE704480549054A064BB1
:100180007047000000001C8700001CC1008015287B
:100190000080262800801628008016281C21014097
:1001A00080078900800F10B50143002002F03BFD5D
:1001B00010BD30B52C4BDD6811242543DD6080284F
:1001C00006D0102507280AD01869A843186130BD49
:1001D00026480168012212031143016030BD244802
:1001E00018600120400288409861DA61186928434C
:1001F000186198682043986030BDF8B51D4C069E84
:10020000A468E40601D504060BD58024A0431D2470
:10021000E404E56AAD07FCD1009602F0FCFC012085
:10022000F8BD0020F8BD38B504460022114608206C
:10023000FFF7BFFF00221049002C0A600AD0012CF2
:100240000CD0022C05D100910C4B1146012002F07C
:10025000E2FC38BD084A0949FF2002E000221146AD
:10026000104602F0D3FC38BD00E80700E000E200D1
:100270000077010200E90280008000000080002079
:1002800070B5434CE368FF2501352B43E3608028BC
:1002900005D007280DD02069A843206170BD3D49D5
:1002A000052088633C480168012252031143016024
:1002B00070BD0520000460603848007800280AD12D
:1002C0005000374A105A0F22D201514348430321AC
:1002D00003F0DFF92062206928432061A0682843E9
:1002E000A06070BD10B50146012002F09CFC10BD5D
:1002F000FFB58021884304462A4881B0C07A0A9D10
:100300001E461746002803D0C000044304200443BF
:10031000002211460820FFF7B3FF1E48816B002919
:10032000FCD11D20C004C16A8905890FFBD1334669
:100330003A4600952046029902F060FC012005B083
:10034000F0BD70B5044617480D3001F017FD0546A5
:10035000002211460820FFF793FF00201249002CCD
:10036000086006D0012C0DD0022C0AD1294602F0DB
:1003700040FC2946FF2002F03CFC0A480549407A2F
:10038000886070BD2946002002F033FC70BD00007B
:1003900000E8070000E90100E000E200008013E847
:1003A000000038CC008012EC0080000470B5824858
:1003B0000268012189040A4302601D22D204D36A23
:1003C00030242343D36202688A4302607B4CA068D6
:1003D00000280DD0A06801F046FC07256D05286AAD
:1003E0000026002803D0286A01F03DFC2E62A6609A
:1003F00070BD73488168490849008160704710B535
:100400006D480069800716D56E48007801280FD125
:100410006D48407800280BD00720400581690822EC
:100420001143816102F01EFC0121684803F0EEF9DE
:10043000654801F080FF10BD10B55F4800690107F5
:100440006348816906D50122114381610020FFF7CD
:10045000EAFE10BD49084900816101215D4801F0B3
:100460009CFD10BD10B5544800691021C2075848C2
:10047000002A826905D00A4382610020FFF761FFEC
:1004800010BD8A43826101214F4801F0A4FF10BDD5
:1004900010B55149086900220A61C1030AD4C00499
:1004A0000CD54E484E49408882B2474801F008FFBB
:1004B000002803D10021444801F08DFF10BD10B584
:1004C000484A1069002111614203520F2ED1FF22C8
:1004D0000232104220D01D20C004C06A80061CD504
:1004E00041480278E02A21D101703648007801287D
:1004F0000ED03848007800280AD01104886980227C
:100500001043886102F0AEFB0221304803F07EF90F
:100510000021304801F0FEFD10BD344832494088CA
:1005200082B22C4801F0BCFD0028F5D1294801F029
:1005300014FE10BD10B5274840782D4C002802D17C
:100540006069C00613D5E06811210843E060606966
:1005500010218843606100211E4801F0B1FD002890
:1005600005D002F07FFBFE21184803F04FF96069C7
:1005700040084000606110BD10B513481C4C007964
:10058000002802D16069C0050FD5E168FF20013065
:100590000143E16061698143616116480168491C5A
:1005A00001600021084801F0DDFD606901210903B7
:1005B0008843606110BD000000E8010000E804000D
:1005C00000E0050000801338008013E80080134825
:1005D00000E000000080146C00E9010000800004CD
:1005E0000080094000E90200008000200080000037
:1005F00000E8070000800008064801680122120494
:100600001143016004480168032212031143016091
:100610007047000000E80100E000E100F8B50026A6
:100620000446FE4D012710E001F046F911200004B8
:1006300028607D204001A8616E61AF606869C007D5
:10064000FCD06E61EF60641EE4B2002CECD1F8BD0A
:10065000F7B50546C2B0452000900E460120C00502
:100660000121281A8903884208D2002002E0315C67
:100670002954401C44998842F9D351E00B200005CD
:100680000521281AC90388424CD200242F063F0EA8
:1006900024D02A0A1202002001A9135C0B54401C2A
:1006A000FF28FAD9384603E0C11B715C1154401C85
:1006B000FF28F9D901A9002002F090FA002831D1D1
:1006C000FF200130C01B041908E02A19311900204D
:1006D00002F084FA002825D1FF3401344498001B2D
:1006E000FF28F2D84498011B1CD02819020A1202D4
:1006F000CB4B002001AF155C3D54155C1D54401CD4
:10070000FF28F8D9002003E02318F35C3B54401C79
:100710008842F9D33946002002F060FA002801D15E
:10072000BA200090009845B0F0BD10B5002302E05B
:10073000CC5CC4545B1C9342FAD310BD70B5044624
:100740008079402801D0B74870BD00200546616916
:100750000D54401CA179C0B28142F8D8B2490020A2
:1007600063690A5C1A54401CC0B22028F8D302F016
:10077000AAFB6169020E20310A706269010C203205
:1007800051706269010A2032917061692031C8702C
:10079000242061690D54401CC0B24028F9D3A079CF
:1007A000608120830920000370BD10B54079FFF7F8
:1007B00035FF0920000310BD10B5044680790428D8
:1007C00001D0984810BD99480078012805D12146EC
:1007D000974801F050FB0028F4D0964B0020586059
:1007E000E16802465868000258608C5C521C044361
:1007F000D2B25C60042AF5D30920000310BD70B5A5
:1008000004468079402801D0864870BD894D012179
:100810006868C905421A49128A427DD2864A801800
:100820008842FAD281480078012805D121468048C3
:1008300001F021FB0028E8D06079FFF7EFFE207976
:1008400000286AD0E068017868680170E16849783A
:100850004170E16889788170E168C978C170E168A8
:1008600009790171E16849794171E168897981719A
:10087000E168C979C171E168097A0172E168497A70
:100880004172E168897A8172E168C97AC172E1686E
:10089000097B0173E168497B4173E168897B81735E
:1008A000E168C97BC173E168097C0174E168497C36
:1008B0004174E168897C8174E168C97CC174E16834
:1008C000097D0175E168497D4175E168897D817522
:1008D000E168C97DC175E168097E0176E168497EFC
:1008E0004176E168897E8176E168C97EC176E168FA
:1008F000097F0177E168497F4177E168897F8177E6
:10090000E168C97FC177E168203020310978017042
:10091000E1682031497801E09DE092E04170E168B2
:10092000203189788170E1682031C978C170E1682F
:10093000203109790171E168203149794171E1681B
:10094000203189798171E1682031C979C171E1680B
:100950002031097A0172E1682031497A4172E168F7
:100960002031897A8172E1682031C97AC172E168E7
:100970002031097B0173E1682031497B4173E168D3
:100980002031897B8173E1682031C97BC173E168C3
:100990002031097C0174E1682031497C4174E168AF
:1009A0002031897C8174E1682031C97CC174E1689F
:1009B0002031097D0175E1682031497D4175E1688B
:1009C0002031897D8175E1682031C97DC175E1687B
:1009D0002031097E0176E1682031497E4176E16867
:1009E0002031897E8176E1682031C97EC176E16857
:1009F0002031097F0177E1682031497F4177E16843
:100A00002031897F8177E1682031C97FC177BA259C
:100A10006079FFF703FEBA2D1AD00FE000E8070057
:100A200000800BD400006F010000393C00801338B7
:100A3000008013E800800010FF800040FE48401C4A
:100A400070BDA279E168686802F01AFB0546DFE72D
:100A50000920000370BDF848801C70BD70B50446C5
:100A60008079402801D0F44870BDF44D01216868B8
:100A7000C905421A49128A427ED2F14A8018884238
:100A8000FAD26079FFF7CAFD2079002875D068682E
:100A900061690078087068686169407848706868C2
:100AA00061698078887068686169C078C8706868B2
:100AB0006269017911716269417951716269817963
:100AC00091716269C179D1716269017A1172626949
:100AD000417A51726269817A91726269C17AD17286
:100AE0006269017B11736269417B51736269817B29
:100AF00091736269C17BD1736269017C117462690F
:100B0000417C51746269817C91746269C17CD17449
:100B10006269017D11756269417D51756269817DEE
:100B20009175C17D6269D1756269017E11766269D4
:100B3000417E51766269817E91766269C17ED1760D
:100B40006269017F11776269417F51776269817FB4
:100B50009177C17F62692030D17761690278203155
:100B60000A706169427820314A7061698278203167
:100B70008A70C278616901E088E07AE02031CA7049
:100B80006169027920310A716169427920314A71C3
:100B90006169827920318A716169C2792031CA71B3
:100BA0006169027A20310A726169427A20314A729F
:100BB0006169827A20318A726169C27A2031CA728F
:100BC0006169027B20310A736169427B20314A737B
:100BD0006169827B20318A736169C27B2031CA736B
:100BE0006169027C20310A746169427C20314A7457
:100BF0006169827C20318A746169C27C2031CA7447
:100C00006169027D20310A756169427D20314A7532
:100C1000827D616920318A756169C27D2031CA7522
:100C20006169027E20310A766169427E20314A760E
:100C30006169827E20318A766169C27E2031CA76FE
:100C40006169027F20310A776169427F20314A77EA
:100C50006169827F20318A77C17F60692030C177E6
:100C6000BA256079FFF7DAFCBA2D09D07248401C2A
:100C700070BDA2796069696802F002FA0546F0E782
:100C8000A079608120830920000370BD6A48801C20
:100C900070BD70B504468079402801D0664870BDAB
:100CA000664D0B2168680905401A0521C903884271
:100CB00023D264480078012805D12146624801F01A
:100CC000DAF80028EBD06079FFF7A8FC2079A27948
:100CD0000028E16868680AD0FFF7BAFC0546607929
:100CE000FFF79CFCBA2D05D05348401C70BD02F0A4
:100CF000C7F9F3E70920000370BD4F48801C70BDA1
:100D000070B504468079402801D04B4870BD4B4DEA
:100D10000B2168680905401A0521C90388427DD264
:100D20006079FFF77BFC2079002878D068686169DA
:100D3000007808706868616940784870686861691F
:100D40008078887068686169C078C870686862690E
:100D50000179117162694179517162698179917189
:100D60006269C179D1716269017A11726269417AED
:100D700051726269817A91726269C17AD1726269D3
:100D8000017B11736269417B51736269817B91734D
:100D90006269C17BD1736269017C11746269417CB3
:100DA00051746269817C91746269C17CD174626999
:100DB000017D11756269417D51756269817D917511
:100DC000C17D6269D1756269017E11766269417E79
:100DD00051766269817E91766269C17ED17662695F
:100DE000017F11776269417F51776269817F9177D5
:100DF000C17F62692030D1776169027820310A7041
:100E00006169427820314A706169827820318A7044
:100E10006169C2782031CA70027901E08FE081E017
:100E2000616920310A716169427920314A716169D1
:100E3000827920318A7109E000006F010080001082
:100E4000FF80004000801338008013E86169C27998
:100E50002031CA716169027A20310A726169427A6D
:100E600020314A726169827A20318A726169C27A5C
:100E70002031CA726169027B20310A736169427B49
:100E800020314A736169827B20318A736169C27B38
:100E90002031CA736169027C20310A746169427C25
:100EA00020314A746169827C20318A746169C27C14
:100EB0002031CA746169027D20310A756169427D01
:100EC00020314A756169827D20318A756169C27DF0
:100ED0002031CA756169027E20310A766169427EDD
:100EE00020314A766169827E20318A766169C27ECC
:100EF0002031CA766169027F20310A776169427FB9
:100F000020314A776169827F20318A77C17F6069A9
:100F10002030C177BA256079FFF780FBBA2D08D061
:100F2000F94870BDA2796069696802F0A9F80546C0
:100F3000F1E7A079608120830920000370BDF248A9
:100F4000401C70BD70B504468079402802D0EE4840
:100F5000401E70BD6079FFF761FBEC49A2796069C2
:100F6000496802F093F805466079FFF757FBBA2D00
:100F700001D0E54870BDA07960812083092000037D
:100F800070BD09200003704710B50446807904281D
:100F90001BD1DF480078012805D12146DD4800F04B
:100FA0006AFF002813D0D94B00209860E168024600
:100FB0009868000298608C5C521C0443D2B29C601A
:100FC000042AF5D3D87A800702D0CF48401E10BD3E
:100FD0000920000310BD30B5CC498C68A10702D0B0
:100FE000C948401E30BD8179002901D1FF2101315E
:100FF000418101830021C84B04E08A00A558491CA7
:101000009D5089B2428992088A42F6D8002104E0B4
:1010100044695A5C6254491C89B242898A42F7D8B1
:101020000920000330BD70B5B84D0446E87A80074A
:1010300004D1A079002801D0800702D0B248401E18
:1010400070BDB3480078012805D12146B14800F0B1
:1010500012FF0028F4D0A279AF4906E0501EE368E1
:101060008A181B5C203AD377C2B2002AF6D1AB684B
:1010700004E090000D58521C1D50D2B2A079800897
:101080009042F6D80920000370BD70B5044601797E
:101090009F481429007870D00DDC112946D005DC5A
:1010A0009E4D012923D0022968D10DE0122966D076
:1010B0001329F9D14EE0152975D0162974D01729B6
:1010C00073D01829F0D1C2E0A1790A29ECD1012806
:1010D00005D121468F4800F0CEFE002879D0E16886
:1010E0000878020248781043A2792818C2E0A17952
:1010F000122901D01A29D7D1012805D121468548C6
:1011000000F0B9FE002864D0E1680878020248784F
:10111000891C1043A2792818921E01F0B1FFBA2849
:101120007ED1A0797949801E0870ADE0A1790629A9
:1011300024D1012805D12146764800F09CFE0028E4
:1011400047D0E168714B0878020248781043A279D1
:101150000C338EE0A179002910D0012805D1214659
:101160006C4800F088FE002833D0E1686C4B0878AA
:10117000020248781043A2797BE017E080E0A17971
:1011800000297DD0012805D12146624800F073FE78
:10119000002878D0E168614B087802024878104353
:1011A000A279783365E015E028E03CE0A1790029D8
:1011B0006DD0012805D12146564800F05CFE00287C
:1011C00061D0E168574B0878020248781043A27951
:1011D0004FE058E0A179002959D0012805D12146D6
:1011E0004C4800F048FE00284DD0E1684D4B08788F
:1011F000020248781043A27980333AE0A1790029AD
:1012000045D0012805D12146424800F034FE00288F
:1012100039D0E1680878020248781043A27900E0EA
:1012200030E0414B25E0A179002930D0012805D1DB
:101230002146384800F01FFE002824D0E1683A4BD0
:101240000878020248781043A279803311E0A1792E
:1012500000291CD0012805D121462E4800F00BFEA4
:10126000002810D0E168314B08780202487810431A
:10127000A2791818891C921E01F002FFBA2800E01A
:1012800005E001D0204870BD0920000370BD1E4854
:10129000401E70BD10B504460079002804D0012816
:1012A00002D0102804D023E0A079C00720D102E0AA
:1012B000A07900281CD016480078012805D12146C5
:1012C000144800F0D8FD00280ED0E168124B0878D1
:1012D00002024878891C1043A2791818921E01F066
:1012E000CFFEBA2801D0084810BD0920000310BD68
:1012F0000548401E10BD10B5044680790A2817D055
:101300000148401E10BD000000006F020080001068
:1013100000801338008013E800800BD400800DD4C7
:1013200000800F4C0080104C0080114C0080124C4B
:10133000F9480078012805D12146F84800F09BFDC6
:101340000028DFD0E168F64B087802024878891C53
:101350001043A2791818921E01F092FEBA2801D00B
:10136000F048CFE709200003CCE7F8B5017904463F
:10137000480905280ED001280CD0042833D04A098A
:1013800031D006286ED002286CD007286AD00328F6
:1013900068D0C8E0A0794007FBD1080601D5012537
:1013A00000E000256079FFF739F920790095000702
:1013B00001D0012300E00023D9490822403903204D
:1013C00001F04CFEBA287AD16079FFF727F920792D
:1013D000D54A0007A0790090636901D0D04900E0A8
:1013E0000021032031E0A079400705D1CF4D2878B6
:1013F000102802D0182802D095E0012600E002262D
:10140000080601D5012700E000276079FFF706F9FB
:1014100020790097000701D0012300E00023C04994
:101420002A784039304601F019FEBA286FD1607928
:10143000FFF7F4F82079BC4A0007A07900906369AF
:1014400001D0B74900E00021304601F0DDFCBA28A8
:101450005DD16079FFF7E2F801F0E6FCA0796081E8
:1014600020835DE0C806B249800E095AAC481030AE
:101470000160A579002D01D1FF250135CA08AA42D6
:1014800051D100294FD0A9490C314160A4493831CC
:101490008160FF310131C160FF3101310161803173
:1014A0004161803181618031C16180310162207987
:1014B00081069B483030002902DB012101E026E053
:1014C0000021017161798909890106D0402906D07E
:1014D000802916D0E122427103E05A2100E02D213B
:1014E000417101F0DDFB60798006800EFFF796F810
:1014F00020798D4900068F48626904D501F0D5FB3B
:1015000007E09621ECE701F0D6FBBA2801D0854828
:10151000F8BD60798006800EFFF780F8658125832D
:1015200009200003F8BD7F48401EF8BD70B58579DD
:101530000446002D01D1FF2501356079FFF76EF8D3
:101540002946606901F084FD06466079FFF766F878
:10155000BA2E01D0734870BD658109202583000330
:1015600070BDFEB504460079010601D5012100E0F9
:1015700000210091410601D5012700E000278106E6
:1015800007D5C10602D50226182504E0012610253C
:1015900001E0032608250107A0791BD040071BD1D5
:1015A0006079FFF73BF8A07900905F4A6369002FEC
:1015B00001D05B4900E00021304601F025FCBA284B
:1015C0002BD16079FFF72AF801F02EFCA079608119
:1015D000208327E0022802D05248401EFEBD4E481C
:1015E0000078012805D121464C4800F044FC002831
:1015F000F4D0E068017840780902084301906079EE
:10160000FFF70CF846490198403909183B462A462D
:10161000304601F0F0FBBA2801D04248FEBD6079A7
:10162000FEF7FCFF09200003FEBD70B504460079FB
:101630003F49C006800E095A3E4801603B490C31C3
:101640004160014628318160FF310131C160FF31C5
:101650000131016180314161803181618031C1613D
:10166000803101622079334980062031002801DB76
:10167000012000E00020087160798009800106D017
:10168000402806D080281AD0E1224A7103E05A206F
:1016900000E02D20487101F003FB60798006800E88
:1016A000FEF7BCFF234801F00CFB0546607980067D
:1016B000800EFEF7B3FFBA2D03D01A4870BD9620F6
:1016C000E8E70920000370BD70B5044600791849A9
:1016D000C006800E095A17480160A579002D01D176
:1016E000FF25013560791138030002F0DAF80805AA
:1016F000270C3039434C5669042D61D10B492A46D9
:101700000C31606951E0C808A84259D1002957D06E
:101710002A460949606948E000801338008013E8D0
:1017200000800E1400006F0200800BD400800010B7
:10173000000038FC00800E2400800F4CC808A8422E
:101740003ED100293CD02A46714960692DE0080944
:10175000A84235D1002933D02A466E49606924E079
:101760000809A8422CD100292AD06A492A4680318A
:1017700060691AE00809A84222D1002920D02A462F
:101780006549606911E00809A84219D1002917D0FC
:1017900061492A468031606907E00809A8420FD1F3
:1017A00000290DD02A465D49606901F069FCBA281C
:1017B00001D05B4870BD658109202583000370BDA1
:1017C0005748401E70BDF8B505468079082802D0FC
:1017D00067200002F8BD53480078012805D129464A
:1017E000514800F048FB0028F4D00023E8681C466C
:1017F0001A461902531DC35C0B43210214460934D7
:10180000045D521C0C43D2B2042AF2D3474A10683A
:101810000126F6043043106045480127076045491A
:101820004160C46083600169394301610169C9078E
:10183000FCD140681168B14311606A69010A1170F6
:1018400069694870022028833B48F8BD10B50179CA
:10185000A52905D14179962902D18079002802D0A5
:101860002F48401E4EE501F0E8F90920000349E544
:1018700030B58179242902D02948401E30BD2F4B34
:10188000002211468D005C59491C62400929F9D398
:10189000596A91420ED1002103E044695A5C6254B6
:1018A000491C82798A42F8D8D1B24181018309204A
:1018B000000330BD1A4830BDF0B51C4B1868012537
:1018C000ED0428431860D869EE123043D8611C48F3
:1018D0005F030760164CD803A060C012E0600020D0
:1018E00001212161174A00211161174930BF0A6A9D
:1018F000D207FBD1401C80B20828F1D310488030B9
:101900000760D869B043D8611868A8431860F0BD73
:1019100000800E4C0080104C0080114C0080124C56
:1019200000006F0200801338008013E800E8010017
:1019300000E00400000063630000610200DE01803B
:10194000E000E100E000ED0000E00E4070B566222E
:101950000021184800F04AFA164C11202034607219
:10196000144D0C20E871144E0020315C2A18401CE4
:10197000C0B211720C28F8D30520A07402460D489D
:101980000EA1333000F01AFA002031188A79291894
:101990002031401CC0B20A760628F6D3E07CC02174
:1019A000801DE074A07C801DA07402484030017549
:1019B00070BD0000008012CC0000395C057880C04A
:1019C0000200000010B54749672309781B0202296D
:1019D00002D10188052903D3018A0289914201D0ED
:1019E000184610BD8178102902D03720400210BD62
:1019F000C178222954D01CDC13293FD00CDC1029DB
:101A000033D004DC01292AD0022925D12AE011296A
:101A10002ED0122920D12EE0162938D004DC14292A
:101A20002FD0152918D12FE0202933D0212913D107
:101A300033E035293DD007DC30390B0001F031FFB0
:101A40000533363C3F420C0036293ED037293FD083
:101A5000402943D0FE293ED06D20000210BDFEF784
:101A60006DFE10BDFEF7A1FE10BDFEF7A5FE10BD78
:101A7000FEF7C5FE10BDFEF7F1FF10BDFFF709F937
:101A800010BDFFF73DF910BDFFF75CFA10BDFFF781
:101A900078FA10BDFFF778FA10BDFFF79CFA10BD79
:101AA000FFF7C1FA10BDFFF7F0FA10BDFFF7F2FB28
:101AB00010BDFFF720FC10BDFFF757FC10BDFFF76E
:101AC00035FD10BDFFF74DFD10BDFFF7AEFD10BD9C
:101AD000FFF7FAFD10BDFFF7B9FE10BDFFF7C8FE16
:101AE00080B210BD0080133810B58F4900200870F7
:101AF00001F040F810BDF0B58B4887B08B49B0308D
:101B000081668B49C16701468A4C803101250C6092
:101B1000AD0240390D87884941678849C1668849C7
:101B2000016700F0E9FB814986482B310164864951
:101B300084654165014640310D8184494164844991
:101B4000C1648449016500F0DEFA784E3936B17D12
:101B500000293BD00025080700D50125C80601D57E
:101B6000022005430846C72210400024059048077C
:101B70000BD579A000680690880906A90C5C6B4912
:101B800022465031684600F019F9B07D81070ED524
:101B900072A109680691800906A90F5C634968462D
:101BA00000193A465A3100F009F9E019C4B2B07D83
:101BB000C00706D05D496846001902225D3100F079
:101BC000FDF86A462846059900F0E3FF07B0F0BD2E
:101BD00010B5644A624904469160FEF70DFD072185
:101BE0004905012C18D0022C22D0FE2C2CD05E4AA4
:101BF0000C2010601D22D2041120936A9B07FCD098
:101C00008A690242FCD08A6982438A61464900207F
:101C1000087001F038F910BD88690007FCD58869A3
:101C20000822904388614748843800F084FBEDE740
:101C300088690006FCD5886980229043886101216B
:101C4000404800F067FAE1E700213E4800F0A5F9BE
:101C5000DCE7464800210160454A08461154401C13
:101C6000FF28FBD9704730B5404B414D1A68040E30
:101C700091006C54040C49194C70040A8C70C870A3
:101C8000521C1A6030BD3748C16A10221143C1622C
:101C90000168C204114301600168420311430160FD
:101CA00034480168890F0229FBD189054160092167
:101CB000490281600021C1600D21C90601607047A1
:101CC000FFF712FFFFF742FEFFF715FF0025072081
:101CD000400585611448103001F081FDC0B2FFF766
:101CE00077FF184E104C843EFF277078002809D0EB
:101CF000012020701348843800F049FA11488438D4
:101D000000F0D6FA0F480078002807D00220207093
:101D10000C4800F054F90B4800F03AF916482770C7
:101D2000056120BFE1E7000000801338008012D376
:101D3000000038EC000019C5008005400080094013
:101D4000008000040080146C000038BC008001405A
:101D5000008000200080000004070A040102030143
:101D60003F3F0B0B00E80100E000E1000080000CA9
:101D700000800AC100E80600E000ED0010B501F0A7
:101D80006BFC10BD10B50C460146204601F06FFCFF
:101D9000204610BD01784278080210437047417018
:101DA0000A0A02700846704710B5002303E0CC5CB5
:101DB00060405B1CDBB29342F9D310BD884202D86D
:101DC00007E08B5C83541346521E92B2002BF8D16D
:101DD0007047884204D370470B780370401C491C3D
:101DE0001346521E92B2002BF6D1704710B5031E57
:101DF00007D001E019705B1C1446521E92B2002CF1
:101E0000F8D110BD30B500230DE004780D78AC4258
:101E100001D9012030BDAC4201D2FF2030BD5B1C96
:101E2000401CDBB2491C9342EFD3002030BD10B5FB
:101E30000C46002181828188C91E89B26181027E9F
:101E4000920701D5491E6181218B6289914201D996
:101E5000012300E00023002B00D1618162896169C8
:101E600000F0EEFB6089616909186161218B081A35
:101E700080B2208310BDF8B5054688790C460881EC
:101E8000098A814221D0287800281ED1A86E2030EE
:101E9000807A002801D00020F8BD00262E7220890B
:101EA000009028460123E21C8321083000F0A2FAAA
:101EB000687A0028FCD02869E06068694088208240
:101EC000218808182080268366810120F8BD018BB7
:101ED000002905D00279002A02D14279002A02D0D5
:101EE0006B200002704782794281002A02D1FF22D2
:101EF0000132428192B291420DD3881A0104090C39
:101F000006D061200002FF29ECD8C9B2081870473A
:101F100009200003704700224281C8B21B218902B8
:101F20004018704738B50C4601210170618B0029BB
:101F30001AD062890521002A21D06269E378203A0B
:101F4000D377009161896269491C8BB2618B521E03
:101F50000904833100F04EFA218B6089091A21832C
:101F600061690818606111E0002101702189009108
:101F70000123E21C832100F03DFA002038BD2246F7
:101F8000009102231A32832100F034FA208B38BDED
:101F900010B5001D00F0BFFA10BD10B504460020BA
:101FA0002070002904D0606D01680120884710BDB1
:101FB000201D00F065FB201D00F0ADFA10BD10B52E
:101FC0000446407988B0002829D0E07BF2210840FF
:101FD000A22826D0C2281ED06F210902684641835C
:101FE000218B01800522801C6169FFF7E7FE00213B
:101FF0006846018141810183606905906069401DE7
:102000000390684601820088052810D36946401F66
:102010000882088111E000212046FFF7BEFF08B0CA
:1020200010BDE06B0590208F694608832FE00428DF
:1020300003D16A46917105201080A16D68468847DA
:102040006946488381B2002907D0092212039142D0
:102050000AD0000A612805D006E067200002694620
:10206000488301E0684642836A46508B128B05998B
:10207000000A88546A46108B401C80B21083518B32
:10208000059A11546A46108B6946401C1083201D26
:10209000FFF7CDFE6846008B20870598E063BEE71A
:1020A00010B509780A090D2A06D0026C001D2032ED
:1020B000D27800F027FC10BD001D00F0B9FC10BD67
:1020C00010B504460078002819D06170002906D0A8
:1020D000606D002283681146802098470FE0617B85
:1020E000201D00F078FA02E0201D00F014FAA0791B
:1020F0000028F9D1E07BF2210840C22801D000205D
:1021000010BD012010BD002101704170426CC263FE
:102110000187704770B50D460446FFF7F4FF48206D
:10212000005B6083606CA062E06C2062206D606286
:10213000606D6063201D00F005FD01202070226CA1
:10214000206A13784178201D521C00F0A6FC002D57
:1021500002D0201D00F0DFF970BD10B5001D00F0A9
:10216000D5FC10BD10B54278002A08D001710029B5
:1021700006D0C06F0022836811468020984710BDAA
:1021800001780029FBD1083000F082F910BDF0B5CC
:102190000446007887B000280BD020462030017C10
:1021A000FF2904D10121C1732046FFF7DBFF07B0EF
:1021B000F0BD607A0028FAD0207A2746254600260E
:1021C0005C37403500281AD0052168460180052279
:1021D00038462169FFF7F2FD68460682068146818E
:1021E000687FC02805D0A069401C0590684606831A
:1021F00017E0606E0590688C6946088311E02069DD
:102200000390606969464088088209880818694611
:102210000880A069401C05900E834E816020005DFF
:10222000088100A8052239460230FFF7C7FD80204B
:102230000159684688476946488320460830FFF7B9
:1022400071FE688405986066B1E7F7B582B045799C
:1022500000270446877048780E46C00600D5B5783A
:102260000020049AFFF7A0FD002805D17078000730
:10227000000F04D001280FD0002005B0F0BD27705A
:102280002809E073052000902046324603210830DB
:10229000049B00F0AFF804E0E0780028EDD00120C6
:1022A00020706571E06FC168284688470120E4E727
:1022B00010B50178002902D1083000F0D5F810BD22
:1022C00010B584780123002C02D00C78FF2C05D0A7
:1022D000002181700178002903D00BE0FFF7B5FFE2
:1022E00007E0816E424A203149799163083000F05D
:1022F000A8F80346184610BD70B500210170417062
:1023000001228270C1700171426F03464033426600
:102310005984816E2031897841718261C56E056171
:10232000016F4161C46F44621E8F5E8045648465A5
:10233000C264816470BDF8B50446C06F01680220B4
:1023400088472046FFF7D8FF20460830064600F0B1
:10235000B4F8A16E022388780009C20700D00323D5
:10236000820700D55B1C420700D55B1C000702D525
:102370005B1CC85C00E000200207120F0125002A48
:102380001AD0012A17D1E570257000090AD0C207BA
:1023900000D05B1C820700D55B1C420702D55B1C8A
:1023A000CA5CA273207800280CD00A78491CE06C23
:1023B000FFF704FD6570F8BD0022227062791209F2
:1023C000E273E2E7052000900B784A1C03213046B7
:1023D00000F010F8EEE70022427001228270C06F18
:1023E0000029016801D0012000E002200847000018
:1023F00000E90100FFB581B00F46044600210A98AC
:102400001E466170A080E16832460860E068009076
:10241000E069A368456838460399A84705000ED0CF
:102420000020A0706078002806D0A761A6823246FE
:1024300020690399FFF7C2FC284605B0F0BD0120D2
:10244000EFE710B5C16882880B6801219A4202D972
:102450000170002010BD4170C2798179C069836824
:1024600007209847012010BD38B5817800290ED08B
:10247000C26881881160C1680091828A846983681A
:1024800001698025C0692C4345682046A84738BDAE
:102490007CB50446602069460871E0680090E069F8
:1024A00001224568A36801A98220A847E069E27972
:1024B0008368A179072098477CBD00214170817015
:1024C0000122C2710A238371052381618380027016
:1024D000818270470D2900D90C21F94A4900515ACF
:1024E00001807047F8B54285044603850846E162DD
:1024F00000216170216A0091616AE66989181A46B3
:10250000236B5D683346A847002802D00020207066
:10251000F8BD0120FBE738B50178002911D0002172
:102520000170016A0091428D416AC46A8918028D66
:10253000C3698025006B2C4345682046A8470120CD
:1025400038BD002038BDF0B4047E456AA407E41706
:10255000641C2955611C057E89B2AE0710D5476AF7
:102560004D1EBC467E5D08273E4367467E55466A43
:10257000057B7554491C057E202689B2354301E050
:10258000DF2635400576002B19D0456A6D18C9182D
:1025900089B2954213D0954202D80BE0D65CEE5436
:1025A0001E465B1E9BB2002EF8D108E016782E70F6
:1025B000521C6D1C1E465B1E9BB2002EF6D1091BE1
:1025C0002246F0BC8BB203218CE7417BA22211434F
:1025D00000231A46B7E7F8B5012282704172027EE5
:1025E000446A9207D317F2225B1CE2545A1C047E01
:1025F00092B2A5070ED5456A541E2E5D08273E43AC
:102600002E55456A047BAC54521C047E202592B2A0
:102610002C4301E0DF252C400476446AA154521C6F
:10262000D11A8AB24385028500214170016A009166
:10263000416AC918C369006B44688320A047F8BD8C
:10264000FFB581B01E46174604460225A078002833
:10265000FCD1206B00228368114608209847002E89
:1026600005D010200543207E402108432076617B61
:102670003B4629432046029AFFF765FF05B0F0BDAF
:10268000426AC2211170017E01238A070AD5416A7C
:10269000CA220A70426A017B5170017E0223202205
:1026A000114301E0DF22114001760022062119E7E3
:1026B00010B5817800290BD0017E8907C16901D549
:1026C0008A7800E04A78910902D1417A914201D09A
:1026D000002010BD0121417000218170017A006B42
:1026E000836807209847012010BD10B5427B8A42BD
:1026F00002D0FFF76AFF16E0C17A002906D0017EFA
:102700008906416A04D50978022203E0002010BD41
:1027100049780122F7231940038D9A1A93B2426A2D
:10272000921CFFF710FF012010BD8278002A08D10B
:10273000C907427BC90F914200D1D6E7017E4B0603
:1027400001D400207047BF231940017601214A407F
:102750004273417008467047002181700121417029
:10276000704770B5044680780125002801D000200C
:1027700070BD207EBF2108402076800700D502254D
:10278000A18A20694018216A4988491B8AB2E169F7
:102790004919FFF713FB216AA08A4988491B401891
:1027A00080B2A082E18A884202D90020A082DEE7BE
:1027B000627B01214A406273E2691278D20603D536
:1027C0002046FFF702FF08E0002808D06170206B68
:1027D000627A8368217A07209847012070BD002320
:1027E0001A4619462046FFF72BFFF6E770B5C16978
:1027F0000446C87800250226A12802D0A32831D09B
:102800007EE0887802287BD10878616A0870E069E8
:10281000616A40784870616A0D208870616AA22000
:10282000C870616A0B200871616A80204871606A13
:102830008671616A0F20C871606A0572616A8120C1
:102840004872606A8672616A7F20C872606A057326
:10285000616A82204873616A01208873606A10236C
:10286000C57345E088780D284AD1C879C20701D0E0
:1028700000200AE0820701D5012006E0420701D5C9
:10288000022002E000073BD50320C97ACA071BD10A
:102890008A0701D5001D17E04A0701D5083013E06B
:1028A0000A0701D50C300FE0CA0601D510300BE045
:1028B0008A0601D5143007E04A0603D5183003E034
:1028C00000003968C9091BD0A072216BC96888470C
:1028D000E069616A00780870E069616A4078487070
:1028E000606A8670616AA420C870606A05230571F9
:1028F000002203212046FFF7F5FD012070BDFFE710
:102900000020FBE7F8B500260546C6700C464807D0
:102910007DD4296AEB880868984278D82707022373
:10292000002F0ADA042872D3E8692F7B4078B84276
:102930006DD1287E1843287608E0032867D3287EC7
:10294000FD2738402876287B002860D10868801E43
:102950000860A10989013AD0F227802946D0C02910
:1029600055D1D10701D0E10751D121463940F02995
:1029700000D01943C22904D0F0291CD0F22946D135
:102980000EE0110601D5A10741D5210702D5022885
:102990003DD101E001283AD1AE700120687044E0D9
:1029A000210702D5032832D101E002282FD1284681
:1029B000FFF77EFEF8BDE869017809090F2926D1E5
:1029C0004078A02823D12846FFF710FFF8BD500714
:1029D00001D5A0061BD4A00719D5E007697BC00F5D
:1029E000884214D02846FFF7BCFE1CE0910700D4B3
:1029F0001C43210703D5022809D102E007E0012882
:102A000005D120463840A22809D0B22801D00020A4
:102A1000F8BDE107C90F2846FFF767FEF8BD21465C
:102A20002846FFF782FE0028F8D0EC720120F8BD9E
:102A300070B50446216AC0784988002889B20BD055
:102A40000022E270002806D0E069227B0378D025BE
:102A50002A43934201D0002050E7052902D00429DF
:102A600004D018E04178112904D014E040780128FE
:102A700002D010E0807800E00020A072216BC968CD
:102A80008847E069616A0078087001230022032109
:102A90002046FFF727FD012030E7FFB5044681B04F
:102AA000002015460E4660702070A0822076080730
:102AB000000F207301276773E770606A2946049A44
:102AC000FFF77CF969780220CA0600D50320890641
:102AD00002D5285C000900E00720207231096772E6
:102AE000082900D90821201DFFF7F4FC68780107A8
:102AF000090F082900D90821A01DFFF7EBFC0022CF
:102B000003212046049BFFF7EDFCB7E538B50446EA
:102B1000002060700120E062206B00228368114673
:102B200008209847206A0090216B00224D68E369D5
:102B3000E06A1146A847002802D00020207038BD66
:102B40000120FBE70021417001708170C1701022EB
:102B5000828007220272012242728172C172017365
:102B60004273426A921C026181820176418501852D
:102B7000C162704710B5002000F08EFA10BD10B58C
:102B8000012100F091FA10BD10B5022300F0ABFA5C
:102B900010BD10B5032300F0A6FA10BD38B504240B
:102BA000009400F0B2FA38BD10B5052100F07CFAAF
:102BB00010BD10B5062000F06FFA10BD10B5072249
:102BC00000F081FA10BD38B50824009400F09DFA99
:102BD00038BD10B5092300F086FA10BD10B50A23E0
:102BE00000F081FA10BD38B50B24009400F08DFA86
:102BF00038BD10B50C2200F066FA10BD7CB5069CFD
:102C00000D250195009400F094FA7CBD10B50E23BB
:102C100000F069FA10BD7CB5069C0F250195009463
:102C200000F087FA7CBD10B5102200F04CFA10BD00
:102C300010B5112000F030FA10BD10B5122000F0D0
:102C40002BFA10BD10B5132300F04DFA10BD10B5CE
:102C5000142000F021FA10BD38B51524009400F0BE
:102C600054FA38BD10B5162000F016FA10BD10B594
:102C7000172000F011FA10BD10B5182000F00CFA62
:102C800010BD10B5192200F01EFA10BD10B51A22A1
:102C900000F019FA10BD10B51F2000F0FDF910BDAD
:102CA00010B5402000F0F8F910BD10B5412300F038
:102CB0001AFAC0B210BD10B5422300F014FAC0B227
:102CC00010BD10B5432100F0EFF9C0B210BD10B532
:102CD000442300F008FAC0B210BD10B5482200F03D
:102CE000F2F9C0B210BD10B5492100F0DDF9C0B253
:102CF00010BD10B54A2100F0D7F9C0B210BD10B513
:102D00004B2100F0D1F9C0B210BD7CB5069C4C251A
:102D10000195009400F00DFA7CBD10B54D2300F034
:102D2000E2F9C0B210BD10B54E2300F0DCF9C0B21C
:102D300010BD38B54F24009400F0E7F9C0B238BD9B
:102D400038B55024009400F0E0F9C0B238BDFFB5AA
:102D500089B015AEB0CE8E46189894461499512677
:102D6000129A05970495069007961398009201AE63
:102D700013C662467146099800F0BEFAC0B20DB0A3
:102D8000F0BD10B5522300F0AEF9C0B210BD10B5C1
:102D9000532300F0A8F9C0B210BD10B5542300F0C1
:102DA000A2F9C0B210BD38B55524009400F0ADF9B9
:102DB000C0B238BD38B55624009400F0A6F9C0B2B0
:102DC00038BD10B5572100F06FF9C0B210BD38B54D
:102DD0005824009400F099F9C0B238BD38B5592490
:102DE000009400F092F9C0B238BD10B55A2200F03C
:102DF0006AF9C0B210BD7CB5069C5C2501950094B3
:102E000000F097F9C0B27CBD7CB5069C5D250195AC
:102E1000009400F08EF9C0B27CBD38B55E240094F9
:102E200000F073F9C0B238BD10B55F2000F034F97E
:102E300010BD10B5602100F037F9C0B210BD10B55B
:102E4000612200F040F9C0B210BD10B5622100F05F
:102E50002BF9C0B210BD10B5632200F034F9C0B236
:102E600010BD10B5642300F03EF9C0B210BD10B51E
:102E7000652200F028F9C0B210BD10B5682200F03C
:102E800022F9C0B210BD10B5692000F005F9C0B23A
:102E900010BDFEB5089C6C266F46099D70C700F0FA
:102EA00060F9C0B2FEBD7CB5069C6D25019500940D
:102EB00000F03FF9C0B27CBD38B56E24009400F03C
:102EC00024F9C0B238BD10B5702000F0E5F810BD8F
:102ED00010B5752000F0E0F810BD10B5762000F0B8
:102EE000DBF810BD10B5772000F0D6F810BD10B596
:102EF000782000F0D1F810BD10B5792000F0CCF8A2
:102F000010BD10B57A2000F0C7F810BD10B57B20B9
:102F100000F0C2F8C0B210BD10B57C2000F0BCF8C3
:102F2000C0B210BD38B57D24009400F0EEF8C0B2F8
:102F300038BD10B57E2200F0C6F810BD10B57F2256
:102F400000F0C1F810BD10B5802200F0BCF810BD33
:102F50007CB5069C8A250195009400F0EAF8C0B281
:102F60007CBD10B58B2300F0BEF8C0B210BD10B50B
:102F70008C2300F0B8F810BD10B58D2200F0A3F836
:102F800080B210BD38B58E24009400F0BEF880B237
:102F900038BDFEB5089C8F266F46099D70C700F0AE
:102FA000E0F8FEBD10B5902300F09DF8C0B210BD52
:102FB00010B5912300F097F8C0B210BD10B5922162
:102FC00000F072F810BDF0B585B00AAF70CF93274E
:102FD00003976F4670C700F0E1F8C0B205B0F0BDCE
:102FE00010B5942000F058F810BD10B5952000F0F1
:102FF00053F810BD10B5962000F04EF810BD10B576
:10300000972100F051F810BD10B5982000F044F859
:10301000C0B210BD10B5992100F046F8C0B210BD85
:1030200010B59A2200F04FF810BD38B59B240094DB
:1030300000F06BF838BD7CB5069C9C25019500948A
:1030400000F077F87CBD10B59D2000F025F810BD8C
:1030500010B5682200F0AFF9C0B210BD7CB5069C77
:103060005C250195009400F0DCF9C0B27CBD7CB514
:10307000069C5B250195009400F0D3F9C0B27CBD9D
:1030800010B56C2300F0A7F9C0B210BD10B58123B4
:1030900000F0A1F9C0B210BD0102FF22120251409E
:1030A000C0B20843B5490847024630B44A40130449
:1030B0000A02FF24240262401A43C9B21143AF4AF4
:1030C00030BC121D104730B403464B4053401C0423
:1030D0001302FF252D026B402343D2B21A43A74BA4
:1030E00030BC08331847F0B404464C4054405C40B0
:1030F0001D02FF263602240475402543DBB29F4C97
:103100002B430C34A446F0BC6047F8B505464D404F
:103110005540069C5D4065402E042502FF273F0276
:103120007D403543E4B22C430094944C1034A047C6
:10313000F8BDFEB5844648405040089D099C584063
:10314000684060400604FF20270200024740E0B2CA
:1031500037433843894C0190009560461434A047AA
:10316000FEBDFEB5864648405040089E5840099D29
:1031700070400A9C68408C4660400704FF21200292
:1031800009024140E0B2394308437C4C0290614659
:103190000096019570461834A047FEBDFFB585B076
:1031A0008E469446059972465140624651400E9EA5
:1031B0000F9D5940109C71406940119861404140F9
:1031C0000F040102FF2212024A403A43C0B21043E8
:1031D00002946A4C009603906246714601951C3435
:1031E0000598A04709B0F0BDFFB585B09C46069F85
:1031F000059B96467B405340624653400E9E0F9D72
:10320000109C734011996B40634012984B404340AF
:103210001F040202FF231B0253403B43C0B218436A
:103220000294564C009601950391049063467246B1
:10323000203406990598A047D4E7FFB587B09C468F
:10324000089F079B96467B40534062465340109F21
:10325000119E129D7B40139C73406B4063401499F8
:1032600015984B4043401F040202FF231B025340AA
:103270003B43C0B218430590039410983F4C02950D
:103280000491009063467246019624340899079889
:10329000A0470BB0F0BDFFB587B09C46089F079BC9
:1032A00096467B40534062465340109E119F7340A8
:1032B0007B40129F139D149C7B406B40159963408B
:1032C00016984B4043401F040202FF231B02534049
:1032D0003B43C0B21843059106900395119804949E
:1032E00012990291254C019063467246009628344B
:1032F00008990798A047CCE7FFB589B09C460A9F7C
:10330000099B96467B40534062465340129E139D54
:103310007340149F6B407B40159F169C7B4018990F
:103320006340179F19987B404B4043401F040202A3
:10333000FF231B0253403B43C0B21843179A059228
:10334000079006911498049415990C4C00960391DB
:1033500002906346724601952C340A990998A04759
:103360000DB0F0BD06487047064A0021535C435437
:10337000491CC9B22029F9D370470000006001013F
:1033800000001001000039820102FF2212025140A8
:10339000C0B20843AF490847024630B44A4013045C
:1033A0000A02FF24240262401A43C9B21143A94A07
:1033B00030BC121D104730B403464B4053401C0430
:1033C0001302FF252D026B402343D2B21A43A14BB7
:1033D00030BC08331847F0B404464C4054405C40BD
:1033E0001D02FF263602240475402543DBB2994CAA
:1033F0002B430C34A446F0BC6047F8B505464D405D
:103400005540069C5D4065402E042502FF273F0283
:103410007D403543E4B22C4300948E4C1034A047D9
:10342000F8BDFEB5844648405040089D099C584070
:10343000684060400604FF20270200024740E0B2D7
:1034400037433843834C0190009560461434A047BD
:10345000FEBDFEB5864648405040089E5840099D36
:1034600070400A9C68408C4660400704FF2120029F
:1034700009024140E0B239430843764C029061466C
:103480000096019570461834A047FEBDFFB585B083
:103490008E469446059972465140624651400E9EB2
:1034A0000F9D5940109C7140694011986140414006
:1034B0000F040102FF2212024A403A43C0B21043F5
:1034C0000294644C009603906246714601951C3448
:1034D0000598A04709B0F0BDFFB585B09C46069F92
:1034E000059B96467B405340624653400E9E0F9D7F
:1034F000109C734011996B40634012984B404340BD
:103500001F040202FF231B0253403B43C0B2184377
:103510000294504C009601950391049063467246C4
:10352000203406990598A047D4E7FFB587B09C469C
:10353000089F079B96467B40534062465340109F2E
:10354000119E129D7B40139C73406B406340149905
:1035500015984B4043401F040202FF231B025340B7
:103560003B43C0B21843059003941098394C029520
:103570000491009063467246019624340899079896
:10358000A0470BB0F0BDFFB587B09C46089F079BD6
:1035900096467B40534062465340109E119F7340B5
:1035A0007B40129F139D149C7B406B401599634098
:1035B00016984B4043401F040202FF231B02534056
:1035C0003B43C0B2184305910690039511980494AB
:1035D000129902911F4C019063467246009628345E
:1035E00008990798A047CCE7FFB589B09C460A9F89
:1035F000099B96467B40534062465340129E139D62
:103600007340149F6B407B40159F169C7B4018991C
:103610006340179F19987B404B4043401F040202B0
:10362000FF231B0253403B43C0B21843179A059235
:1036300007900691149804941599064C00960391EE
:1036400002906346724601952C340A990998A04766
:103650000DB0F0BD0070010141780278C378090413
:103660001206114382781002184308437047020A79
:10367000C8708A70020C4A70020E0A7070470022ED
:1036800003098B422CD3030A8B4211D300239C469F
:103690004EE003460B433CD4002243088B4231D317
:1036A00003098B421CD3030A8B4201D394463FE0AB
:1036B000C3098B4201D3CB01C01A524183098B420B
:1036C00001D38B01C01A524143098B4201D34B01F4
:1036D000C01A524103098B4201D30B01C01A524157
:1036E000C3088B4201D3CB00C01A524183088B42DE
:1036F00001D38B00C01A524143088B4201D34B00C7
:10370000C01A5241411A00D2014652411046704738
:103710005DE0CA0F00D04942031000D3404253403D
:1037200000229C4603098B422DD3030A8B4212D3FD
:10373000FC22890112BA030A8B420CD3890192112F
:103740008B4208D3890192118B4204D389013AD06C
:10375000921100E08909C3098B4201D3CB01C01A41
:10376000524183098B4201D38B01C01A5241430954
:103770008B4201D34B01C01A524103098B4201D342
:103780000B01C01A5241C3088B4201D3CB00C01AAF
:10379000524183088B4201D38B00C01A5241D9D2C7
:1037A00043088B4201D34B00C01A5241411A00D248
:1037B0000146634652415B10104601D34042002B44
:1037C00000D54942704763465B1000D3404201B5C3
:1037D0000020C046C04602BD704770477047414652
:1037E000016049464160514681605946C160714659
:1037F000016169461430F0C00160001D01B5C0468A
:10380000C04606BC964601C10020704704000D006A
:10381000A06AC046C046616A220028008D4600D1D9
:103820000120116888465168894691688A46D168A6
:103830008B4611691432F0CA8E467047754600F007
:1038400025F8AE46050069465346C008C0008546C7
:1038500018B020B5FCF790FC60BC00274908B646BC
:103860000026C0C5C0C5C0C5C0C5C0C5C0C5C0C58F
:10387000C0C5403D49008D46704710B50446C0465E
:10388000C0462046FCF767FC10BD000000487047AA
:10389000008014C801491820ABBEFEE700020026D4
:1038A000704730B47446641E2578641CAB4200D265
:1038B0001D46635D5B00E31830BC1847000002271B
:1038C000000001FB000001B30000019D0000017435
:1038D000022E02E8045C05D007440000000002004C
:1038E000030004000600080000000000000003437D
:1038F000000002F100000281000002E5000000006B
:1039000000000140018001C002000240028002C0AC
:1039100003000340038003C004000440048004C08B
:1039200005000540058005C006000640068006C06B
:1039300007000740078007C008000000464D3132ED
:10394000383020536554657374434F532056312EDD
:103950003034203230313730353235003BD69502A5
:10396000406431323830050B001000180020002868
:1039700000300040006000800100020004000800E8
:103980001000464D53485F4669726D77614C69621D
:103990005F56312E3030315F323031365F31313267
:1039A00039000000000039C4008000000000002041
:1039B00000000104000039E4008000200000260817
:1039C00000000120000000000000000000000000D6
:1039D00000000000000000000000000000000000E7
:0439E00000000000E3
:04000005000000C136
:00000001FF
