:10001600C0E0C0F0C083C082C0D0C000C001C00232
:10002600C003C004C005C00675D000C2D5781274DE
:100036003475455679467778C8B41202800300D2E3
:10004600D5B83402800300D2D5C545B45602800324
:1000560000D2D57412B54502800300D2D5C7B47854
:1000660002800300D2D5B71202800300D2D5D7B4DE
:100076007202800300D2D5B71802800300D2D57869
:10008600407A1279607713D374102411D32AD325BA
:1000960060D327775965607002800300D2D5771345
:1000A600D374103411D33AD33560D33775605D629B
:1000B60060B70002800300D2D57713D3748C9411F5
:1000C600D39AD39560D39775603F6770028003001B
:1000D600D2D5741A14F6154016A94019741669700B
:1000E60002800300D2D574AE04F6054006A9400985
:1000F600E964B27002800300D2D5C3C2D674DED4DE
:100106002412D3D2D6D475F03AA4F9E5F02414F526
:04011600F0E9243BAD
:10011A008465F0B41A02800300D2D574FF54FE75C8
:10012A0040FB5540794177F7787F7542DF5857523F
:10013A00425342EFA742B74202800300D2D574006D
:10014A004402754004454079417708781075424069
:10015A004847424243428085424574DEB5450280A3
:10016A000300D2D574A4F9D33369F92369F9036971
:10017A00F9D313C464697002800300D2D5754201B1
:10018A00D54202800300D2D5D225C3A225500280CF
:10019A000300D2D5C2269226C3A2265002800300AB
:1001AA00D2D5D382255002800300D2D5D3B02540C0
:1001BA0002800300D2D5C372265002800300D2D532
:1001CA00C3A0264002800300D2D5B35002800300A8
:1001DA00D2D5D227102700202702800300D2D54388
:1001EA00D008755012A850E508B55002800300D215
:1001FA00D50550A950E509B55002410900D2D505E7
:10020A0050AA50E50AB55002800300D2D50550AB7A
:10021A0050E50BB55002800300D2D50550AC50E52D
:06022A000CB55002800338
:1002300000D2D50550AD50E50DB55002800300D277
:10024000D50550AE50E50EB55002800300D2D5055D
:1002500050AF50E50FB55002800300D2D553D0E720
:1002600043D0100550A850E510B55002800300D2CD
:10027000D50550A950E511B55002800300D2D5052F
:1002800050AA50E512B55002800300D2D50550ABFC
:1002900050E513B55002800300D2D50550AC50E5AF
:1002A00014B55002800300D2D50550AD50E515B508
:1002B0005002800300D2D50550AE50E516B550026D
:1002C000800300D2D50550AF50E517B5500280032A
:1002D00000D2D553D0E743D0180550A850E518B543
:1002E0005002800300D2D50550A950E519B550023F
:1002F000800300D2D50550AA50E51AB550028003FC
:1003000000D2D50550AB50E51BB55002800300D29A
:10031000D50550AC50E51CB55002800300D2D50580
:1003200050AD50E51DB55002800300D2D50550AE4A
:1003300050E51EB55002800300D2D50550AF50E500
:100340001FB55002800300D2D553D0E77F0030D5CF
:10035000027F01D006D005D004D003D002D001D056
:01036000009C
:0B036100D0D0D082D083D0F0D0E022BA
:0C190400E4784EF67845F608F6784DF6CB
:101910007952E7785366FFE4FE7853E6FDEEC39D07
:10192000500A74542EF8E662070E80EDAE0574542A
:101930002EF8A60774552EF87603AF06EF24047828
:061940004CF6E43318F63A
:01194600227E
:1019F1007952E7785366FFE4FE7853E6FDEED39D16
:101A0100500A74542EF8E662070E80EDEF7002FF63
:031A1100227F0130
:011A140022AF
:030003000216E8FA
:1016E800C0E0C083C082C2AFD20190F011E0F52102
:1016F800300F0690E010E004F0300E0690E011E0A4
:1017080004F0300D0B90E012E004F090F014E4F0D7
:10171800300C0690E013E004F0300B0690E014E083
:1017280004F0300A0690E015E004F030090690E075
:1017380016E004F030080690E017E004F090F0118D
:0D174800E4F0C201D2AFD082D083D0E032F5
:0300130002036C79
:0B036C00C0E0C083C082C0D075D00884
:10037700C2AFD20290F013E0F523E4F0301D1390E2
:10038700F031E0F510E4F0E5105478FF6002D20692
:10039700D200301E1390F041E0F510E4F0E5105460
:1003A70038FF6002D206D200201C0302057B90F0C2
:1003B70053E0FFE4F0EF20E00302051190F056E070
:1003C700FF784DE624FE605E146073147003020428
:1003D7006F1470030204F014700302057B24066097
:1003E70003020504EF641070297849F608F608F649
:1003F70008F67845F608F6784EF690F0527405F050
:100407000876FF7F101FBF01FC90F0567410F002B2
:10041700057BEF6402600302057B7845F608F678F2
:100427004D760202057B78450806E618860C7001B2
:1004370006142452F8A60F784D760302057B7845FB
:100447000806E618860C700106142452F8A60F0F4A
:10045700EF7847760008F6D39444784D4005760048
:1004670002057B760402057B78450806E6187001CD
:1004770006142452F8A60F7848E61618700116904D
:10048700F054E0540FF96028E4FEEEC39950219030
:10049700F056E0FD78450806E618860A700106144E
:1004A7002452F8A60D7848E616187001160E80DA61
:1004B7007847E6FC08E6FD4C7007784D760502059F
:1004C7007BEDF47002ECF4600302057B784508E6E7
:1004D7001618700116142452F8E664036003020527
:1004E7007B90F053F0784D8005784DBF030B76066F
:1004F700087601C206D200807B7600807778457641
:1005070000087600784D7600806AEF30E22B90F095
:1005170055E0FFE4F090F053F0EF5406600D784F8C
:10052700760008760190F0527406F0EF5418604494
:10053700784F76000876018035EF30E137784FE65F
:1005470060327849E6FC08E6C3784C96EC1896507A
:100557001678490806E618860C700106142452F826
:10056700E690F056F0800D7850760118760090F0FE
:10057700527406F0301F0BD200D21390F012E054E1
:100587007FF030190D90F0057401F090F004E4F05D
:10059700800D30180A90F005E4F090F00404F0C2E2
:0305A70002D2AFCE
:0905AA00D0D0D082D083D0E03221
:03000B00020006EA
:05000600C28CC28D3226
:1012E000E4FC3005257853E6FBD3944040047B4072
:1012F0008000AE037853A606E4FFEFC39E507774D8
:10130000542FF8E6FD04F60F80F030110B90F03505
:10131000E0F51290F034800990F044E0F51290F07E
:1013200043E0F511E51160067EFF7C018004AE12FA
:10133000E4FCE4FFEE14FBEFC39B501074012FF5A7
:1013400082E434F1F583E004F00F80E8EC6027AE2E
:10135000120EE4FFEFC39E501D74FF2FF582E4349C
:10136000F1F583E0FD04FC74FF2FF582E434F1F520
:0613700083ECF00F80DEAB
:011376002254
:101755003005537855E6FE18E67C002400FFEC3E84
:10176500AB07FA7856E6FC78527620E408F6D207FD
:10177500121905784F76FFE47849F608F67850F6A1
:1017850090F0527405F090F0567402F07850E6B47B
:1017950001FA90F054E020E5F98B828A83ECF09011
:0917A500F008E0E4F0221212E069
:0117AE002218
:1015FC00300531785276210876407902E4FE7CF091
:10160C007DB1E4FF0DEDAA0470010C14F5828A8300
:10161C00E0FBAA010974522AF8A6030FBF02E50EDB
:10162C00BE20DB2290F1007421F0A37440F079020B
:10163C00E4FE7CF07DB1E4FF0DEDAA0470010C1406
:10164C00F5828A83E0FBAA0109E42AF582E434F1ED
:10165C00F583EBF00FBF02E00000000EBE20D3E4D8
:05166C00F511751242AA
:011671002256
:1007C50090F0817403F0E0FE530680E4F090F08031
:1007D50004F0200503020887EE7007785276440876
:1007E500F6227856E6F918E6FDC394E0501218E6AD
:1007F50090F084F090F083EDF090F08AE4F08006BC
:1008050090F08A7401F07854E6543FFEE9FDEEFB62
:100815007A002DFDEA33FCD3ED9440EC648094809E
:10082500400474409EF9E42BFDEA34F3F5148D156C
:10083500E4FFEFC399501574572FF8E6FDE5152F22
:10084500F582E43514F583EDF00F80E690F008E0CD
:10085500FEE4F0EE30E0047852802190F0827401DD
:10086500F0300EFDC20E78527620E408F690F008BE
:10087500E0FEE4F0EE20E003020949187643E408BF
:10088500F622EE700890F100744402094590F103D8
:10089500E0F990F102E0C394E0501790F101E09087
:1008A500F084F090F102E090F083F090F08AE4F0AB
:1008B500800690F08A7401F090F101E0543FFEE962
:1008C500FDEEFB7A002DFDEA33FCD3ED9440EC649C
:1008D500809480400474409EF9E42BFDEA34F3F5DE
:1008E500148D15E4FFEFC399501B74042FF582E4B2
:1008F50034F1F583E0FDE5152FF582E43514F58334
:10090500EDF00F80E0E4F51190F008E0FEE4F0EE84
:1009150030E00790F1007443802690F0827401F076
:10092500F587300EFDC20E90F1007420F0751201AE
:1009350090F008E0FEE4F0EE30E00990F100744339
:04094500F075120136
:01094900228B
:100F85007D187CF430054CE4FF74552FF8E6FBED35
:100F95002FF582E43CF583EBF00FBF08EC7854E6BF
:100FA500440290F428F090F428E0FE530602EE7017
:100FB500F57CF47D2078527621087608E4FFED2F44
:100FC500F582E43CF583E0FB74542FF8A6030FBFCC
:100FD50008EC22E4FF74022FF582E434F1F583E096
:100FE500FBED2FF582E43CF583EBF00FBF08E690AF
:100FF500F101E0440290F428F090F428E0FE530655
:1010050002EE70F57CF47D2090F1007421F0A3745C
:1010150008F0E4FFED2FF582E43CF583E0FB740274
:101025002FF582E434F1F583EBF00FBF08E6E4F524
:041035001175120A15
:011039002294
:10103A007D307CF530054CE4FF74552FF8E6FBED66
:10104A002FF582E43CF583EBF00FBF10EC7854E601
:10105A00440290F550F090F550E0FE530602EE700F
:10106A00F57CF57D4078527621087610E4FFED2F65
:10107A00F582E43CF583E0FB74542FF8A6030FBF16
:10108A0010EC22E4FF74022FF582E434F1F583E0D8
:10109A00FBED2FF582E43CF583EBF00FBF10E690F1
:1010AA00F101E0440290F550F090F550E0FE53064D
:1010BA0002EE70F57CF57D4090F1007421F0A37486
:1010CA0010F0E4FFED2FF582E43CF583E0FB7402B7
:1010DA002FF582E434F1F583EBF00FBF10E6E4F567
:0410EA001175121258
:0110EE0022DF
:100DEC003005567854E6FD440290F683F090F68375
:100DFC00E0FE530602EE70F578527621ED20E41CED
:100E0C00087614E4FF74402FF582E434F6F583E0A1
:100E1C00FC74542FF8A6040FBF14EA2278537620E2
:100E2C00E4FF74602FF582E434F6F583E0FC74542F
:100E3C002FF8A6040FBF20EA2290F101E0FD440236
:100E4C0090F683F090F683E0FE530602EE70F59078
:100E5C00F1007421F0ED20E429A37414F0E4FF7484
:100E6C00402FF582E434F6F583E0FC74022FF58212
:100E7C00E434F1F583ECF00FBF14E4E4F5117512D2
:100E8C00162290F1017420F0E4FF74602FF582E4D7
:100E9C0034F6F583E0FC74022FF582E434F1F5832B
:0C0EAC00ECF00FBF20E4E4F511751222F9
:010EB8002217
:10149700E4FF90F020E04401F090F0A17401F09097
:1014A700F0A1E0FE6005C3940240F4EE60027F0104
:1014B700300525EF60047D4180027D207852A60526
:1014C700EF60047D0280027D007853A60508A6061A
:1014D70090F0A2E008F68027EF60047D4180027D4E
:1014E7002090F100EDF0A3EEF090F0A2E090F10271
:1014F700F0E4F511EF60047F0380027F018F129003
:06150700F020E054FEF0AC
:01150D0022BB
:100CFF0090F700E4F030055E7854E690F70AF008BC
:100D0F00E6FBD3940840047B088000AC037E04E428
:100D1F00FFEFC39C503874522EF8E690F706F0742C
:100D2F00532EF8E6A3F074542EF8E6A3F074552E64
:100D3F00F8E6A3F090F7017401F090F701E0FD7071
:100D4F00F990F70AE004F074042EFE0F80C3785276
:100D5F007620E408F62290F101E090F70AF090F186
:100D6F0002E0D3940840047B08800590F102E0FB79
:100D7F00AC037E03E4FFEFC39C5055E42EF582E4F1
:100D8F0034F1F583E090F706F074012EF582E43428
:100D9F00F1F583E090F707F074022EF582E434F159
:100DAF00F583E090F708F074032EF582E434F1F543
:100DBF0083E090F709F090F7017401F090F701E0EC
:100DCF00FD70F990F70AE004F074042EFE0F80A670
:0C0DDF0090F1007420F0E4F51175120191
:010DEB0022E5
:100BEF0090F700E4F030056C7854E690F70AF008BF
:100BFF00E6FBD3940840047B088000AD037852765F
:100C0F0021ED25E025E008F67E02E4FFEFC39D40CD
:100C1F0003020CFE90F7017402F090F701E0FC70F4
:100C2F00F990F702E0FB74522EF8A603A3E0FB74D1
:100C3F00532EF8A603A3E0FB74542EF8A603A3E0EB
:100C4F00FB74552EF8A60390F70AE004F074042EF7
:100C5F00FE0F80B890F101E090F70AF090F102E0FA
:100C6F00D3940840047B08800590F102E0FBAD03AC
:100C7F0090F1007421F0ED25E025E0A3F07E02E471
:100C8F00FFEFC39D505D90F7017402F090F701E004
:100C9F00FC70F990F702E0FBE42EF582E434F1F5F5
:100CAF0083EBF090F703E0FB74012EF582E434F14F
:100CBF00F583EBF090F704E0FB74022EF582E43439
:100CCF00F1F583EBF090F705E0FB74032EF582E46A
:100CDF0034F1F583EBF090F70AE004F074042EFE84
:0F0CEF000F809EE4F511ED25E025E02402F512BB
:010CFE0022D3
:10150E003005307854E6440490F700F008E690F782
:10151E0006F008E6A3F008E6A3F008E6A3F090F7BD
:10152E00017401F090F701E0FF70F978527620E433
:10153E0008F62290F101E0440490F700F090F102D9
:10154E00E090F706F090F103E090F707F090F104C9
:10155E00E090F708F090F105E090F709F090F701B0
:10156E007401F090F701E0FF70F990F1007420F033
:06157E00E4F511751201F5
:011584002244
:1015850030052E7854E6440490F700F0A37402F079
:1015950090F701E0FF70F97852762108760490F70C
:1015A50002E008F6A3E008F6A3E008F6A3E008F6D3
:1015B5002290F101E0440490F700F0A37402F0904A
:1015C500F701E0FF70F990F1007421F0A37404F0C5
:1015D50090F702E090F102F090F703E090F103F04C
:1015E50090F704E090F104F090F705E090F105F034
:0615F500E4F51175120679
:0115FB0022CD
:10123F0090F7007407F03005437854E690F706F006
:10124F0008E6A3F008E6A3F008E6A3F090F7017410
:10125F0001F090F701E0FF70F990F7007404F0903F
:10126F00F7017402F090F701E0FF70F990F702E0D8
:10127F00FF20E0EB78527620E408F62290F101E0AF
:10128F0090F706F090F102E090F707F090F103E08D
:10129F0090F708F090F104E090F709F090F70174DF
:1012AF0001F090F701E0FF70F990F7007404F090EF
:1012BF00F7017402F090F701E0FF70F990F702E088
:1012CF00FF20E0EB90F1007420F0E4F511751201AE
:0112DF0022EC
:10094A00200503020AAF90F054E020E4F9785276C9
:10095A004108760190F012E054EFF090F0527404DE
:10096A00F090F054E064806006087601020AA77BE2
:10097A0050E4FA90F054E0FC53040FEC6A600778F4
:10098A00547602020AA7AF030B90F056EFF00ABAA8
:10099A0008E190F054E06448600778547603020A4C
:1009AA00A790F056EBF090F053E064046007785497
:1009BA007604020AA790F055E0FCE4F090F053F0B8
:1009CA00EC6401600778547605020AA790F0527425
:1009DA0004F07B50E4FAAF030B90F056EFF00ABA3A
:1009EA0008F47B507A0890F056E0AF030B6F60076B
:1009FA0078547606020AA790F054E0FC53040FEAF2
:100A0A00146C600778547607020AA7DAD990F05670
:100A1A00E0FB90F053E0FC90F055E4F090F053F0D6
:100A2A00EC600778547608020AA7AF030B90F056D9
:100A3A00EFF0EBF078527620E408F690F012E044FA
:100A4A0010F0121904784F76FFE47849F608F67820
:100A5A0050F690F0527405F090F0567402F0785007
:100A6A00E6B401FA90F054E020E5F990F012E0546F
:100A7A00EFF090F054E0B448F97BA07A0890F05671
:100A8A00E0FCAF030B6F600C7852764108760108E0
:100A9A0076098009DAE778527620E408F690F012AF
:080AAA00E04410F0221212E0FA
:010AB2002221
:10197600120016300511EF60047E4080027E20784A
:1019860052A606E408F622EF60047F4080027F201C
:0B19960090F100EFF0E4F51175120174
:0119A1002223
:1013770030050280033011030212E0E4FF90F10010
:101387007441F0E4F51175120290F012E054BFF0C9
:1013970090F045E4F0A3F090F040E04403F0E4FE61
:1013A7000090F041E0F930E306E4F07F0180040E9D
:1013B700BE64EDEF700790F10104F0803BE4FF900D
:1013C700F04504F0A37419F090F040E04403F0E412
:1013D700FE0090F041E0F930E306E4F07F0180047D
:1013E7000EBE64EDEF700890F1017402F080099071
:0F13F700F1007420F075120190F012E04440F004
:0114060022C3
:1005B30090F081E4F02005030206AA7854E6F514CE
:1005C300C4333354C090F084F0E5141313543F90B4
:1005D300F083F090F08AE4F090F008E0F9E4F0E9B9
:1005E30030E005785202069B7AF37B007C037DE8BA
:1005F30090F0807401F0E4FFEB2FF582E43AF58389
:10060300E4F00FBF40F290F0827401F0300EFDC2AF
:100613000EED1D70011CED4C70D6E51475F040A471
:10062300AAF0FBE4FFEB2FF582E43AF583E0600BDD
:1006330078527641087601087602220FBF40E67AA7
:10064300F37B0090F0807401F0E4FFEB2FF582E47C
:100653003AF58374FFF00FBF40F190F0827401F01C
:10066300300EFDC20EE51475F040A4AAF0FBE4FFC2
:10067300EB2FF582E43AF583E0F4600B7852764190
:10068300087601087603220FBF40E590F008E0F9F1
:10069300E4F0E9785230E009764108760108760102
:1006A300227620E408F62290F0817403F0E0F953F7
:1006B3000180E4F0F511E9700B90F1007441F0A3AF
:1006C300E40207B990F101E0F514C4333354C09048
:1006D300F084F0E5141313543F90F083F090F08A04
:1006E300E4F090F008E0F9E4F0E930E00C90F10078
:1006F3007441F0A374010207B97AF37B007C037D94
:10070300E890F0807401F0E4FFEB2FF582E43AF512
:1007130083E4F00FBF40F290F0827401F0F587306C
:100723000EFDC20EED1D70011CED4C70D4E5147569
:10073300F040A4AAF0FBE4FFEB2FF582E43AF58343
:10074300E0600D90F1007441F0A37402F0F5122201
:100753000FBF40E47AF37B0090F0807401F0E4FF74
:10076300EB2FF582E43AF58374FFF00FBF40F1906D
:10077300F0827401F0F587300EFDC20EE51475F0BA
:1007830040A4AAF0FBE4FFEB2FF582E43AF583E003
:10079300F4600B90F1007441F0A3740380180FBF51
:1007A30040E590F008E0F9E4F0E990F10030E00B67
:1007B3007441F0A37401F0751202227420F07512D3
:0107C3000134
:0107C4002212
:061A3800D20775870122B0
:1016720030052F785276217854E6FD08E6FCD394A3
:101682001040047C108000AE047853A606E4FFEFFD
:10169200C39E5051ED2FF8E6FC74542FF8A6040FA8
:1016A20080ED90F1007421F0A3E0FDA3E0D394104B
:1016B20040047C10800590F102E0FCAE0490F10140
:1016C200EEF0E4FFEFC39E5014ED2FF8E6FC740237
:1016D2002FF582E434F1F583ECF00F80E7E4F511A5
:0516E200EE2402F512E8
:0116E70022E0
:101809003005247854E6FD08E6FEE4FFEFC39E5058
:101819000E74562FF8E6FCED2FF8A6040F80ED782C
:10182900527620E408F62290F101E0FDA3E0FEE4FF
:10183900FFEFC39E501474032FF582E434F1F5834E
:10184900E0FCED2FF8A6040F80E790F1007420F07A
:06185900E4F51175120117
:01185F002266
:100EB900300557785276217855E6FE18E67A0024EF
:100EC90000FFEA3EF5148F157856E6FFD3944040AB
:100ED900047F408000AC077853A604E4FDEDC39C71
:100EE9005015E5152DF582E43514F583E0FF7454AA
:100EF9002DF8A6070D80E690F008E0F9E4F0E93056
:100F0900E17978527643E408F62290F1007421F0F1
:100F190090F102E0FE90F101E07A002400FFEA3E40
:100F2900F5148F1590F103E0D3944840047F48806D
:100F39000590F103E0FFAC0790F101ECF0E4FDED61
:100F4900C39C501BE5152DF582E43514F583E0FFAC
:100F590074022DF582E434F1F583EFF00D80E0E4BD
:100F6900F511EC2402F51290F008E0F9E4F0E9300B
:0B0F7900E10990F1007443F0751201D3
:010F8400224A
:1010EF0030054A7855E6FE18E67A002400FFEA3EFE
:1010FF00F5148F157856E6F9E4FDEDC39950157484
:10110F00572DF8E6FFE5152DF582E43514F583EF3D
:10111F00F00D80E678527620E408F690F008E0FCB7
:10112F00E4F0EC30E062187643E408F62290F10226
:10113F00E0FE90F101E07A002400FFEA3EF5148F03
:10114F001590F103E0F9E4FDEDC399501B74042DE4
:10115F00F582E434F1F583E0FFE5152DF582E435F2
:10116F0014F583EFF00D80E090F1007420F0E4F5BA
:10117F001175120190F008E0FCE4F0EC30E00990FA
:08118F00F1007443F075120138
:011197002235
:10119800300545785276217855E6FE18E67A00241F
:1011A80000FFEA3EF5148F157856E6FFD3944040C9
:1011B800047F408000AC077853A604E4FDEDC39C8F
:1011C8005074E5152DF582E43514F583E493FF7426
:1011D800542DF8A6070D80E590F1007421F090F1E8
:1011E80002E0FE90F101E07A002400FFEA3EF514E7
:1011F8008F1590F103E0D3944040047F4080059020
:10120800F103E0FFAC0790F101ECF0E4FDEDC39CC5
:10121800501CE5152DF582E43514F583E493FF742D
:10122800022DF582E434F1F583EFF00D80DFE4F56B
:0612380011EC2402F51286
:01123E00228D
:10194700300513300308D215785276208004785278
:101957007640E408F622300409D21590F10074208D
:0F196700800590F1007440F0E4F5117512012233
:1014070030052D300703C20722121904784F76FFE3
:10141700E47849F608F67850F690F0527405F03003
:1014270013047F3B80027F0290F056EFF0C2132235
:10143700300703C2072230113E90F037E512F090D3
:10144700F036E511F090F030E0FC53040C20120365
:10145700301506EC4402FF8004EC4403FFAC073070
:101467001206EC4410FF8002AF04AC0790F030EC9A
:10147700F0C2127587012290F046E512F090F04510
:0F148700E511F090F040E0FC5304FCEC4403F05E
:011496002233
:1019A2007F487852E4F608DFFCE47845F608F6084A
:1019B200F608F608F608F608F608F608F6784FF67E
:0819C20018F67850F6087601D2
:0119CA0022FA
:101A1500E490E010F0A3F0A3F0A3F0A3F0A3F0A3EB
:041A2500F0A3F02218
:1017AF00758921D2A9538EF8C288C28AD2A8D2AA2B
:1017BF00E4F520C212C213C215F511F51290F01103
:1017CF00F090F013E054F0F090F010747FF090F080
:1017DF001274FFF090F020E4F090F0507446F09007
:1017EF00F052E4F090F040740DF01219A27851E627
:0A17FF0090F057F0121A15D2AF2235
:1018B30090F007E0540314601F1460201460252483
:1018C300037029C203D204D20590F007E0540C64DC
:1018D30008701F758701801AD2038012D203D204C5
:1018E300D205800ED203D204C2058006C203C2040D
:1018F300C20590F007E054206003C38001D3921126
:0119030022C1
:100AB30030053C30131990F007E030E4F990F0135F
:100AC300E4F090F012E04480F07852766E800A12DF
:100AD30019F1BF010978527642E408F6802778526B
:100AE300E6FFB4C2067E617F6180008F13801D9094
:100AF300F100E0300614F5137441F0A3E510F0E4BF
:100B0300F5117512027513608002F513E5131219BE
:100B1300CB0B63500B69510B6E520B73530B785411
:100B23000B7D550B82580B87590B8C5A0B915B0B22
:100B3300965C0B9B5D0BBE5E0BE8600BA0810BA567
:100B4300820BAA830BAF840BB4850BB98A0BC38BBF
:100B53000BC88C0BCD8D0BD28F0BD7C200000BE5CE
:100B6300121672020BE8120EB9807A1218098075F8
:100B73001210EF8070121198806B1207C5806612F5
:100B8300175580611215FC805C120F858057121077
:100B93003A8052120DEC804D1214978048120CFFCC
:100BA3008043120BEF803E12150E8039121585809B
:100BB3003412123F802F12094A802A1219478025C6
:100BC3001219768020121377801B1205B380161238
:100BD3001A388011751201E4F51190F005F0D21264
:0C0BE30080031212E0C200C206021407D8
:10186000C2AF1217AF1218B3300003120AB330150B
:10187000F43005197850E6B401FA90F054E020E510
:10188000F990F030740DF090F040F0800DE51030DC
:10189000E1FB90F0527406F0C2003005047F8280B4
:1018A000027F8190F006EFF0B205C215D28C7587E9
:0318B0000180B202
:03000000021A29B8
:0F1A290075A81578FFE4F6D8FD7581990218604D
:1019CB00D083D082F8E4937012740193700DA3A3AB
:1019DB0093F8740193F5828883E4737402936860BF
:0619EB00EFA3A3A380DFBF
:00000001FF
