:020000040050AA
:1000000000803FF0005001A30050016300500165E3
:1000100000000000000000000000000000000000E0
:100020000000000000000000000000000050016718
:100030000000000000000000005001690050016B4A
:100040000050034B00500357005003630050036FF0
:100050000050037B00500383005003A50050017D36
:100060000050017F005003C3005003D1005003DF54
:10007000005003ED005001890050018B0050041323
:100080000050018F005001910050019300500195E4
:1000900000500197005001990050042D0050019D1F
:1000A0000050019F005001A10050016D0050016DF2
:1000B0000050016D0050016D0050016D0050016D48
:1000C00000F002F800F03EF80CA030C80838241800
:1000D0002D18A246671EAB4654465D46AC4201D180
:1000E00000F030F87E460F3E0FCCB6460126334274
:1000F00000D0FB1AA246AB463343184700003B5CD6
:1001000000003B7C103A02D378C878C1FAD8520775
:1001100001D330C830C101D504680C6070470000BD
:100120000023002400250026103A01D378C1FBD813
:10013000520700D330C100D50B6070471FB51FBDFB
:1001400010B510BD03F027FC1146FFF7F7FF00F0D4
:1001500012FA03F03FFC03B4FFF7F2FF03BC00F018
:1001600027F8FEE7FEE7FEE7FEE7FEE7FEE7FEE72D
:10017000FEE7FEE7FEE7FEE7FEE7FEE7FEE7FEE757
:10018000FEE7FEE7FEE7FEE7FEE7FEE7FEE7FEE747
:10019000FEE7FEE7FEE7FEE7FEE7FEE7FEE7FEE737
:1001A000FEE710B500F0E7F910BD0A4603467047B8
:1001B0007047000030B5FE4BDD6807225202154043
:1001C000FB4A8024803285420AD1D8688002800FA1
:1001D00006D1D868C00514D5D8680003000F02D036
:1001E000D06820400BE098680124640220439860A6
:1001F00001209861FF2011301860D0684018D0604D
:1002000030BD1020186098680321090208439860E7
:1002100030BDF0B5E64D8F270646E54C803534E01D
:10022000E44880680028FDD0A068072109028843BF
:10023000A060E86840062CD0E868400719D0E06864
:100240000005400FE86839D0042852D0E868E96812
:100250008007800F082232401143E9600121864265
:1002600001D10421091AFF22013282401046FFF712
:10027000A1FFE868102808D0E968802081433ED0BB
:10028000206803210843206030BFE8681028C7D1E8
:10029000F0BDE0688004ECD5E868002802D0E06892
:1002A000C004E6D5A068FF2105310843A060022004
:1002B000A0610120E86010202060DAE70007800FCD
:1002C00017D0E0680003000F13D1AF2000040178BD
:1002D000502902D14178002903D00078E02802D0CB
:1002E00007E0802009E06069042802D1E069002865
:1002F00002D0E868B84300E01020E860B9E73B208E
:10030000A0600120BFE710B5A9484169C069002875
:1003100000D0491C0020AF231B04A74A03E0C418E7
:1003200024781454401C8842F9D310BD30B5002104
:10033000AF23A14A1B0403E0545CCD182C70491C68
:100340008142F9D39A49886130BD9C488168490847
:100350004900816070479948816802229143816019
:1003600070479648816804229143816070479348A2
:10037000816808229143816070478E49012008619D
:10038000704710B58B4C01208949A0600869002294
:10039000E0600A61FF210231084202D000F0CCFC8B
:1003A000607010BD8648402202600021E9200004F0
:1003B0000161816141618348026083490120486392
:1003C00070477E48816801225202914381607047E4
:1003D0007A48816801229202914381607047774890
:1003E00081680122D202914381607047E9200004B4
:1003F0008168826849084900D207D20F01239A1AFE
:10040000114381607149002048616E4918030860FA
:10041000704701206A49C00308606D480168C90738
:10042000FCD00168490849000160704769480168CB
:1004300002680907090F520880231A4011435D4AD8
:1004400051610168090C090401605D49D803086025
:1004500070476148002101708170564AC170D078A0
:1004600002231843D0705A4A803A11601060106815
:10047000800705D5FF2159481131016011218160A4
:100480007047F8B5504B1027DF620025494C012614
:10049000A56026701868022108431860444880301F
:1004A0000169320211430161C560454A2021803A49
:1004B00011603F490E606268012A10D0484A8A6084
:1004C00087606020D8610220586230BF60680128D0
:1004D00007D00868FF2211321043086011E03F2264
:1004E000EDE72078FFF795FE6068012809D11D200F
:1004F000C004C16A0120800601433348D43801F0AA
:1005000053FB384805708570C57037480577C6734A
:1005100005748574C57405754575857505834583B2
:1005200045740673E0783043E070F8BD002022493E
:10053000024614318300401CC0B2CA501828F9D3B7
:10054000704710B52949002048601A490A224870AE
:100550008A701D24C870E404A06A8007FCD0A06AD9
:10056000800701D5FFF775FFA06AC00701D0FFF72C
:1005700088FF10BD704770B505201D4900058860D3
:10058000FF200C4D1D24A861E404E8612068216867
:100590004007400F38221140490008432169236970
:1005A0008A0B02210A401B03DB0F1A43120221E0CF
:1005B00000E90200008000000080002400E0050047
:1005C000E000E180E000E28000E8010000E80700D0
:1005D00000E0020000E806000080009800E9010049
:1005E0000048003F008008B0008010C800E8040008
:1005F000E000ED00104322680723520C1B031A4051
:1006000010432268032392081B041A401043E26936
:10061000920C0A4061690907C90F0A431105084392
:1006200021680722D2051140490008432862206949
:100630004006C00F6860FFF784FF00F05EFDFFF723
:1006400075FFA06AC00707D0002468780128FCD194
:100650006C7000F0A9FBF8E7A06A80070AD5064C89
:100660006069C002FCD400F06FFC0128F8D100F0F2
:10067000F3FCF5E7002070BD00E90100704770470A
:10068000F0B5F9484068552839D1F848C1697B224E
:100690001143C16101214162E92109048A69F44BD6
:1006A0001A438A615A000A6100224A61F14C4023D0
:1006B0002360F14C2360F14D04232B610368022673
:1006C00033430360EE4F3B693402A3433B6103684D
:1006D000B3430360FF2303620C6843051C430C60B3
:1006E00030BF0C689C430C602A61DF494A601D21C1
:1006F000C9040A69C3051A430A6101214163F0BDB7
:10070000E0494A695202FCD488617047F0B5064658
:10071000DC4F15460B460020401C80B2FF28FBD959
:1007200078690003000F0828FAD2FF2101313960EF
:10073000B868FF22DA32BA600843B860386801212D
:1007400008433860012D05D1002B03D0CE484078F6
:10075000FFF7D6FF002406E0305D5B1E641C9BB2F1
:10076000A4B2FFF7CDFF002BF6D1012D07D1C64B68
:100770009889000AFFF7C4FF587BFFF7C1FF78692B
:100780000003000FFBD138691021884338613869B4
:10079000C006FCD53869884338617869C001FCD44B
:1007A000FF2011303860FFF76BFFF0BDFF202130D4
:1007B0007047F8B5B54DAF27287FE97C3F04401856
:1007C000697D00264018C4B22246B149384600F07F
:1007D000CBFC687C002805D06989688B091B401A0E
:1007E00068836E74A868AA49021B688BC91C4118EB
:1007F000E01900F0B9FCA868698B021B89186983AD
:100800009F4980398861CE60A2480660086803224B
:100810001043086030BFA87C002801D19E48468262
:10082000F8BD70B5994B0120DA7C8402002A05D00E
:100830009948197D401C001901760220597D002934
:1008400004D0954E9D7D301800190576187C00283F
:1008500001D0122000E00220DB7B002B00D001231E
:100860001843002A00D008221043002900D0042198
:10087000084387491839087670BD30B58648C18964
:10088000002921D0814CFF256088E27C637D801A9D
:10089000C01A401E80B22135A84202D3A81AC01A3D
:1008A000401E628B80B28A1A78494B7DC97CC91878
:1008B000824201DD012201E090B20022401C22743C
:1008C0000818A060D0B230BD002030BD70B504461D
:1008D00080890025002825D16279E089002A0BD083
:1008E000002809D0C3B29A4206D01B2080021818F3
:1008F000A081E581257115E02279012A02D0092025
:1009000000030EE0A279002A07D1FF2802D9FF22B6
:10091000A27100E0A0712082E581A079612212021B
:100920008018A081002909D0E1890122A068FFF781
:10093000EDFEE189A0684018A06070BDA089574A0B
:10094000E189000AA2188854544AE189521C607B4C
:10095000A2188854E089801CE0814C4C6573258383
:10096000FFF78BFFFFF75DFF6583FFF722FF70BD89
:1009700010B5464BD87C002801D0022100E00121AF
:10098000434A9960197D183A5176D97B002900D0E5
:100990000121A231002800D008200143117610BDAA
:1009A000374800218038C1603A4A1160016801224D
:1009B0001143016030BF70473148022180388161A6
:1009C0000022C2600261826810239A4382608268BA
:1009D000274BF0331A438260016070472848803803
:1009E000006810210840C0087047F8B5AF22120413
:1009F0001378264C5807C00F60751807C00FE074B5
:100A0000FFF7ECFFE17C657D401C4D1940196568DE
:100A1000A84201D90220F8BD012903D0207D002879
:100A200071D103E05078217D88426CD1FFF7D6FF69
:100A3000E17C627D401C89184518F6201F4607405E
:100A40000126B22F7DD009DC134A10461B30022F3D
:100A500051D0122F24D0A22F55D174E0C22F71D0C3
:100A6000F22F50D19EE0000000E9080000E80100EC
:100A700000010010E000E280E000E100E000ED0095
:100A800000E9028000E9010000800098008010C8A1
:100A900000800CC80080000C008008B00000041B1F
:100AA000FC4CDF07E47BFF0FBC422AD0DB06F94C8D
:100AB000DB0FA3740223A360002323746383134614
:100AC000578A6268521BBF185F820027DF81F24B92
:100AD000C918238B181800F047FBE188208B491BAD
:100AE00040182083E07B7040E073FFF741FFFFF781
:100AF00060FE8020F8BDE74CDF07E47BFF0FBC42BF
:100B000002D14020F8BD4BE0DB06E24CDB0FA374C2
:100B10000027A760E14A2774538A6268521BDF4DA1
:100B20009B186B822B46DF81DB4B6783C918238BB5
:100B3000181800F019FB2783E07B7040E073002059
:100B4000E0E725E030E0E07BD907C90F88420DD10E
:100B5000207C002805D06674FFF763FEFFF729FEAE
:100B60001EE06674FFF71CFF4120CBE77040E07386
:100B7000207C002807D0FFF780FE2074FFF751FE8D
:100B8000FFF717FEBDE7FFF7F3FEFFF709FF07E0EA
:100B9000E07BD907C90F8842DDD0A07BFFF7E8FED4
:100BA0000120AFE7F220ADE7FFF706FFC220A9E77B
:100BB00070B5AF210904BA484978B64C0A07120F3C
:100BC0002275002209092260082902D2B54B5B5C1C
:100BD00001E0FF2301332360B023002920D0052149
:100BE00001707825457077258570C37002230371E5
:100BF00090234354112341184B70AB4B1B788B70DF
:100C00000178C91CC9B201702068814207D8A34885
:100C1000A16042828282FFF7CCFD0120207770BD67
:100C200003210170282545708370E1E7F8B59C49E0
:100C3000AF20C91E00044278964C13071B0F0025F5
:100C4000237512092560082A02D2964B9B5C01E0AD
:100C5000FF2301332360B023002A2FD005220A701E
:100C600078264E7077268E70CB7002260E719026F5
:100C70008E5411238A1853708B4B1B7893700A780B
:100C8000D21CD2B20A7023689A4216D8834BA26053
:100C90005D829D8200F068FA8448A1688161816864
:100CA000072212029143816081490D60016803228D
:100CB0001143016030BF0120207723E703220A702F
:100CC00028264E708B70D2E770B50021714CAF2290
:100CD000E174120472481378037061830125A560E2
:100CE000FFF77CFE6168C01C884202D15078112851
:100CF00008D0FFF773FE6168801C884216D15078D7
:100D0000012813D1052912D000200C2101400C2903
:100D10000FD866494A68920992014A604A680007FA
:100D2000000F02434A60FFF744FD257770BD9078BD
:100D3000EBE7FFF735FE70BD00B55B480078C007F4
:100D400015D0544A107B002811D05949594B0868D6
:100D500018420BD0DB4303400B60FF2102310842F5
:100D600004D04003400F03D0FFF71AFE002000BD5F
:100D70004E4840695060AF2000040078FA2801D046
:100D8000012000BDFEE770B5AF2000040078434CA1
:100D9000E02802D00020207070BD3E480125057378
:100DA000FFF706FF257070BD70B53F480078C0079B
:100DB00011D03A4C207800280ED001280FD00228FC
:100DC00009D1FFF712FE002829D0FFF70EFEC22836
:100DD00001D0FFF7E5FD70BDFFF7D5FF70BDAF2077
:100DE000000401782B4DD022287D02261043814239
:100DF00007D100202877FFF767FF0120687326706E
:100E000070BD2670FFF7F1FD002808D0FFF7EDFD5B
:100E1000C228F5D0FFF7E9FDF028F1D0D9E700218D
:100E20001E4800F07CFB00211C48FFF74FFD70BD01
:100E300010B5214A13695B079B0F032BFAD10029D8
:100E40000BD0184A00210832535C4418491CC9B21F
:100E5000A3710A29F8D30A210AE0124A0021083AAC
:100E6000535C4418491CC9B2A3710829F8D308215E
:100E70003B220270D0220A434270952282700222E5
:100E8000C27040220271642242710022891DFFF764
:100E90003DFC10BD008010C800AF0001008008B00C
:100EA00000800CCB00503B840080000300E902006E
:100EB0000080000C0007011100E8010010B5FF21BF
:100EC000A1481131016011218160C168FF22013206
:100ED0001143C1609D4C9E482178FFF7A9FF012076
:100EE00020700220A0700020E070E081D1E79649D8
:100EF0000B69102293430B6188610869C006FCD519
:100F000008699043086170478F494A69D20203D447
:100F100089690170012070470020704710B50021D9
:100F2000491CFF29FCD9884CA168FF22DA32A26053
:100F3000FF2201321143A160511C2160FFF7D7FF4E
:100F4000FF2011302060A4E738B582480078800780
:100F500008D57E4B1D461B356C1D6846FFF7D4FF38
:100F6000012801D0002038BDD8789978884203D371
:100F70000020D8709870F5E719781029694609782B
:100F800001D2415500E00155D878401CD8709978BD
:100F9000C0B28842E1D1012038BD30B511246B4A7E
:100FA00000210846937804E01518ED7E6940401C46
:100FB000C0B28342F8D8002915D1107FC00614D5DD
:100FC000547F182C11D008DC112C0ED0122C0CD010
:100FD000132C0AD0142C06D107E0382C05D0952C00
:100FE00003D0962C01D0002030BD002001239B02AD
:100FF00006E08918091A8D7EC918401C8D76C0B28A
:1010000091788142F5D800225148FFF77FFBE11D1E
:101010004D48F93181604168090A09024160112C8B
:1010200003D94168012211434160012030BD474A84
:10103000117F080701D0FF2070470120CB0600D5A3
:1010400002208B0600D5401C490600D5401C917833
:101050000818907001207047F8B53C4C04272078A0
:1010600000250526022815D004DC002819D0012807
:1010700014D104E004281AD010280FD12BE0E07E10
:10108000FF2801D0A6700FE0FFF7D1FF012805D19E
:1010900002201EE0FFF781FF012803D0A570E57054
:1010A00025702FE5A670E570277025712AE5668208
:1010B000A5820121254800F032FA002806D001213E
:1010C0002248FFF703FCA670E5701BE5A582E570DA
:1010D0001020207016E5A078A082401D60820121BA
:1010E0001A4800F01CFA002803D001211748FFF726
:1010F000EDFBA670E570277004E510B51648016891
:10110000890703D50168154A11430160114C207805
:10111000800701D5FFF7D2FE2078C0070CD0104819
:10112000104A00680128106807D0C107FDD04008A8
:1011300040001060FFF727FEABE6C105FDD5FF219B
:1011400001318843F5E7000000E9010000800098C4
:10115000008004B30080000300E0018055AA000075
:10116000008000040080000C10B5002302E0CC5C7D
:10117000C4545B1C9342FAD3002010BD002301E04D
:10118000C2545B1C8B42FBD300207047034610B552
:101190000020024602E09C5C6040521C8A42FAD366
:1011A00010BD00207047000000024018012281B2EB
:1011B000D2021046401E80B200BF00BF0028F9D105
:1011C000491E0904090CF4D17047704730B51D2140
:1011D000C9040868C208B048D200006843075B0F22
:1011E0001A430A600B683824A3434208144023437F
:1011F0000B600B691124E403A34301246402FF255F
:1012000004400135A4010540ED022C4323430B614A
:101210000B68040BDB00DB082403640423430B602E
:101220000B680324A404A343A4100440A400234394
:101230000B60CB690125ED048408AB432C402343AC
:10124000CB614B690824400CA343204003434B610E
:1012500008680723DB0598431A401043086030BD37
:10126000F8B5E9238D4A1B045A608D4A0624546060
:101270001D24E4042569160635432561894E0125A0
:1012800075631D680F273F04BD431D601D6801275E
:101290003F043D431D607D001D6100255D61824D61
:1012A00040232B60814D2B6002230B404D07CF075D
:1012B00000936D0FFF0F030002F098FB0E860812DB
:1012C0001D2F4050678686797C7F8286090604D46C
:1012D0002168C908C900294321600121C90271E0C0
:1012E000090605D42368E9003825AB430B43236086
:1012F000FF21013166E001237363090609D40099D7
:101300008903FB04194323691125ED03AB430B4308
:101310002361674B552159600EE00B060AD4236800
:101320004907DB00DB080B43236023690121C90760
:101330000B43236103217163002143E001237363A5
:101340000B0607D489072368090B0325AD04AB43BB
:101350000B432360564B5521596025E0090611D4F3
:101360000099E36989040125ED04AB430B43E36174
:101370006369F9000825AB430B43636121692B07BF
:101380001943216103217163E4E709060AD4236844
:10139000E9050725ED05AB430B43236021692B02CB
:1013A0001943216103217163032109020AE001212C
:1013B000490207E00321490204E00321890201E018
:1013C0000D2109021160F8BDFF20F8BD70B504467B
:1013D00048788B78C9780026FF255522482839D0CF
:1013E00008DC202812D0212810D022280ED047282F
:1013F0000AD10DE0492835D0FC2807D02D4D2E4EBE
:10140000FD2839D0FE2841D0217043E025702FE01F
:101410006F214904294D00200E5C2E54401C80B2DF
:10142000FF28F9D925485A26A5252030012B02D0BE
:10143000022B03D007E00670457002E00270AA227A
:1014400042708570C670FF22052301321B4800F0F0
:1014500037F80CE012480A2141600121016014486C
:10146000426007E0002B05D01846FFF7F9FE207018
:10147000012070BD2670FBE72246184600F0B4FB41
:1014800061782960217A0920316070BDE878207088
:10149000F0786070022070BD00800020055919B9F5
:1014A00000E80A8000E80100E000E280E000E100DE
:1014B00000E90800008000180080001C008018006F
:1014C00038B50724F74D6405256120606160521E20
:1014D000A260E068000A0002E060E0681843E06093
:1014E00000BF087869460870E1680D20000688434F
:1014F00005D0E0686946000E0870087838BDEA48F3
:1015000001680122D20311430160E848206130BF25
:10151000E74800680007400FF0D0012038BDF8B55B
:1015200000228281C281037F04464370C02B10D009
:1015300000202082678A2046672520302D02052F53
:101540002ED0E67F0122B446761DB7422CD2A5816B
:101550001EE2607F002802D1A07F002801D0D5487C
:10156000A0812079002870D0E07F002802D0A179E6
:10157000884205D9A0791B2189024018A08107E281
:10158000E081218A081A80B22082FF2802D9FF2038
:10159000A071FDE10006000EA071D9D12271F7E122
:1015A000E27F6271002207E0B74202D10026667135
:1015B00002E067463F5C677100262671A671BE4E49
:1015C0002746A6191B37A66000971F463B2B37D02E
:1015D00016DC183F3B0002F009FA23338A8A8A8A14
:1015E0008A8A8A333333338A8A8A8A8A3333333313
:1015F0003333338A333333333333333333338A0040
:10160000462F1DD004DC1F463C3F092F6FD817E042
:10161000532F6DD00CDC492F12D004DC472F0FD094
:10162000482B64D10CE0502F10D0512BF9D1C3E0DE
:10163000702F7DD0FC2F03D0FD2F01D0FE2BF0D1D9
:1016400030460099FFF7C2FEA1E1CDE0E67E002E14
:1016500002D037267602A681E67F042E00D0A5812F
:10166000002A40D06F2521716D04944A00216B5CE3
:101670005354491C89B2FF29F9D9617F002938D018
:10168000907881088E488900C07803079B0F194322
:101690009170D17880018906890E0143D170A07FB5
:1016A000884BC0070DD0107D8108D8788900860648
:1016B000B60F31431175517D0907090F0001014330
:1016C0005175A07F800706D5107DD9788007800FDF
:1016D000890008431075FF22052301322946774807
:1016E000FFF7EEFE4AE201297ED1384691E050E252
:1016F00053E1D178C378C9085B07C9005B0F194370
:10170000D170C7231940C37838265B08334019438A
:10171000D170917C8378022649063340490E9B01A3
:1017200019439174517CF72319408378DB0700E05B
:1017300028E21B0F19435174117883787026C9066B
:101740003340C90E5B00194311708C465178F32366
:1017500019404378F7269B071B0F19435170537F9D
:10176000490633404678490EB708082637403B43C0
:101770005377D37DF7273B4047787F0837403B437B
:10178000D3750378DB0119435170037861468908EA
:101790005B0789009B0F194311700278C17812060C
:1017A00011434278807812040002024346481143F4
:1017B0000160FFF70BFD8EE7E77E002F02D0372791
:1017C0007F02A781E77F042F00D0A581002A1AD0CD
:1017D0002171637FE02B22D0D907017848D042786D
:1017E00009041202114300E00FE08278C07811432F
:1017F0008C4682086AD0FF2A68D2980767D50023F2
:101800009000009097E0012902D06F200002B5E619
:101810001846FFF783FB6079A0700020F8BD0178BF
:1018200042780904120211438278C07811430122E0
:10183000D20789188C46830800D188E6FF2BFCD29A
:10184000002212E0900061460958A6680D0E35543A
:10185000A7680E0C451C7E55851C0E0AA768C01C87
:101860007E55A568521C295492B29A42EAD38FE061
:101870000A04417809020A4381780A43C1780029A1
:1018800024D0FF2922D2980722D50020521806E042
:10189000131A203BA568DB7F2B54401C80B2884282
:1018A000F6D31EE055AAAA55E000E1005AA5A55AB4
:1018B00000E0020000006A860000041B008018009F
:1018C0000080001C008000180080002062E035E0ED
:1018D000002004E0A568135C2B54401C80B28842B1
:1018E000F8D3E18154E00098614641189800091A44
:1018F0008039657FC96F6D070DD5A7680E0EC51CB1
:101900007E55A7680E0C851C7E550E0AA768451CDF
:101910007E55A5680CE0A6680D0E3554A7680E0C20
:10192000451C7E55A7680E0A851C7E55A568C01CFF
:101930005B1C29549BB29342D5D327E0002323E0BC
:1019400098006146657F09586D070DD5A7680E0E92
:10195000C51C7E55A7680E0C851C7E550E0AA7680F
:10196000451C7E55A5680CE0A6680D0E3554A76889
:101970000E0C451C7E55A7680E0A851C7E55A56871
:10198000C01C5B1C29549BB29342D9D39000E081C8
:101990000120F8BDFF203070F2E0E67F042E00D277
:1019A000D5E5002A73D02171617F8C46E02916D0DD
:1019B0006146C90701783AD00B04417809020B430C
:1019C00081780B43C178802900D980218A08E7D02B
:1019D000FF2AE5D26146890771D50021A9E0017887
:1019E0004278090412021143827811430122D2077E
:1019F00089188C46C178802900D980218B08CFD0E6
:101A0000FF2BCDD200210FE08D002A181779D6794F
:101A10003F067E40577992793F04120257407E403C
:101A20006246491C565189B29942EDD3A5E00A0499
:101A30004178C37809020A4381780A43802B00D990
:101A400080230B2109050526511AF603B14201D264
:101A5000012100E000216F2676040127961BFF027A
:101A6000BE4201D2012600E00026314328D0110AEF
:101A700009024C4F8C4600266146895DB955761C9B
:101A8000B6B2FF2EF8D9D1B20026009108E083E06B
:101A900081190F790099434A8919761C5754B6B2B7
:101AA0009E42F5D3FF223F48A37F01326146FFF7F4
:101AB00007FD002861D00021E18140195EE53BE08F
:101AC000614689070AD5002105E05D1A2D18ED78D9
:101AD0005554491C89B29942F7D34EE0002104E0E5
:101AE00045182D795554491C89B29942F8D344E0E0
:101AF000657F6D0709D58D002D18EF792E793F068A
:101B00007E40AF796D793F0408E08D002D182F7964
:101B1000EE793F067E406F79AD793F042D026F402C
:101B20007E409500ED188F00ED1B803D491C89B269
:101B3000EE679142DCD320E000211CE0657F6D0759
:101B400009D58D002D18EF792E793F067E40AF79AB
:101B50006D793F0408E08D002D182F79EE793F064E
:101B60007E406F79AD793F042D026F407E408D003D
:101B7000491C5E5189B29142E0D30020A1680870EF
:101B8000012004E7E07F042800D2E0E4002A03D02B
:101B900021716D200002F1E4012900D1A5E5372073
:101BA0004002EBE40080180010B5054A14680123D8
:101BB0009B041C431460016010689843106010BDC2
:101BC00000E801000123DB0306E01A46521E12045E
:101BD000120CFBD1401EC0B20028F6D101E0491E14
:101BE000C9B20029FBD17047F7B51746FB4A00245C
:101BF000536886B02646032109048B4353601D2198
:101C0000C904CB6A55042B43CB62CB6A1504AB43A2
:101C1000CB624B69F24D2B4004934B69ED432B4053
:101C20004B619168079B1D06EE4B04D49943030258
:101C30000B43936002E090680004000EEA490B68D1
:101C400001252D032B430B60E84900230B61E34979
:101C50000A682B011A430A6007998D07AD0F012D01
:101C600003D0022D04D0E24903E04121090600E03F
:101C7000E0498006800E0091030001F0B7FE40218C
:101C800035647891A6F7F1F0EFEEEDECEBEAE9E8D8
:101C9000E7E6E5E4E3E2E1E0DFDEDDDCDBDAD9D84C
:101CA000D7D6D5D4D3D2D1D0CFCECDCCCBCAC9C83C
:101CB000C7C6C5C4C3C2C1C0BFBEBDBCBBBAB95292
:101CC000012D0DD0022D0DD02F24084601F072FDFC
:101CD000029020020391FF3001F03DFCC64A6EE005
:101CE0005F24F2E7FF24F0E7012D0DD0022D0DD087
:101CF0002F24084601F05EFD029020020391FF3080
:101D000001F029FCBD4AAAE25F24F2E7FF24F0E7D4
:101D100001F0BCF9BA4A002301F0A0F901F0CEFBB2
:101D200086B200200390844601900798C0065CD5D7
:101D3000AE48B449C16000214161012D56D0022D49
:101D400055D0B149F2E3012D0DD0022D0DD02F2435
:101D5000084601F02FFD029020020391FF3001F0B0
:101D6000FAFBAA4A39E25F24F2E7FF24F0E7012DEB
:101D700012D0022D12D02F24084601F01BFD029034
:101D800020020391FF3001F0E6FBA14A002301F09D
:101D9000E9FB029E039B90E05F24EDE7FF24EBE765
:101DA000012D0ED0022D0ED02F24084601F002FD89
:101DB000029020020391FF3001F0CDFB954A964B33
:101DC0000DE25F24F1E7FF24EFE7012D4AD0022D59
:101DD0004AD02F24084601F0EDFC06462002FF30D1
:101DE000019101F0B8FB8D4A63E2F0E3F0E3F0E328
:101DF000F0E3F0E3F0E3F0E3F0E3F0E3F0E3F0E34B
:101E0000F0E3F0E3F0E3F0E3F0E3F0E3F0E3F0E33A
:101E1000F0E3CCE3B7E3A2E38DE377E362E34DE3E2
:101E200002E3EDE2D8E2C3E2AEE299E284E26FE2DD
:101E30005AE245E22DE218E202E2EDE1D8E1BDE12D
:101E4000A8E192E17BE165E150E13AE125E112E1AF
:101E5000FEE0B2E09CE087E072E05CE047E032E068
:101E600018E003E05F24B5E7FF24B3E7012D0DD0B0
:101E7000022D0DD02F24084601F09CFC0290200278
:101E80000391FF3001F067FB654A53E05F24F2E7FE
:101E9000FF24F0E7012D12D0022D12D02F24084686
:101EA00001F088FC06462002FF30019101F053FB4F
:101EB0005C4A5D4B01F056FB019B324628E75F24EC
:101EC000EDE7FF24EBE7012D0DD0022D0DD02F24DF
:101ED000084601F06FFC06462002FF30019101F038
:101EE0003AFB524A3BE15F24F2E78F24F0E7012DF1
:101EF0000DD0022D0DD02F24084601F05BFC02907E
:101F000020020391FF3001F026FB494AE8E05F24FC
:101F1000F2E78F24F0E7012D0ED0022D0ED02F24F2
:101F2000084601F047FC029020020391FF3001F0C7
:101F300012FB404A002352E15F24F1E78F24EFE7D0
:101F4000012D0DD0022D0DD02F24084601F032FCBA
:101F5000029020020391FF3001F0FDFA364A86E03C
:101F60005F24F2E78F24F0E7012D0DD0022D0DD074
:101F70001F24084601F01EFC029020020391FF304E
:101F800001F0E9FA2D4AD5E75F24F2E78F24F0E764
:101F9000012D0ED0022D0ED01F24084601F00AFCA0
:101FA00006462002FF30019101F0D5FA244A1A4B6F
:101FB000D9E34F24F1E78F24EFE7012D44D0022D20
:101FC00044D01F24084601F0F5FB02902002039143
:101FD000FF3001F0C0FA1B4AACE7000000E8010046
:101FE000000FFF000000FF00E000E18000E80700B4
:101FF00040650E564158F5C33FFB3333400999996C
:1020000040EFFFE00000111100150011401266665C
:1020100040180000401D33333333333340216666AC
:1020200040240000402699999999999A40290000E6
:10203000402B9999402E000040304CCC403180001C
:102040004032B333403400004F24BBE78F24B9E75C
:10205000012D0ED0022D0CD01F24084601F0AAFB42
:10206000029020020391FF3001F075FAF64AF74B17
:10207000B5E04F24F1E7012D0DD0022D0BD01F2428
:10208000084601F097FB029020020391FF3001F017
:1020900062FAEF4A93E64F24F2E7012D0DD0022DAC
:1020A0000DD01F24084601F085FB06462002FF30B4
:1020B000019101F050FAE74AFBE03F24F2E74F2498
:1020C000F0E7012D0ED0022D0ED01F24084601F09E
:1020D00071FB029020020391FF3001F03CFADE4ACE
:1020E000DE4B7CE03F24F1E74F24EFE7012D0DD0DC
:1020F000022D0DD00F24084601F05CFB0290200257
:102100000391FF3001F027FAD54A58E63F24F2E761
:102110004F24F0E7012D0ED0022D0ED00F240846DB
:1021200001F048FB019106462102C81DF83001F07C
:1021300012FACC4AD8E23F24F1E74F24EFE7012D11
:102140000FD0022D0FD00F24084601F033FB019170
:1021500006462102C81DF83001F0FDF9C24A0023ED
:1021600001E33F24F0E74F24EEE7012D0ED0022DCE
:102170000ED00F24084601F01DFB019106462102F6
:10218000C81DF83001F0E7F9B84AEAE22F24F1E778
:102190004F24EFE7012D0DD0022D0DD00F2408465E
:1021A00001F008FB029020020391FF3001F0D3F907
:1021B000AF4A04E62F24F2E74F24F0E7012D13D0B5
:1021C000022D13D00F24084601F0F4FA02902002E9
:1021D0000391FF3001F0BFF9A64AA04B5B4201F02A
:1021E000C1F9039B029A93E52F24ECE74F24EAE719
:1021F000012D0DD0022D0DD00F24084601F0DAFA82
:10220000029020020391FF3001F0A5F99A4A91E66D
:102210002F24F2E74F24F0E7012D0DD0022D0DD031
:102220000F24084601F0C6FA029020020391FF3005
:1022300001F091F9914A27E32F24F2E74F24F0E7C8
:10224000012D0ED0022D0ED00F24084601F0B2FA57
:10225000029020020391FF3001F07DF9884A7F4B04
:1022600095E52F24F1E74F24EFE7012D0DD0022D46
:102270000DD00F24084601F09DFA02902002039130
:10228000FF3001F068F97F4AA7E72F24F2E74F24D7
:10229000F0E7012D10D0022D10D00F24084601F0D8
:1022A00089FA019106462102C81DF83001F053F960
:1022B000754A6A4B5B42FDE52F24EFE74F24EDE7BB
:1022C000012D0DD0022D0DD00F24084601F072FA19
:1022D000029020020391FF3001F03DF96B4A6EE558
:1022E0001F24F2E74F24F0E7012D0DD0022D0DD071
:1022F0000F24084601F05EFA029020020391FF309D
:1023000001F029F9624A15E61F24F2E73F24F0E7BD
:10231000012D0DD0022D0DD00F24084601F04AFAF0
:10232000029020020391FF3001F015F9594A01E6AD
:102330001F24F2E73F24F0E7012D0DD0022D0DD030
:102340000F24084601F036FA029020020391FF3074
:1023500001F001F9504A8AE61F24F2E73F24F0E732
:10236000012D0DD0022D0DD00F24084601F022FAC8
:10237000029020020391FF3001F0EDF8474AAFE6EA
:102380001F24F2E73F24F0E7012D0DD0022D0DD0E0
:102390000F24084601F00EFA029020020391FF304C
:1023A00001F0D9F83E4A18E71F24F2E73F24F0E78E
:1023B000012D0DD0022D0DD00F24084601F0FAF9A1
:1023C000029020020391FF3001F0C5F8354A04E77E
:1023D0001F24F2E73F24F0E7012D0DD0022D0DD090
:1023E0000F24084601F0E6F9029020020391FF3025
:1023F00001F0B1F82C4AF0E61F24F2E73F24F0E7A1
:10240000012D0DD0022D0DD00F24084601F0D2F978
:10241000029020020391FF3001F09DF8234ADCE690
:102420001F24F2E73F24F0E7012D43D0022D43D0D3
:102430000F24084601F0BEF9029020020391FF30FC
:1024400001F089F81A4AC8E640354CCCCCCCCCCD4A
:102450004036333340376666403899999999999A4E
:102460004039B333403AE666403C0000403D19999C
:10247000403E3333403F6666404040004040CCCC55
:10248000404159994041E666404266664042F33316
:10249000404380004044000040448CCC40451999A2
:1024A0004045A666404626664046A66640472666E4
:1024B0004047A6661F24BCE73F24BAE7012D0DD094
:1024C000022D0DD00F24084601F074F9029020026D
:1024D0000391FF3001F03FF8F74A70E41F24F2E760
:1024E0002F24F0E7012D0DD0022D0DD00F2408462A
:1024F00001F060F9029020020391FF3001F02BF807
:10250000EE4A5CE41F24F2E72F24F0E7012D0ED001
:10251000022D0ED00A24084601F04CF90290200248
:102520000391FF3001F017F8E54A48E4FDE11F246C
:10253000F1E72F24EFE7012D0DD0022D0DD00A2455
:10254000084601F037F9029020020391FF3001F0B4
:1025500002F8DC4A33E41F24F2E72F24F0E7012DD0
:102560000DD0022D0DD00A24084601F023F9029067
:1025700020020391FF3000F0EEFFD34A1FE41F2436
:10258000F2E72F24F0E7012D0DD0022D0DD00A2403
:10259000084601F00FF9029020020391FF3000F08D
:1025A000DAFFCA4A0BE41F24F2E72F24F0E7012DDB
:1025B00021D0022D21D00A24084601F0FBF8029018
:1025C00020020391FF3000F0C6FFC14A62E52EE20F
:1025D000A8E1A9E15EE148E133E11DE108E1F3E0B2
:1025E000DEE0C9E0AEE099E084E06DE058E042E072
:1025F0002DE018E003E01F24DEE72F24DCE7012DA7
:102600000DD0022D0DD00A24084601F0D3F8029017
:1026100020020391FF3000F09EFFAE4A3AE51F24EE
:10262000F2E72F24F0E7012D0DD0022D0DD00A2462
:10263000084601F0BFF8029020020391FF3000F03D
:102640008AFFA54A26E51824F2E72F24F0E7012D9A
:102650000DD0022D0DD00A24084601F0ABF80290EF
:1026600020020391FF3000F076FF9C4A12E5182407
:10267000F2E72F24F0E7012D0ED0022D0ED00A2410
:10268000084601F097F8039102902102C81DF83026
:1026900000F061FF924AFDE41824F1E72F24EFE7F0
:1026A000012D0DD0022D0DD00A24084601F082F82C
:1026B000029020020391FF3000F04DFF894A8CE523
:1026C0001824F2E72F24F0E7012D0FD0022D0FD0B0
:1026D0000A24084601F06EF8019106462102C81D41
:1026E000F83000F038FF804A804B3CE01824F0E7D7
:1026F0002F24EEE7012D0DD0022D0DD00A2408461F
:1027000001F058F8029020020391FF3000F023FFFF
:10271000774A62E51824F2E72F24F0E7012D0DD067
:10272000022D0DD00A24084601F044F80290200240
:102730000391FF3000F00FFF6E4AD1E41824F2E756
:102740002F24F0E7012D13D0022D13D00A240846C0
:1027500001F030F806462002FF30019100F0FBFE48
:10276000654A624B5B4200F0FDFE3246019B3AE552
:102770001824ECE72F24EAE7012D0DD0022D0DD00F
:102780000A24084601F016F8029020020391FF3057
:1027900000F0E1FE594A20E51824F2E71F24F0E793
:1027A000012D0DD0022D0DD00A24084601F002F8AB
:1027B00006462002FF30019100F0CDFE504A93E71B
:1027C0001824F2E71F24F0E7012D0DD0022D0DD0C3
:1027D0000A24084600F0EEFF029020020391FF3029
:1027E00000F0B9FE474A12E51824F2E71F24F0E78B
:1027F000012D0DD0022D0DD00A24084600F0DAFF7D
:10280000029020020391FF3000F0A5FE3E4A67E4EB
:102810001824F2E71F24F0E7012D0ED0022D0ED070
:102820000A24084600F0C6FF019106462102C81D91
:10283000F83000F090FE354A93E71824F1E71F24A2
:10284000EFE7012D0DD0022D0DD00A24084600F02F
:10285000B1FF029020020391FF3000F07CFE2C4A71
:1028600018E41824F2E71F24F0E7012D0ED0022D02
:102870000ED00A24084600F09DFF0290200203912A
:10288000FF3000F068FE234A234BE9E41824F1E707
:102890001F24EFE7012D0DD0022D41D00A24084658
:1028A00000F088FF029020020391FF3000F053FEF9
:1028B0001A4A92E41824F2E7404833334048B333CD
:1028C000404933334049B333404A3333404AB3334A
:1028D000404B3333404BB333404C3333404CB33332
:1028E000404D3333404DA666404E266666666666AA
:1028F000404EA666404F1999404F99994050066640
:1029000040504666405080004050B9994050F99977
:102910004051333340516CCCCCCCCCCD4051A66629
:102920001F24BCE7F24900E0F24901602102F248AD
:10293000FF318161F14CC461FF210020FFF742F9B2
:10294000ED49112088600846416911221142FBD0EF
:10295000C16A8AB2E949891A4269D20603D5816AF5
:10296000FF2289B206E0B14201D8102200E0012224
:10297000E24B591A5A233B700B0AFB703971BA703B
:10298000012D49D0DE490646C16000207061FF215B
:10299000FFF718F9022D04D0DA4830602F25DA4805
:1029A00003E0DA483060DA48FF25009900F02AFF9A
:1029B000D84901F06FF800F0D5FF84B22802FF304B
:1029C000B061CE4DF561FF210020FFF7FBF811202B
:1029D000B06071690142FCD0F06A716980B2281A56
:1029E000C90603D5B06AFF2180B205E0A04201D834
:1029F000102100E00121281A7971010AB971F871DA
:102A0000C548016801221204914301601D20C004E1
:102A10004169890E797046E100207871B871F871CA
:102A2000BD480268012109048A430260EEE71D22C5
:102A3000D2045069B949084350612002FF30029026
:102A4000AD4CAF48E06000206061FF21FFF7BAF8AD
:102A5000012D03D0022D03D0B14802E0A44800E0CC
:102A6000A44820600298A061A448E061FF210020F2
:102A7000FFF7A8F81121A16060690842FCD09E4AC6
:102A80006046D36A52699CB29C4B1B1B9C46D20683
:102A90000CD51D24E4046269120D0ED1964B9A6A7E
:102AA00092B2944600225A61FF2215E0B4451ED826
:102AB0001D24E4046269120D08D0636941221205E5
:102AC0009A1A6261039A002ABAD006E000228A4B61
:102AD000604694465A610F2201925A223A70019A36
:102AE0000F2A14D0F02A17D0002A1CD030E01D2263
:102AF000D20452698B4B120D9A4204D17E4B0020B6
:102B00005861F022E8E77C4B00225A61E4E7301A72
:102B100080B28446102004E06046801B80B2844668
:102B20000120019014E06246921B301A82420BDDB4
:102B300080B2102284461D20C004019243694122C4
:102B400012059A18426103E00120019090B2844678
:102B50006046000AF870604638710198B8701D2010
:102B6000C0044269920E7A70012D70D00022144682
:102B7000039202680F239B011A4302605E4860497A
:102B8000C16000214161FF210020FFF71BF8012DEA
:102B900003D0022D08D05B4900E06349564801602C
:102BA0002F200290584805E0534958480860FF20FC
:102BB00002905748009900F025FE564900F06AFF40
:102BC00000F0D0FE86B202984B490002FF308861C7
:102BD0004A48C861FF210020FEF7F4FF4649112052
:102BE00088600A4651690142FCD0D16A20468BB206
:102BF0004249CC1A5169C9060CD51D21C9040A687D
:102C00009205120F0DD13C48816A8CB200214161BE
:102C1000FF2037E04549B4421AD80A689205120FDE
:102C20000DD00A68403A0A6003990029A6D001999C
:102C30000F2908D0F02922D0002911D027E02E4AF0
:102C4000002120465161301A84B210201AE043E07E
:102C500009688905090F0F290ED0274A0021516103
:102C6000A11B301A81420FDD84B210212F4801913F
:102C70000168403101600AE01F4900204861A01B43
:102C800084B20120019002E001208CB201900198F1
:102C90007871200AB8712048FC710268012109048A
:102CA0008A430260214800688005000F38721A4884
:102CB00041680322120491434160416801221204D9
:102CC0001143416019494869144AFF321040049A7F
:102CD0001043486109B0F0BD012179710021B9713B
:102CE0000D4AF9711368012109048B431360DAE777
:102CF000001600110013001100E807000000FFFF9C
:102D0000000011110065001147BFFC0000630011B5
:102D100048FFFF00477FFF0000E80100FFF00000D0
:102D20000015001100000FFF0066001100E8000010
:102D300070470000F0B50446CF1A94410546CE1AFC
:102D4000954103D2C91BA041DB196241050D170D46
:102D5000C94EEC1BAE435CD07F057F0D0026002FD3
:102D600051D02D05AC46A843D5020122ED0A12052B
:102D700015432022121B24D41F46E74079187041C6
:102D80002F46E740C4199540691830466041040D4C
:102D900027D16044934013D50022491C50415A006A
:102DA0000ED149084900012243005205D34207D3FE
:102DB00005214907C84201D5B04800E0B048314676
:102DC000F0BD6A00002B00D00123D3181F22203C45
:102DD000121B01D5002202E0E54069187041040D84
:102DE000D7D0012424050019CC07C507490840089D
:102DF000E40F29436044002CD5D00024491C6041D5
:102E00009340D0D1CDE76A05520DD9D1C00FC0078C
:102E1000D5E79C4D4600002901D0012400E00024A4
:102E200034195700002B01D0012600E00026BE19FE
:102E3000954FAC420CD8AE420AD8B44206D0012518
:102E40006D05EC42BCD010461946F0BD9042FCD056
:102E500000213846F0BDF0B51FB404460746C81A35
:102E600097412546CE1A954106D20125ED076F40C0
:102E7000091ABC411B187A41200D160D851BAC4662
:102E80007D4D85437ED075056D0D7CD005051603FF
:102E9000AE46AC43360B794D5A42B54120236646C7
:102EA0009B1B14D31746F7407918002601917441F3
:102EB00061462F460F41E41901999D40691866410A
:102EC00016D4704630189A4025D5012320E0931877
:102ED0002A466A415200002B00D0521C1E23203E7D
:102EE0009B1B002B5FDD3541EE1769186641E8D565
:102EF000491876415B1C9A4000D3491C4305F318DE
:102F00001524E34010D3002B50D070463018D30F57
:102F1000C91802D3401C05B0F0BD0123DB079A425B
:102F2000F9D149084900F6E701225205B21801D14A
:102F3000002951D00123C40ADB029843801E002AD5
:102F400008D10A0C03D00A0C0904103802E00A4622
:102F5000002120380023550B05D112020823550B00
:102F600001D152010D23550C01D112011B1DD50CAD
:102F700001D192009B1C150D01D152005B1C202534
:102F8000EE1A01E02AE020E00D46F5401543994095
:102F9000C21AE00728181305C018002ABBDA03215B
:102FA000490740180DE070462018B4E7F0074908BB
:102FB00001437010704442000CD001235B059A421B
:102FC000A9D2C00FC0070021A5E74005400D26D1BA
:102FD000002101E00029F4D100209CE7294D660082
:102FE000002901D0012000E0002030185700002BFC
:102FF00001D0012600E00026BE19234FA84210D8B8
:10300000AE420ED8B04208D001256D05E84206D088
:103010001046A902484019467DE7944201D0204657
:1030200079E70021384676E710B50446544005D5C7
:103030000124E4076240FFF70EFF10BDFFF77AFEA0
:1030400010BD10B50446544005D50124E407624084
:10305000FFF770FE10BDFFF7FEFE10BD70B5012436
:10306000E40760400546554002D4FFF763FE70BD9B
:103070006240FFF7F0FE70BD000007FFFFF00000A8
:103080007FF00000FFE000007FF80000F0B5FB4C8F
:10309000050916092540264027468BB0AF437DD051
:1030A000B443FCD0002E7AD0002DFCD0044654400E
:1030B000E70F2F43BD1BFF24A4042D194C0DC002A4
:1030C0002043CF02D1025C0D0122D20721431043DD
:1030D00011430090DB020895080C1D0CAC4605045A
:1030E0000A46AA430A9565462D04AB430995E44D6B
:1030F000040A7D446419803C257806466E43012409
:103100007619E405A61B7543ED0C490BAD1C69430C
:103110004919A401611A0E0CB6463604B14369433D
:1031200076466E43090C711889090791F90700D09A
:10313000A100069100997F08CC0727434C08079D02
:10314000E10B4D432D0C664629466E430D46454323
:10315000BF1BAC410D465543019700942C0C2F0426
:103160000D465D432E462D0C3D430395069D3604CA
:10317000AD1B069504D2039D00266D1C744103957A
:10318000039F019E009DF61BA54109040491079928
:10319000AC08614301960095090C01E030E154E16F
:1031A0000C464443650BE6040C4667467C43A64642
:1031B000640B3443029503947446069DE4042C1B6F
:1031C000069406D2039D029C6D1C00267441039553
:1031D0000294019F039E029D009CBF1BAC41009482
:1031E0000C4654430197650FE7000C465C43A64626
:1031F000640F3C43029503947446069DE4002C1B27
:10320000069406D2039D029C6D1C00267441039512
:103210000294019F039E029D009CBF1BAC41BD090F
:10322000A4062C43069DBF06AD092F43069DC90089
:10323000AD060695049D664669180491079DE10B4D
:103240004D432D0C29466E430D464543BF1BAC41F3
:103250000D465543019700942C0C2F040D465D43F9
:10326000AE462D0C3D4303957546069F2D047D1BF0
:10327000069504D2039D00266D1C74410395039F9F
:10328000019E009DF61BA5418C0500950594049CAC
:10329000890A611804910799AC086143090C0C462E
:1032A00044430196600BE5040C4666467443660B86
:1032B0002E43069DE4042C1B069402D20024761CA7
:1032C0006041019F009CBE1B84410846504300940E
:1032D000440FC50008465843470F2F432546069C18
:1032E000C000241A02D200207F1C45410098F61B22
:1032F000A841B50980062843B706A5092F43BC4657
:103300004E02059FA406049DF6190021694104910F
:103310000A9967461143099AFF191A43002300933B
:103320004041E30F64003B43A44604469F1A8C418E
:10333000A04203D9012000903B462046C70FDC186D
:1033400040416346DB0F2343644664000694009CBF
:10335000BE4664009F1AA446044603978C417746F4
:10336000002F01D1A04204D96046401C8446039B33
:103370002046C40FA646DC184041069B0546DB0FDD
:103380002343644664009A1A8D417146002901D195
:10339000A84202D913462846641C1843012200287B
:1033A00000D0164360020021049B80190C465C414A
:1033B0000223002C02DB001813466441089DC60A54
:1033C0002D145D1943056705E00A2C0504190898BA
:1033D0003E43C0076040002B08D0934006D3002234
:1033E000761C5041002B01D176087600254A002C2E
:1033F00038DB144236D0A24334D031460BB0F0BD96
:103400004E1805464541204C7642AC411AD3DD1892
:10341000144654411C4B6D42A34113D301235B0559
:103420004400DC420AD15400DC420BD0424002D5B9
:103430009A021043E2E740004008DFE75040C00F27
:10344000C0070DE000211148D8E70E49084202D11B
:103450000A42F7D0F2E70E4950400843C9124840EB
:103460000021CBE70123089A9B069A4212DC032233
:1034700052078018C00FC007C0E7000007FF000018
:1034800000000AA07FF00000FFE000007FF80000CD
:103490007FFFFFFF052252078018074A1043D21210
:1034A0005040ABE770B515461C4602460B46284611
:1034B0002146FFF7EBFD70BD7FFFFFFFC3024A0D02
:1034C00010B51A43031504D00124E4072243002B4E
:1034D00006DB0A4CE31A05D41046D840FF2B00DD6A
:1034E000002010BD4200002900D001215118012206
:1034F0005205D142F4D8C017C04310BD0000041ECD
:103500001F22030C02D10F22000402D0030E03D0AD
:1035100004E00021084670470002083A030F01D179
:103520000001121F830F01D18000921E002801DBD1
:103530004000521E120552184105C01280187047F3
:1035400010B5C10FC90700D04042012292071143B4
:10355000FFF7D6FF10BD10B501218907FFF7D0FF97
:1035600010BD0000F0B58D4C0709254687B0BD435E
:103570007ED015092646AE43FAD00646564027406F
:10358000F60F3E43254074D024012042FBD0AD19F4
:10359000FF24A4042D1B0395C502D00201221205AD
:1035A000ED0AC00A154310432D010A0F154302010D
:1035B000180F02430E01A80B810336091F018D432A
:1035C000B10B8B039E43930B9C03A2433F090292D2
:1035D000BA0B9403A743B4467E43B64666460497A7
:1035E0008E19D7190C46019654437E430597371B15
:1035F0007646BF1B3601B646BE0B36190096764698
:10360000BC043719009C01D3641C0094640000942E
:10361000002F02D0012634430094029E6446744376
:10362000A646049E2C4674430494009E6400A4198C
:10363000764676003619029CB4461C19019E019408
:1036400066437446341BA6464619059C009674438F
:10365000049E5943A61B7446641A049404465443BA
:10366000321B66460692F206624606D0520901E017
:1036700073E06FE00126324300E052090E0A0906AA
:1036800000278A187E41210A2406A4187141049E4D
:10369000B20DB7023C19069E4A41B10DB7023C1962
:1036A0005141029A58435543019B009A5A43121ABA
:1036B000571BBB0EBF01002279185341020B0005B6
:1036C00040185A412B0A29060C194341834200D263
:1036D000521C01204002824203D315200226F643E9
:1036E00002E014200326F64320210D1AAA401F46AB
:1036F000AF40C3402146C140039813430014321821
:1037000010051818039B3943DB075840AC4009D01B
:1037100001239C4006D30023491C5841002C01D1B1
:10372000490849001E4B9A4212D30122039992067E
:10373000914207DB0521490740181A490843C9127D
:10374000484004E0032149074018C00FC00700218A
:1037500007B0F0BD0021F007FAE74D1804464441D8
:1037600011496D42A14115D3DC18134653410E494E
:10377000644299410ED30121430049058B4209D38C
:1037800053008B4206D35040C00F084AC0070021A7
:103790001043DDE700210648DAE7000007FF0000DC
:1037A000000007FE7FFFFFFFFFE000007FF000004A
:1037B0007FF800000121C9054218012341001B06C2
:1037C000CB185B0E0BD0C21041070720C0061018A3
:1037D0001922D206D04201D5520080187047120239
:1037E00005D50029FAD0C00FC0070021704741025B
:1037F00002D000210248704707221205104370478B
:103800007FF80000F0B5FF252D04C609C209FF2787
:1038100004462E400137CB093E4348402A402B4006
:103820000746002A6BD0002B69D0AA4267D0AB4272
:1038300065D0002800DA32460125ED0529432C43E6
:1038400009022002090AD21A4B0C7F24E31A434CC6
:10385000000A7C44E35C7D242404121914145B00E8
:10386000A218884201D3521C00E0400049420C4695
:103870005C4324115C43DB016415E318040A5C43D8
:10388000C502200D0C4644436419250A5D432303F9
:10389000EC0C0D46654300030019EB184C42A342A3
:1038A00001D35B18401CD4052018002B07D05B0007
:1038B000C91804D3401C002901D1400840003F2111
:1038C00089048A4209D3002A08DC1106090F04D0B2
:1038D000032149074018C00FC007F0BD0122410075
:1038E000120689187F2252069142F6D20521490715
:1038F000C84201D59010F0BDFF20C005F0BD002FDB
:1039000000DA32461648AA4207D2AB4205D2190263
:10391000090E17D0F80FC007F0BDFF2563002D0674
:10392000AB42F9D84900A942F6D8AB4201D1A9422D
:10393000F2D0A94201D1002101E061004908D0057F
:103940000843F0BD1102090EFBD0FF200243D00551
:10395000F0BD0A460146104654E70000000003C0CF
:103960007FC000000102C21504D00123DB07194308
:10397000002A0ADB9E239A1A02D40846D0407047D8
:10398000FF2241001206914201D900207047C01762
:10399000C04370477047754600F024F8AE460500F6
:1039A00069465346C008C000854618B020B5FCF7EC
:1039B000FCFB60BC00274908B6460026C0C5C0C550
:1039C000C0C5C0C5C0C5C0C5C0C5C0C5403D490013
:1039D0008D46704710B50446C046C0462046FCF7E9
:1039E000BAFB10BD00487047008010E830B4744640
:1039F000641E2578641CAB4200D21D46635D5B00EB
:103A0000E31830BC1847000070B501250400ED072D
:103A10004C4020D4441A01D2001B0919C60D4B009A
:103A2000F2B2FF2A29D01B0E2CD000020C02D31AAE
:103A30002C43DC402843051910D2280A02D3401C2D
:103A40006D0611D0761EF6058019FF2A00DA70BDCA
:103A5000C00DC00570BD694000F02EF8012005437F
:103A6000C541521C761CE8E764089C40C9016140CE
:103A70008900E7D10124A043E4E71B0E440200D0F3
:103A8000034870BD002AFCD1C00FC00770BD00BF45
:103A90007FC0000070B50125ED07684004004C4070
:103AA00002D5694000F008F8FFF7B4FF70B50125B2
:103AB0000400ED074C4022D4441A02D26C40001B93
:103AC0000919C60D4B00F2B2FF2A4BD01B0E50D085
:103AD00000020C02D31A2C43DC40A843051B05D579
:103AE000AD0019D36D08761E521E37D0F605280A90
:103AF00001D2801970BD70416D0603D070BD694060
:103B0000FFF788FF9C4009026140490001D0401E38
:103B100070BD0124A04370BD6D081DD001202B0C89
:103B200001D12D0410302B0E01D12D0208302B0FA6
:103B300001D12D01001DAB0F01D1AD00801CEB0F99
:103B400001D16D00401C6D00361A121A680AF50585
:103B50004019012A02DB70BD002070BDC036300A5A
:103B6000C00770BD1B0E440201D1FF2B00D10248DB
:103B700070BD002AF0D070BD7FC00000464D534894
:103B80005F33343710182028304060804143544957
:103B900056455F50534580807F7E7D7C7B7A797867
:103BA000777676757473727171706F6E6E6D6C6C02
:103BB0006B6A6A69686867666665646463636261A4
:103BC0006160605F5F5E5E5D5D5C5C5B5B5A5A5925
:103BD0005958585757565655555554545353525291
:103BE0005251515050504F4F4F4E4E4D4D4D4C4CE9
:103BF0004C4B4B4B4A4A4A49494948484847474732
:103C0000474646464545454444444443434343426E
:103C10004242424141418182838485868788898BE3
:103C20008C8D8E8F919293959697999A9C9D9FA03B
:103C3000A2A3A5A7A8AAACAEB0B2B3B5B7B9BCBE93
:103C4000C0C2C5C7C9CCCED1D4D7D9DCDFE2E6E942
:103C5000ECF0F3F7FAFE000000503C780080000022
:103C6000000000240050010400503C9C008000240F
:103C7000000019DC005001200000000000000000DE
:103C80000000000000000000000000000000000034
:0C3C900000000000000000000000000028
:04000005005000C1E6
:00000001FF
