:020000040800F2
:10000000680C0020F9010008FD010008FF0100084C
:1000100001020008030200080502000800000000B9
:1000200000000000000000000000000007020008BF
:1000300009020008000000000B020008710F000810
:10004000A30F0008A50F0008A70F0008A90F0008BC
:10005000AB0F0008AD0F0008AF0F0008B10F00088C
:10006000B30F0008B50F0008B70F0008B90F00085C
:10007000BB0F0008BD0F0008BF0F0008C10F00082C
:10008000C30F0008C50F0008C70F0008C90F0008FC
:10009000CB0F0008CD0F0008CF0F0008D10F0008CC
:1000A000D30F0008D50F0008F70F0008F90F00085C
:1000B000FB0F0008191000081B1000081D10000895
:1000C0001F10000821100008231000082510000848
:1000D00027100008291000085F110008B31100085C
:1000E000B5110008B7110008B911000800F002F8B6
:1000F00000F03CF80AA090E8000C82448344AAF186
:100100000107DA4501D100F031F8AFF2090EBAE883
:100110000F0013F0010F18BFFB1A43F0010318473B
:100120003C6500005C650000103A24BF78C878C1C7
:10013000FAD8520724BF30C830C144BF04680C60ED
:10014000704700000023002400250026103A28BF35
:1001500078C1FBD8520728BF30C148BF0B60704739
:100160001FB5AFF300801FBD10B510BD06F027FA14
:100170001146FFF7F5FF00F05BFE06F045FAFFF7CA
:10018000F3FF06F04BFA000030BF704720BF704706
:1001900040BF7047BFF36F8F7047BFF34F8F7047FB
:1001A000BFF35F8F704701DF7047EFF31480704734
:1001B00080F31488BFF36F8F7047EFF309807047A7
:1001C00080F309887047EFF30880704780F3088850
:1001D000704772B6704762B6704771B6704761B6C5
:1001E000704780F311887047EFF31280704740BA70
:1001F000704700BA7047000008480047FEE7FEE776
:10020000FEE7FEE7FEE7FEE7FEE7FEE7FEE7FEE7C6
:1002100003480449024A044B70470000ED000008FF
:1002200068040020680C00206804002070B50546B2
:100230000C46FF4804600020FD498880C880088182
:1002400048810C208881284601F0DEFA70BD70B527
:1002500002F05EF84FF4803002F081F802F0BEF850
:10026000F44908700846007801283CD1102001F0BC
:10027000E1FC022001F0C8FC002002F0F1F80020AF
:1002800002F0FEF84FF4806002F0F2F84FF4E01153
:100290004FF4803002F0C9F8012002F0D1F800BF1D
:1002A000392002F07FF80028FAD0022002F0CBF8C3
:1002B00000BF02F0D0F80828FBD1002545F48045A6
:1002C00040F67D000543002444F4802400BF00BFB5
:1002D00044F480440121284602F088F90121204697
:1002E00002F091F901E000BFFEE770BD10B5FF20FC
:1002F000D1490880012088701020C870CF4801F0D3
:10030000F6FC3F20CC490880012088701020C8707E
:10031000CB4801F0ECFC4FF48070C7490880012005
:1003200088701020C870C54801F0E1FC4FF40060EF
:10033000C1490880012088701020C870BF4801F0B2
:10034000D6FC4FF48060BC490880012088701020E2
:10035000C870BA4801F0CBFC4FF40070B649088071
:10036000012088701020C870B44801F0C0FC4FF420
:100370000040B1490880012088701020C870AF4843
:1003800001F0B5FC4FF48050AB4908804820C8709C
:10039000AA4801F0ACFCC020A74908800220887060
:1003A0001020C870A64801F0A2FC0320A2490880D2
:1003B000022088701020C870A24801F098FC20200C
:1003C0009D490880022088701020C8709D4801F067
:1003D0008EFC4FF4C040984908800220887010209D
:1003E000C870964801F083FC4FF440709249088031
:1003F0001020C87002208870924801F078FC4FF4F9
:1004000060408D490880032088701820C8708D488E
:1004100001F06DFC4FF48050874908801020C870AF
:1004200003208870874801F062FC4FF40070824915
:100430000880012088701820C870814801F057FC9E
:100440004FF480607C4908800420C8707C4801F02B
:100450004EFC4FF480607849088001208870182095
:10046000C870784801F043FC4FF40060724908807E
:100470004820C870734801F03AFC40206E4908805B
:10048000032088701420C8706E4801F030FC802072
:1004900069490880032088701420C870694801F0F9
:1004A00026FC10BD10B501F017FB01F03BFD00214B
:1004B0004FF0006001F037FE4FF4C06001F07BFDAB
:1004C0002520614908700020487001208870C8709C
:1004D000084601F076FD00BF28205B490870012026
:1004E0004870002088700120C870084601F069FD3E
:1004F0000C21022001F0F0FC192053490870012062
:100500004870032088700120C870084601F059FD2A
:100510001C204D490870002088700120487004207C
:1005200088700120C870084601F04BFD10BD10B561
:10053000464801F03DF94FF4E1303D4908600020A4
:100540008880C880088148810C2088813F4801F05C
:100550005BF901213D4801F0BAF9012240F2266120
:100560003A4801F0C0F9012240F22551374801F024
:10057000BAF910BD10B5364801F01AF94FF416500B
:100580002B490860002088804FF40050C88000206C
:10059000088148810C2088812D4801F035F901211E
:1005A0002B4801F094F9012240F22661284801F01D
:1005B0009AF9012240F22551254801F094F910BD25
:1005C0000EB502F0D9F842F21070ADF8040041F611
:1005D0001F40ADF800000020ADF806001020ADF877
:1005E000020000208DF80800684602F0D0F80120D3
:1005F00002F041FD42F2107002F0F8FC01210846C1
:1006000002F0CAFA012002F0C1FA0EBD1CB54FF08B
:10061000804002F05FFD0121084601F0F4FF052053
:10062000ADF800004720ADF80200002012E0000005
:100630005400002016000020180000200010014087
:1006400000080140000C0140280000200038014053
:1006500000480040ADF8060069464FF0804002F0C7
:1006600063FD01221146900702F014FF1CBD00B586
:1006700085B00020ADF800004FF48270ADF80200A4
:100680000020ADF80400ADF80600ADF808004FF406
:100690000070ADF80A001820ADF80C000020ADF88D
:1006A0000E000720ADF8100069460E4803F037F938
:1006B00001210C4803F058F905B000BD10B56FF0EA
:1006C000040001F0F7FF084C204602F007F8012073
:1006D00002F022F8002002F005F8012002F002F8F2
:1006E00010BD000000380040585089000022027000
:1006F00042708270C27002714271002104E00022D7
:10070000104B5A544A1CD1B2FF29F8DB7047002223
:1007100008E0002100E0491C41F6A4739942FAD395
:10072000531C9AB28242F4DB7047002206E000219B
:1007300000E0491C5129FCD3531C9AB28242F6DBDB
:10074000704700006C0000200020FF49086820F47A
:10075000704040F48040FD49C1F8000C7047002013
:10076000F949086820F4704040F4E040F749C1F8C6
:10077000000C8021F44A1032116070474021F24A87
:1007800010321160F249087801E0411E88B2002859
:10079000FBDC8021EC4A14321160EE49087801E05C
:1007A000411E88B20028FBDC70474021E64A143223
:1007B00011608021E54AC2F8141C4021C2F8101CC7
:1007C000E349087801E0411E88B20028FBDC802163
:1007D000DD4A10321160E049087801E0411E88B21C
:1007E0000028FBDC704730B50246002325E040209E
:1007F000D54914310860D648057801E0681E85B2F5
:10080000002DFBDC02F0800424B98020CE49143195
:10081000086003E08020CC49103108605006020EC9
:100820004020C94910310860CC48057801E0681EB5
:1008300085B2002DFBDC581C83B2082BD7DB40208F
:10084000C14914310860FFF77FFF30BD2DE9F04743
:10085000024602F0800A4020BB4914310860BAF118
:10086000000F02D18020086003E08020B6491031DB
:1008700008604020B4491031086000BF00BF00BFCD
:1008800000BF00BF00BF00BF00BF02F04008AF497B
:10089000C1F8140CB8F1000F04D18020AA4914311A
:1008A000086003E08020A849103108604020A64974
:1008B0001031086000BF00BF00BF00BF00BF00BF15
:1008C00000BF00BF02F02009A049C1F8140CB9F123
:1008D000000F04D180209C491431086003E080207F
:1008E000994910310860402097491031086000BFD5
:1008F00000BF00BF00BF00BF00BF00BF00BF02F0CD
:1009000010079249C1F8140C27B980208E49143180
:10091000086003E080208C491031086040208A493B
:100920001031086000BF00BF00BF00BF00BF00BFA4
:1009300000BF00BF02F008068449C1F8140C26B9B4
:10094000802081491431086003E080207E49103105
:10095000086040207C491031086000BF00BF00BF24
:1009600000BF00BF00BF00BF00BF02F00405774911
:10097000C1F8140C25B9802073491431086003E0D4
:10098000802071491031086040206F4910310860A3
:1009900000BF00BF00BF00BF00BF00BF00BF00BF5F
:1009A00002F002046949C1F8140C24B98020664998
:1009B0001431086003E08020634910310860402052
:1009C00061491031086000BF00BF00BF00BF00BF19
:1009D00000BF00BF00BF02F001035C49C1F8140C66
:1009E00023B9802058491431086003E0802056491B
:1009F00010310860402054491031086000BF00BF2A
:100A000000BF00BF00BF00BF00BF00BF4F49C1F81B
:100A1000140CFFF799FEBDE8F08710B54C48047838
:100A200001E0601E84B2002CFBDC402046491031FE
:100A300008604A48047801E0601E84B2002CFBDCA8
:100A4000414808300068C0F3C01340203F49C1F856
:100A5000140CFFF784FE184610BD00B540203A493B
:100A60001031086000BF00BF00BF00BF3748D0F89A
:100A7000080CC0F3C0134020091D0860FFF76FFE8B
:100A8000184600BD70B540202F4914310860FFF7AB
:100A90005BFE2F48037801E0581E83B2002BFBDC7D
:100AA0000026082320E07006060E4020264910315B
:100AB00008602A48047801E0601E84B2002CFBDC48
:100AC000214808300068C0F3C0157019C6B2402034
:100AD0001E49C1F8140C1E48047801E0601E84B25F
:100AE000002CFBDC581E83B2002BDCDCFFF737FE4A
:100AF000304670BD2DE9F04F402013491431086095
:100B0000FFF722FE00BF00BF00BF00BF00BF00BF55
:100B100000BF00BF40200D49C1F8100C0A48083042
:100B20000068C0F3C01B4020C1F8140C00BF00BF18
:100B300000BF00BF00BF00BF00BF00BFC1F8100C66
:100B40000148083000680BE0000C01400000014043
:100B50002D0000202E0000202F0000202C0000205F
:100B6000C0F3C01A4020AD49086000BF00BF00BFFD
:100B700000BF00BF00BF00BF00BFA949C1F8100CF3
:100B8000A6480C380068C0F3C0194020C1F8140C06
:100B900000BF00BF00BF00BF00BF00BF00BF00BF5D
:100BA000C1F8100C9D480C380068C0F3C0184020F4
:100BB0009A49086000BF00BF00BF00BF00BF00BF70
:100BC00000BF00BF9649C1F8100C94480C3800686B
:100BD000C0F3C0174020C1F8140C00BF00BF00BF15
:100BE00000BF00BF00BF00BF00BFC1F8100C8B48A2
:100BF0000C380068C0F3C01640208849086000BF68
:100C000000BF00BF00BF00BF00BF00BF00BF8449DE
:100C1000C1F8100C81480C380068C0F3C0154020A2
:100C20007E49086000BF00BF00BF00BF00BF00BF1B
:100C300000BF00BF7A49C1F8100C78480C38006832
:100C4000C0F3C014402075490860FFF788FD4FEAE3
:100C5000CB1000EB8A1000EB491000EB081000EB02
:100C6000C70000EB860000EB45002044C3B21846E5
:100C7000BDE8F08F4022694B1A606A4A117801E0A2
:100C80004A1E91B20029FBDC18B98022634B1A601E
:100C900003E08022614B1B1F1A60634A117801E058
:100CA0004A1E91B20029FBDC40225C4B1B1F1A60DC
:100CB0007047F0B505460C46FFF760FD5B490978C3
:100CC0004906080EFFF78FFDFFF7A7FE07461FB185
:100CD000FFF76BFD0120F0BD0920FFF784FDFFF752
:100CE0009CFE07461FB1FFF760FD0220F3E70026D8
:100CF0000CE0A05DFFF777FDFFF78FFE07461FB101
:100D0000FFF753FD0320E6E7701CC6B22878B04217
:100D1000EFDCFFF74AFD0120DDE7F0B504460D46A4
:100D2000FFF72CFD414909784906080EFFF75BFDE6
:100D3000FFF773FE06461EB1FFF737FD0120F0BD39
:100D40000A20FFF750FDFFF768FE06461EB1FFF7C9
:100D50002CFD0220F3E7FFF728FDFFF70FFD3349D5
:100D60000978012202EB4101C8B2FFF73CFDFFF711
:100D700054FE06461EB1FFF718FD0320DFE7FFF71C
:100D800081FE20700120FFF775FFFFF70EFDFFF7D2
:100D9000F5FC264909784906080EFFF724FDFFF700
:100DA0003CFE06461EB1FFF700FD1120C7E70920F3
:100DB000FFF719FDFFF731FE06461EB1FFF7F5FC00
:100DC0001220BCE7FFF7F1FCFFF7D8FC17490978C0
:100DD000012202EB4101C8B2FFF705FDFFF71DFE3E
:100DE00006461EB1FFF7E1FC1320A8E7002707E045
:100DF000FFF748FEE8550020FFF73CFF781CC7B21C
:100E00002078401EB842F3DCFFF73CFEE855012095
:100E1000FFF730FFFFF7C9FC012090E7140C0140F9
:100E2000000001402D0000202C0000203100002097
:100E300008B5FFF70CFAFFF759FA3D48007802F0C1
:100E400061FEFFF774FBFFF795FBFFF710FCFFF760
:100E500029FBFFF7B5FBFFF7D9FBFFF72FFC354860
:100E6000FFF744FC3448FFF741FC00BF4FF48070AB
:100E7000324908605AE032480078002856D00020F5
:100E80002F4908702B484079012811D12B48001FA9
:100E9000006810F4807F05D04FF480702749091D49
:100EA000086003E04FF480702449086000F049FCBA
:100EB00024480078012822D100202249087001F03E
:100EC00065FE0821622004F0E7FC1F48007820B18D
:100ED00004F074FB00201C4908700220FFF717FC87
:100EE0006946122004F05AFD9DF8000000F0010050
:100EF000012801D105F0ABFA012001F047FE1348AB
:100F00000078012812D1002010490870104800789C
:100F100060B110480088401C0E49088008460088CF
:100F2000B0F5803F02DB002009490870A3E700000C
:100F3000090000201C00002022000020100C0140AD
:100F400000000020010000200D0000200200002011
:100F50000300002004000020704700BFFEE700BF30
:100F6000FEE700BFFEE700BFFEE77047704770472F
:100F700010B5302001F0E7FB90B1002001F0B2FB8A
:100F80008E48006810F4007F05D04FF400708B4944
:100F90000831086004E04FF400708849091D0860BA
:100FA00010BD704770477047704770477047704773
:100FB0007047704770477047704770477047704779
:100FC0007047704770477047704770477047704769
:100FD0007047704710B5012002F04DF801207849A4
:100FE00008707849087042F2107001F0FFFF01208C
:100FF00001F0CCFD10BD7047704710B50121880786
:1010000002F057FC012806D10121800702F062FCA2
:1010100001206D49087010BD7047704770477047D8
:10102000704770477047704710B540F225516748C8
:1010300000F01DFD002870D06448001D0088C4B277
:1010400040F22551614800F037FD00BF604800794B
:1010500007285DD2DFE800F004121A222B475B005C
:10106000022C07D15A480079401C594908710020C8
:10107000C87002E00020564908714DE055480470E0
:1010800053480079401C5249087145E0514844706A
:101090004F480079401C4E4908713DE04D4884702E
:1010A0004B4884700079401C4949087134E0484835
:1010B000C1788078401C814209DA4548C078C01C5C
:1010C00044490C544248C078401C4149C8704048CB
:1010D000C1788078401C814204D13D480079401C91
:1010E0003B49087118E03A480079401C38490871BA
:1010F000032C08D108460079401C08710120487172
:101100002F49087002E000203149087104E003E033
:1011100000202F49087100BF00BF40F226612B4814
:1011200000F0A5FCD0B140F22661284800F0C4FCD4
:10113000274840782649097888420BDA24484178C4
:101140004078401C224A50702248405C1F49091DCB
:10115000088003E000201E490870487010BD10B5DB
:1011600040F225511C4800F082FC00B100BF40F263
:101170002661194800F07BFCD0B140F22661164888
:1011800000F09AFC154840781449097888420BDA37
:10119000124841784078401C104A50701048405C1A
:1011A0000D49091D088003E000200C4908704870B3
:1011B00010BD704770477047704700000C0C01402D
:1011C00000000020020000200B0000200038014039
:1011D0001C0000206C000020004400402200002081
:1011E0006B01002070B501460846FD2930D006DCB1
:1011F000012809D002280CD023286DD111E0FE2847
:1012000054D0FF2868D13CE00024F94D6C70AC70DC
:1012100063E0FF24F64D6C700124AC70FF24EC7089
:101220005BE00024F24D6C700224AC70F14D2C8810
:10123000E51704EB15652D0AED4EF570ED4D2C8884
:10124000E51704EB15652D12A4EB0525357144E077
:10125000E74CE2780024E64D6C70102A08D1032494
:10126000AC706C24EC7036242C716C246C7107E02B
:10127000112A05D10124DE4DAC70DF4C2478EC70CE
:101280002BE00024DA4D6C70002300BFDBA4E55C8A
:10129000D74EDC1C3555D9A4E45C04B902E05C1CD3
:1012A000E3B2F3E700BFD24CA37016E00024D04DA8
:1012B0006C70002306E0DD4CE55CCD4EDC1C355542
:1012C0005C1CE3B2DA4C2478A342F4DB0024D84D52
:1012D0002C70C74CA37000E000BF00BF70BD10B5FC
:1012E000037844786340847883EA0402002104E0B0
:1012F000C31C5B5C5A404B1CD9B283788B42F7DC31
:101300008178C31C5A540324031D5C54B84B984283
:1013100003D14B1DC74C237005E0C74B984202D147
:101320004B1DC64C237010BDB1480078B04B5B78A4
:101330005840AF4B9B7880EA0302002105E0C81CAF
:10134000AB4B185C4240481CC1B2A9488078884227
:10135000F5DA0AB9002070470120FCE700B5A4487F
:10136000FFF7BDFF0020B34948700220B449088050
:1013700000BD2DE9F843FFF7D7FF012801D1BDE8F3
:10138000F8839B484478512C7BD00FDCA4F11000EB
:10139000142877D2DFE800F02A364D5F788476761D
:1013A00076767676767676769FA8C4E7582C6AD0DD
:1013B00008DCA4F153000528EBD2DFE800F0FDF2D1
:1013C000F1F0EF00592C7DD0FD2C07D0FE2C09D078
:1013D000FF2C57D1FF20FFF705FFB0E1FD20FFF7FD
:1013E00001FFACE1FE20FFF7FDFEA8E18048C078D8
:1013F000814908700846007802F084FB0120FFF75D
:10140000F1FE9CE17A48C07800067949097900EB41
:1014100001407749497900EB01207549897900EB52
:10142000010949468748FEF701FF0120FFF7DAFE70
:1014300085E16F48C7788448B0F800804FF6C770E0
:1014400008EA000848EAC7087F48A0F800800120A1
:10145000FFF7C8FE73E16648C7781FB901207B49D2
:1014600008700AE0002079490870794807707948C7
:10147000077079480770794807700120FFF7B2FEBE
:101480005DE174E05AE136E15948C7780079744962
:101490000870384602F036FB0120FFF7A3FE4EE14C
:1014A0005348C77800790090012F10D0022F0ED03A
:1014B000032F0CD19DF8000028B90821694800F0DD
:1014C000C0FC04E029E10821664800F0B8FC0120D6
:1014D000FFF788FE33E14648C778384604F04CFAF7
:1014E0000120FFF77FFE2AE12321012004F075FA95
:1014F000054641F2CA2803E0A8F101001FFA80F86E
:10150000B8F1000FF8DC002004F036FA012D03D00A
:101510000220FFF767FE02E00120FFF763FE0EE105
:101520003348C1780B2004F058FA054641F2CA2826
:1015300003E0A8F101001FFA80F8B8F1000FF8DC11
:10154000002004F019FA00202A49088001204649A9
:101550000870012D03D00220FFF744FE02E00120B5
:10156000FFF740FEEBE02320FFF73CFEE7E02048DA
:10157000067916F0400F06D006F03F00694604F0E9
:101580000DFA054604E06946304602F03AFC05468D
:10159000012D08D00220FFF725FE0CE09AE087E03D
:1015A00077E067E008E0002011494870012088706A
:1015B0009DF80000C870C2E00D480679407900909F
:1015C00016F0400F07D006F03F009DF8001004F021
:1015D00004FA054605E09DF80010304602F023FEAF
:1015E0000546012D42D00220FFF7FCFD41E000003E
:1015F0006C0000200400002009000020464D33321A
:10160000302053616D706C652050726F2056302E03
:1016100030310D546573742050726F6772616D0DB7
:10162000323031332D31312D32310000EB010020C9
:10163000060000201C0000206B010020220000207A
:1016400004380140004400400030014030000020D8
:101650002C0000202D0000202E0000202F00002054
:101660003100002000080140030000200120FFF7A6
:10167000B9FD64E04949481EFFF74FFB05460020CD
:101680004649C91E4870012D02D00220FFF7AAFD6D
:1016900055E04249481EFFF70CFB0546012D03D0DB
:1016A0000220FFF79FFD02E00120FFF79BFD46E0CF
:1016B0003A49C91E8878C91C02F0FAFF0546012D77
:1016C00003D00220FFF78EFD03E000203349C91E3E
:1016D000487034E03149C91E8878C91C03F047F8C6
:1016E0000546012D03D00220FFF77CFD02E001201A
:1016F000FFF778FD23E02949C91E8878C91C03F04B
:1017000069F80546012D03D00220FFF76BFD03E0C9
:1017100000202249C91E487011E02049C91E88785E
:10172000C91C03F06DF80546012D03D00220FFF718
:1017300059FD02E00120FFF755FD00E000BF00BFAA
:101740001DE610B5FFF715FE002015494871C87059
:101750000871FFF703FE10BD00B5FF20FFF742FD43
:1017600000200F494871C8700871FFF7F7FD00BDF0
:1017700000B500200B494871C87008710A48FFF78E
:10178000AEFD00200649487002200849088000BDCF
:10179000014600BF00BF00BF704700006F0000207F
:1017A0001C000020220000206B01002004440040A7
:1017B00010B50446C64820180FD0B0F5806F16D07B
:1017C000B0F5744F1DD10121880300F029FF0021DD
:1017D0004FF4804000F024FF14E00121480400F0A1
:1017E0002CFF00214FF4003000F027FF0AE0012118
:1017F000880400F022FF00214FF4802000F01DFF3C
:1018000000E000BF00BF10BD2DE9F04385B00446E5
:101810000D460026002700BF00BF268A4CF2FF00BD
:101820000640E888E9890843298A0843698A084309
:10183000A98A0843064326820026A6894EF6F3109D
:101840000640A88829890843A98908430643A68138
:101850000026A68A4FF6FF40064068890643A68206
:1018600000BF684600F054FE9A48844201D1039FAD
:1018700000E0029F07EBC70000EB07102968890012
:10188000B0FBF1F86420B8FBF0F0060130096421E8
:1018900001FB1089322101EB09106421B0FBF1F04A
:1018A00000F00F000643268105B0BDE8F0834FF439
:1018B0001651016000218180C180018141810C218C
:1018C00081810021C181018241828182704721B1E1
:1018D000828942F40052828104E082894DF6FF73CE
:1018E0001A4082817047F0B50023002400250026AD
:1018F000C1F3421301F01F04012707FA04F506465D
:10190000012B01D10C3604E0022B01D1103600E08E
:1019100014361AB137682F43376002E03768AF4397
:101920003760F0BD10B51AB1838A0B43838204E09F
:10193000838ACC43A4B22340838210BD028A4FF62F
:10194000F0731A400282028A0A4302827047828937
:101950004FF2FF731A40828182890A438281704765
:1019600021B1828942F00202828104E082894FF62D
:10197000FD731A4082817047028A4FF6DF731A4066
:101980000282028A0A430282704721B1028A42F42B
:101990008042028204E0028A4BF6FF731A40028200
:1019A0007047C1F308028280704701468888C0F3FF
:1019B00008007047818941F0010181817047028BE5
:1019C000D2B20283028B42EA012202837047028B69
:1019D00002F47F420283028B0A430283704721B1E3
:1019E000828A42F02002828204E0828A4FF6DF730C
:1019F0001A408282704721B1828A42F010028282AC
:101A000004E0828A4FF6EF731A408282704721B158
:101A1000828A42F00802828204E0828A4FF6F773DB
:101A20001A4082827047828A4FF6FB731A40828284
:101A3000828A0A438282704721B1828A42F002027E
:101A4000828204E0828A4FF6FD731A4082827047D8
:101A50000246002013880B4201D0012000E0002044
:101A600070470288CB439BB21A400280704770B522
:101A700002460023002400250020C1F3421501F096
:101A80001F04012606FA04F4012D02D19689344080
:101A900006E0022D02D1168A344001E0968A3440D5
:101AA0000B12012606FA03F31688334014B10BB16A
:101AB000012000E0002070BD10B5002200230A12B2
:101AC000012404FA02F304889C43048010BD000042
:101AD00000BCFFBF00380140002048490860484969
:101AE000C1F80404454908310860091D08604548EB
:101AF0004249143108607047817979B30179404ACD
:101B00001144D1F800140268114302793C4B1A4485
:101B1000C2F800141946D1F80814026891431A4615
:101B2000C2F808141146D1F80C1402689143334AE4
:101B30000C3211604179102911D11946D1F80814DD
:101B4000026811431A46C2F808141146D1F80C1461
:101B5000026811431A46C2F80C1419E00CE04179EE
:101B6000274A1144D1F80014026811434279244BEA
:101B70001A44C2F800140BE00179214A1144D1F84B
:101B800000140268914302791D4B1A44C2F80014F4
:101B900070470021016001710C21417100218171A8
:101BA00070471649103109680143154AC2F81014EC
:101BB000704701460020114A143212680A4201D0CF
:101BC000012000E0002070470C4914310860704784
:101BD000014600200022094B1B6803EA0102084B62
:101BE000D3F814340B4202D00AB1012000E00020E7
:101BF000704702491431086070470000000401403A
:101C000000000140FFFF07001049096801F038019A
:101C10000E4A1160114609680143116070470B4973
:101C2000096821F00801094A116011460968014359
:101C3000116070470549096821F01001034A1160DD
:101C400011460968014311607047000000200240FE
:101C500010B50446AF49601A8C4220D006DCAE486D
:101C600020180AD0B0F5806F34D10FE0B0F5806F46
:101C70001ED0B0F5006F2DD123E00121042000F02B
:101C8000CFFC0021042000F0CBFC24E0012108203F
:101C900000F0C6FC0021082000F0C2FC1BE001217E
:101CA000102000F0BDFC0021102000F0B9FC12E073
:101CB0000121202000F0B4FC0021202000F0B0FC25
:101CC00009E00121402000F0ABFC0021402000F0A1
:101CD000A7FC00E000BF00BF10BD10B50121084601
:101CE00000F09EFC0021012000F09AFC10BDF0B530
:101CF00000220023002400250026002791F803C0BD
:101D00000CF00F0291F803C01CF0100F03D091F8F3
:101D100002C04CEA0202B1F800C01CF0FF0F31D043
:101D2000066800242AE04FF0010C0CFA04F5B1F823
:101D300000C00CEA0503AB421FD1A5004FF00F0C09
:101D40000CFA05F7BE4302FA05FC4CEA060691F8C8
:101D500003C0BCF1280F05D14FF0010C0CFA04FCB4
:101D6000C0F814C091F803C0BCF1480F05D14FF082
:101D7000010C0CFA04FCC0F810C0641C082CD2D36F
:101D800006600026B1F800C0BCF1FF0F34DD4668E4
:101D900000242EE004F1080C4FF0010E0EFA0CF5B1
:101DA000B1F800C00CEA0503AB4221D1A5004FF009
:101DB0000F0C0CFA05F7BE4302FA05FC4CEA0606C6
:101DC00091F803C0BCF1280F05D104F1080C0EFAFC
:101DD0000CFEC0F814E091F803C0BCF1480F07D125
:101DE00004F1080C4FF0010E0EFA0CFEC0F810E0E2
:101DF000641C082CCED34660F0BD4FF6FF71018005
:101E0000022181700421C17070470246002093684E
:101E10000B4201D0012000E0002070470146886895
:101E200080B2704702460020D3680B4201D00120E7
:101E300000E0002070470146C86880B27047016129
:101E40007047416170470AB1016100E0416170472C
:101E5000C16070474FF480320A43826181618261C0
:101E600082698269704700222C4B1A684FF6807392
:101E70001A4042EA00120A43284B1A607047284968
:101E8000C861704770B50022002500230024234E4E
:101E90007368C0F3034482B200F40016B6F5001F65
:101EA00002D123F0E0630AE000F48016B6F5801F4B
:101EB00004D1032606FA04F5AB4300E0934341B195
:101EC00000F40016B6F5001F02D143EA024300E019
:101ED0001343124E736070BD30B500228B071C0F88
:101EE0000F2303FA04F20D4B08338C1053F82440EF
:101EF00094438D1043F825408C1053F824308C0700
:101F0000240F00FA04F42343044C08348D1044F8E1
:101F1000253030BD0010014000F8FEBF0000014038
:101F2000000020420020411EF24A11604A0DF14992
:101F30008039C1F88420411E4FF0E022C2F880129F
:101F40004A0DED490A6000BF04E00022EB4941F868
:101F50002020401C0B28F8D3704700204FF0206150
:101F6000E74A116000214FF0E022C2F8081DE54960
:101F7000E34A083211600021121D1160121D116028
:101F800000BF05E00022DE49143141F82020401C4A
:101F90000328F7D30021DA4A20321160491E4FF09E
:101FA000E022C2F8281DD64A283211604FF0E02204
:101FB000C2F8301D7047D3490143D14A083211603D
:101FC0007047F0B500210022002300240F25C678B9
:101FD000002E36D0CA4E0836366806F4E066C6F5DE
:101FE000E066310AC1F10404CD40467806FA04F1F6
:101FF00086782E40314309010678B607F60EB140C7
:10200000BE4E0778BF1056F827200678B607F70EA1
:10201000FF2606FA07F39A4319400A43B74E07789A
:10202000BF1046F82720067806F01F070126BE409D
:1020300007787F114FF0E02C0CEB8707C7F80061A1
:102040000BE0067806F01F060127B740A94E90F86E
:1020500000C04FEA6C1C46F82C70F0BD00210170E6
:1020600041708170C170704710B5FEF7B2F810BDB5
:1020700010B5FEF7B0F810BD10B5FEF7AEF810BD04
:1020800010B5FEF7ACF810BD10B504462001FEF700
:10209000A8F810BD10B5FEF7A7F810BD9848006865
:1020A000C0F30930704710B501460020002201F04E
:1020B0001F04012303FA04F28E4B80334C1153F8B2
:1020C00024301340934201D1012000E0002010BDD4
:1020D0008D490860704700F01F0101228A4086493F
:1020E000091F431141F82320704785480068C0F359
:1020F0000900704710B501460020002201F01F04BE
:10210000012303FA04F27C4B7C334C1153F8243046
:102110001340934201D1012000E0002010BD784817
:10212000001F00687047794A0A400243744B1B1D28
:102130001A6070477348001D714908310860704784
:102140007048401C6E4908310860704741B16C4AC4
:102150000C32126802434FF0E023C3F8102D07E061
:10216000674A0C32126882434FF0E023C3F8102D07
:10217000704710B5002200F01F04012303FA04F297
:1021800041B15F4B20331B6813434FF0E024C4F888
:10219000243D07E05A4B20331B6893434FF0E02463
:1021A000C4F8243D10BDF0B50023FF24002500260F
:1021B000534F08373F6807F4E067C7F5E0673E0A0A
:1021C000C6F10403F44001FA03F602EA04073E43B1
:1021D000360100F0C0039B09C0F30124E700BE40B4
:1021E0004FEAC40CFF2707FA0CF5454F143757F890
:1021F00023C02CEA050C47F823C057F823C04CEA4B
:10220000060C47F823C0F0BD10B50146002000229F
:1022100000238B0A03F00F03012404FA03F3384C64
:102220002034246804EA03029A4201D1012000E02C
:10223000002010BD002100F01F01314A1368012267
:102240008A4013434FF0E022C2F8043D704710B5B6
:10225000002100F01F012A4A13684C1E0122A240EF
:1022600013434FF0E022C2F8043D10BD10B5014603
:10227000002000230022C1F38332012404FA02F279
:102280001F4C2034246804EA0203934201D1012048
:1022900000E0002010BD30B50146002000220023E0
:1022A000C1F38142C1F301531AB9154C2834206897
:1022B00011E0012A0CD1124C24342468DD0024FAE8
:1022C00005F0022B02D000F00F0004E0C0B202E0E3
:1022D0000B4C2C34206830BD014600200022C1F395
:1022E00080521AB9064B3033186802E0044B34337D
:1022F0001868704780E100E084E200E000E400E05C
:1023000004ED00E00000FA0500EF00E080FFFF1F91
:102310000020DF49C86008611420486100208861FE
:10232000C8610846006840F001000860084640683F
:10233000D8490840D649486008460068D649084050
:10234000D34908600846006820F4802008600846E9
:10235000406820F4FE004860002088607047CC4947
:10236000096821F48031CA4A11601146096821F4D4
:1023700080211160B0F5803F03D0B0F5802F0ED1E1
:1023800006E0C349096841F48031C14A116007E0A1
:10239000BF49096841F4A021BD4A116000E000BFB7
:1023A00000BF704710B501460022002300204A11EB
:1023B000012A02D1B64C236806E0022A02D1B44CAD
:1023C000236A01E0B24C636A01F01F0201249440C9
:1023D0001C4201D0012000E0002010BD00B500BF6C
:1023E0003120FFF7DFFFAD490870081F0068401C6F
:1023F000091F0860081D007818B908460068FF2802
:10240000EED13120FFF7CEFF08B1012000BD002042
:10241000FCE700219E4A116821F0F80141EAC00161
:10242000116070479E49086070470022984B5A68B7
:1024300022F47C1240EA01031A43954B5A6070471C
:102440009749086670470021914A516821F00301BD
:102450000143516070478E48406800F00C0070479F
:1024600000218B4A516821F0F0010143516070470F
:102470000021874A516821F4E061014351607047AF
:102480000021834A516821F4605141EAC001516042
:10249000704729B17E4A527A02437D4B5A7204E05A
:1024A0007B4A527A82437A4B5A7270477C49D831C0
:1024B000086070470021764A516821F44041014389
:1024C000516070470021724A20321170704A82F8C0
:1024D0002010012802D004280AD104E001216C4A0E
:1024E0002032117005E00521694A2032117000E0A8
:1024F00000BF00BF70476B49086070476449096AB4
:102500000143634A11627047664944390860704765
:1025100030B500210022002300245D4D6D6805F0D8
:102520000C0121B1042905D0082923D105E05E4D15
:10253000056022E05C4D05601FE0554D6D6805F4B7
:102540007012022505EB9242514D6D6805F48033FF
:102550001BB9564D554305600BE04D4D6D6815F4A4
:10256000003F03D0514D5543056002E04E4D5543A9
:10257000056002E04C4D056000BF00BF444D6D6832
:1025800005F0F00109094A4D6C5C0568E5404560BD
:102590003F4D6D6805F4E061090A454D6C5C456886
:1025A000E54085603A4D6D6805F46051C90A404DBB
:1025B0006C5C4568E540C560354D6D6805F440418B
:1025C000890B3B4D10356C5CC568B5FBF4F50561B6
:1025D00030BD29B12E4A526902432D4B5A6104E0A5
:1025E0002B4A526982432A4B5A61704729B1284AC3
:1025F00092690243264B9A6104E0254A926982431C
:10260000234B9A61704729B1214AD2690243204B7A
:10261000DA6104E01E4AD26982431D4BDA617047D9
:1026200029B11B4AD2680243194BDA6004E0184A08
:10263000D2688243164BDA60704729B1144A126996
:102640000243134B1A6104E0114A12698243104B92
:102650001A61704713494039086070471049C864CF
:1026600070470B49C87170470948406A40F0807054
:1026700007494862704701460020054A92680A42AD
:1026800001D0012000E000207047014988727047A6
:10269000001002400000FFF8FFFFF6FE38000020A7
:1026A000000042428004424200127A0000093D00CC
:1026B00032660008042808D14FF0E021096941F092
:1026C00004014FF0E022116107E04FF0E0210969B9
:1026D00021F004014FF0E022116170474FF0E0213A
:1026E0004861704720B900214FF0E022916112E06B
:1026F000012808D14FF0E021096941F001014FF0B4
:10270000E022116107E04FF0E021096921F00101A9
:102710004FF0E0221161704740B14FF0E0210969AC
:1027200041F002014FF0E022116107E04FF0E0219B
:10273000096921F002014FF0E022116170474FF06A
:10274000E0208069704710B5014600220023002078
:102750004A11012A03D14FF0E024236902E04FF02F
:10276000E024E36901F01F02012494401C4201D0DF
:10277000012000E0002010BD10B50121C802FFF7C4
:102780004FFF00214FF40060FFF74AFF10BD818822
:10279000FA4A11800188FA4AA2F8281C1146B1F8B9
:1027A000001C01F09F01F54A2C3A1180C188428833
:1027B0001143F34AB2F8002C1143F04A2C3A11802D
:1027C000017AEE4A121D118070470021EB4A143A3B
:1027D00011880022EB4BC3F8002401F47F410288EA
:1027E0001143E64A143A11804288E74B1A60828806
:1027F000E54B08331A6002891B1F1A604289E24BBD
:102800000C331A608289DF4BA0331A60C2891B1D0A
:102810001A60C288DA4BA3F8342C70470021D74ADB
:10282000143A11880022D74BC3F81024C9B2028889
:1028300041EA0221D14B143B19804288D24B10331C
:102840001A608288D04B18331A6002891B1F1A60E5
:102850004289CD4B1C331A608289CA4BA8331A6057
:10286000C2891B1D1A60C288C54BA3F8382C70475B
:102870000021C24A103A11880022C24BC3F820241A
:1028800001F47F4102881143BC4A103A118042880A
:10289000BD4B20331A608288BB4B28331A600289F3
:1028A0001B1F1A604289B84B2C331A608289B54BC2
:1028B000B0331A60C2891B1D1A60C288B04BA3F8DE
:1028C0003C2C70470021AD4A103A11880022AD4BD4
:1028D000C3F83024C9B2028841EA0221A74B103B59
:1028E00019804288A84B30331A6002891B1D1A6078
:1028F0008289A44BB8331A60C288A04B14331A8063
:10290000704700219D4A18321188028843881A4373
:1029100083881A43C3881A4303891A4343891A4395
:10292000838942EA0301964AA2F8441C70470021B9
:10293000924A103A11884FF2FF321140020641EAE2
:1029400012418F4AA2F81C1C704730B500238B4CF3
:10295000103C238800248B4DC5F8304440F6FF44DA
:1029600023400C06240C150744EA15442343844CE9
:10297000A4F81C3C844C343420600124824D303552
:102980002C6030BD00217D4A103A11884FF6F37259
:10299000114001437A4AA2F81C1C704730B500234D
:1029A000764C103C23880024764DC5F820444FF621
:1029B0000C74234041EA02142343714CA4F81C3CDC
:1029C000714C2434206001246F4D20352C6030BDC3
:1029D00000216A4A143A11884FF2FF321140020670
:1029E00041EA1241664AA2F8181C704730B500232C
:1029F000624C143C23880024624DC5F8104440F614
:102A0000FF4423400C06240C150744EA15442343D5
:102A10005B4CA4F8183C5C4C1434206001245A4DE3
:102A200010352C6030BD0021544A143A11884FF6FD
:102A3000F37211400143524AA2F8181C704730B596
:102A400000234E4C143C238800244E4DC5F800440E
:102A50004FF60C74234041EA02142343484CA4F877
:102A6000183C494C241D20600124474D2C6030BD8A
:102A700010B50446208840B9227AA1886088FFF703
:102A8000DEFFE088FFF7CFFF1FE02088012808D194
:102A9000227AA1886088FFF7A9FFE088FFF798FFF6
:102AA00013E02088022808D1227AA1886088FFF7E5
:102AB00075FFE088FFF766FF07E0227AA18860884B
:102AC000FFF743FFE088FFF732FF10BD70B5044603
:102AD00000250126608808B9012500E00025A088AE
:102AE000012801D1022600E00126208880B9227A3F
:102AF000A1886088FFF7A3FFE088FFF794FF227AA0
:102B000031462846FFF772FFE088FFF761FF0FE0CC
:102B1000227AA1886088FFF769FFE088FFF758FFF5
:102B2000227A31462846FFF78AFFE088FFF77BFFCD
:102B300070BD0021018041808180C180018141817F
:102B40008181C181704700210180012181800021A4
:102B50004180C180017270474FF6FF718180002172
:102B60000180C18041800172704700210180418055
:102B70008180C18001814181818170472C2C01407D
:102B8000002001400080254200842542FC49086065
:102B90007047FC4908607047012906D1FA4A12883B
:102BA0000243FA4BA3F80C2C07E0F74A1288C34300
:102BB0009BB21A40F54BA3F80C2C70470022F24B45
:102BC0003C331A88002240EA01031A43EF4BA3F872
:102BD000482C704710B50022EB4B1A88012901D10F
:102BE000024302E0C3439BB21A40E74C228010BD6F
:102BF000E548001F00884FF6F0710840E349A1F84E
:102C0000080C704730B50023DF4C241F238844F2A2
:102C1000F704234040EA0104150644EA154423431F
:102C2000DA4CA4F8083C30BD70B504460D46164693
:102C3000324629462046FFF7E5FFD348001F0088AB
:102C40004FF6F0710840D149A1F8080C0846B0F8D9
:102C5000080C40F00700A1F8080CCB48001F0088C2
:102C60004FF687710840C949A1F8080C0846B0F82A
:102C7000080C40F07000A1F8080C70BD70B5044657
:102C80000D461646324629462046FFF7BBFF012077
:102C9000BF49086070BD0021BB4A121F11884FF662
:102CA000877211400143B94AA2F8081C704700B569
:102CB00003461846FFF7EFFFB348001F008840F0B7
:102CC0000700B249A1F8080C00BD70B504460D46D6
:102CD0001646602C05D1324601212846FFF786FEB4
:102CE00004E0324601212846FFF7A9FE2046FFF7FF
:102CF000D2FFA548001F008840F00700A349A1F8B3
:102D0000080C70BD9E49486070479D4988607047B7
:102D10009B499C31086070479949C8607047002101
:102D2000994A083A118801F080010143974AA2F8B4
:102D3000041C70470021944A121F11884FF6F0724C
:102D400011400143914AA2F8081C704790491C3970
:102D50000860704730B51346002200248A4D2D1FAD
:102D60002A888A4DB5F8184C4FF6F0752A40024370
:102D70004FF6FC452C4040F201152C43804DC5F820
:102D80000414C5F81434814DA5F8082CA5F8184C86
:102D900030BD7D4A1C321080794AC2F880127047DB
:102DA0000021794A0C3A118840F29F3211400143C8
:102DB000764AA2F8001C70470021734A0C32118831
:102DC00047F60F7211400143704AA2F8181C704771
:102DD00000216D4A0C32118840F67F72114041EAA1
:102DE00000216A4BA3F8181C70470021664A103274
:102DF000118847F60F7211400143644AA2F81C1C67
:102E000070470021604A0C32118840F67F721140F1
:102E1000020641EA12415D4AA2F81C1C704758495B
:102E2000C8617047564988310860704754498C31F1
:102E30000860704752498031086070475549086002
:102E4000704754492031086070475249803108600A
:102E500070475049A031086070474E49091F08600B
:102E600070474C491C31086070474A497C31086002
:102E7000704748499C3108607047464910310860E6
:102E800070474449303108607047424990310860CA
:102E900070474049B031086070473B4908310988A4
:102EA00001433A4AA2F8141C70473A49F8310860C5
:102EB00070473949086070473749083108607047E2
:102EC0003549103108607047334918310860704740
:102ED00031492031086070472F4928310860704718
:102EE00018B92D4A0C3A11600EE0012803D12A4A84
:102EF000121D116008E0022803D1274A1432116024
:102F000002E0254A24321160704718B9224A121F84
:102F1000116008E0012803D11F4A0C32116002E061
:102F20001D4A1C321160704798B900221A4B0C3BA5
:102F30001A60164AB2F8182C02F47F42134BA3F819
:102F4000182C1A46B2F8182C0A430F4B0C331A806F
:102F50004BE0012822D100220F4B1B1D1A600B4AA7
:102F6000B2F8182CD2B2094BA3F8182C1A46B2F8B2
:102F7000182C0B0642EA1342034B0C331A8034E040
:102F800000802542BC8825420C2C014000200140D5
:102F9000388125420C8325420C842542022811D118
:102FA0000022494B1A60494AB2F81C2C02F47F42B5
:102FB000464BA3F81C2C1A46B2F81C2C0A43444B6F
:102FC0001A8012E00022404B10331A603F4AB2F8D8
:102FD0001C2CD2B23D4BA3F81C2C1A46B2F81C2C68
:102FE0000B0642EA13423A4B1A80704738490831BF
:102FF00008807047364910310880704734491831CD
:103000000880704732491C310880704730492031B0
:10301000088070472E4924310880704700212C4ACF
:103020001C3A1188C9B20143284AA2F8001C704713
:10303000274818300088704725481C3000887047A2
:10304000234820300088704721482430008870478A
:103050001F480830008870471D480C3000887047B2
:10306000014600201A4A0C3A12880A4201D0012077
:1030700000E00020704716490C390988C24392B21B
:103080001140124AA2F8101C704710B501460020EA
:10309000002200230E4C0C3C248804EA01020B4C55
:1030A000B4F80C4C04EA010312B10BB1012000E0AA
:1030B000002010BD06490C390988C24392B2114064
:1030C000024AA2F8101C70472084254200200140CB
:1030D0001C2C014010B50446B4F1804F06D0F948CD
:1030E00020180CD0B0F5806F1BD111E001210846EB
:1030F000FFF7A3FA00210120FFF79FFA12E0012158
:103100000220FFF79AFA00210220FFF796FA09E061
:1031100001210420FFF791FA00210420FFF78DFA26
:1031200000E000BF00BF10BD0A8882854A88028582
:10313000028802F08F0202808A88CB881A430388B3
:103140001A430280704730B500220023038C4C885C
:1031500014B14C88012C2BD1028B4C88DA4D35F8F8
:10316000144022404C88083535F8144023404C88E0
:103170006CB9048C43F232352C4004840C88224311
:103180008C88848643F00103CC8823430EE0048CB2
:1031900043F223352C4004840C8842EA04228C88B4
:1031A000048743F01003CC8843EA0413028333E01E
:1031B0004C88022C02D04C88032C2DD1828B4C8859
:1031C000C14D35F8144022404C88083535F814407C
:1031D00023404C88022C0ED1048C43F233252C4022
:1031E00004840C8822438C88848743F48073CC88C1
:1031F00043EA04230FE0048C42F233352C4004846C
:103200000C8842EA04228C88A0F8404043F48053A2
:10321000CC8843EA04338283038430BD0022028BCE
:103220004FF6F3731A400A4302837047F0B5002447
:103230000025048B058C068C43F232373E40068411
:103240004FF60C76344042EA03163443BE1E354036
:1032500041F0010635430026068304830584F0BD52
:103260000022028B4FF2FF331A400B0642EA134250
:1032700002837047F0B5002400250026048B058CDE
:103280000F053E0C078C43F2233C07EA0C0707842A
:1032900040F6FF473C401F0744EA1744170644EA3C
:1032A000174443F203373D4046F010073D43048383
:1032B0000584F0BD2DE9F04104460D4600260127A6
:1032C000A88808B9022600E00026E888012801D174
:1032D000022700E001276888A0B9AB7AEA88A988AC
:1032E0002046FFF7A3FF29892046FFF797FFAB7A17
:1032F0003A4631462046FFF7BDFF29892046FFF7B1
:10330000AFFF13E0AB7AEA88A9882046FFF7B2FF47
:1033100029892046FFF7A4FFAB7A3A46314620467A
:10332000FFF784FF29892046FFF778FFBDE8F08189
:103330000022828B4FF2FF331A400B0642EA1342FF
:1033400082837047F0B5002400250026848B058C0D
:103350000F073E0C078C42F2333C07EA0C07078448
:1033600040F6FF473C4017063F0C4FEA037C47EA14
:103370001C473C4340F233373D4046F480573D43C1
:1033800084830584F0BD0022828B4FF6F3731A40CC
:103390000A4382837047F0B5002400250026848B01
:1033A000058C0F063E0C078C43F2332C07EA0C0702
:1033B00007844FF60C773C4042EA03173C4343F244
:1033C00033073D4046F480773D4384830584F0BD58
:1033D00070B504460D462888072833D1688850B94F
:1033E000AB7AEA88A9882046FFF720FF2989204682
:1033F000FFF714FF2AE0688801280AD1AB7AEA882F
:10340000A9882046FFF736FF29892046FFF728FFC5
:103410001CE0688802280AD1AB7AEA88A98820468D
:10342000FFF7B9FF29892046FFF7ADFF0EE0AB7A21
:10343000EA88A9882046FFF785FF29892046FFF7FB
:1034400077FF03E029462046FFF734FF70BD0021D7
:10345000018041808180C1807047002101804180CE
:103460008180C180704707210180002141808180D7
:103470000121C180002101818172704721B1028840
:1034800042F00102028004E0028840F2FE331A405A
:103490000280704710B51AB183890B43838104E021
:1034A0008389CC43A4B22340838110BD10B5134659
:1034B0000022B0F84820002241EA03042243A0F889
:1034C000482010BD00FCFFBF4666000810B5002371
:1034D00083890AB10B4302E0CC43A4B22340838129
:1034E00010BD01894FF6F072114001817047002232
:1034F00002894FF687731A400A430281704730B53C
:1035000004460D4629462046FFF7F1FF208940F08A
:103510000700208130BD2DE9F04104460D461646D6
:103520001F46602D06D13B46012231462046FFF75B
:10353000A1FE05E03B46012231462046FFF776FE1C
:1035400029462046FFF7D3FF208940F0070020815D
:10355000BDE8F08170B50024048904F0F70441EA65
:10356000020545EA03252C43048170BDF0B50446ED
:103570000D4616461F463B46324629462046FFF773
:10358000E9FF20894FF6F07108402081208940F042
:103590000700208120894FF687710840208120890B
:1035A00040F070002081F0BDF0B504460D4616468F
:1035B0001F463B46324629462046FFF7CBFF20896F
:1035C00040F480402081F0BD0185012A04D1838A26
:1035D00043F00103838203E0838A03F001038382C3
:1035E00070470022028840F28F331A400A4302805B
:1035F00070470022028B4FF68F731A400A430283F2
:1036000070470022028B48F6FF731A400B0642EA0D
:103610001342028370470022828B4FF68F731A4049
:103620000A43828370470022828B48F6FF731A4058
:103630000B0642EA1342828370470022028811B1CE
:1036400042F0800202E040F27F331A40028070476D
:103650000022828811B142F0080201E002F0F0027B
:10366000828070470022028B4FF6F7731A400A439C
:10367000028370470022028B4FF2FF731A400B0641
:1036800042EA1342028370470022828B4FF6F7739F
:103690001A400A43828370470022828B4FF2FF73E5
:1036A0001A400B0642EA1342828370470022028BC3
:1036B0004FF6FB731A400A43028370470022028BC5
:1036C0004FF6FF331A400B0642EA1342028370475B
:1036D0000022828B4FF6FB731A400A4382837047A5
:1036E0000022828B4FF6FF331A400B0642EA134248
:1036F000828370470022028B4FF67F731A400A4381
:10370000028370470022028BC2F30E020B0642EACC
:103710001342028370470022828B4FF67F731A4058
:103720000A43828370470022828BC2F30E020B068B
:1037300042EA1342828370470022028811B142F0AC
:10374000020202E040F2FD331A4002807047F0B5F9
:103750000024002500260489058B068C4FF6F0779F
:103760003C400C434FF6FC473D4040F201173D43BF
:1037700043F211373E401F0542EA17473E4304819A
:1037800005830684F0BD828A0A4382827047002244
:10379000028C43F231331A400A43028470470022FC
:1037A000028C43F213331A400B0542EA134202849F
:1037B00070470022028C43F233131A400B0642EA90
:1037C0001342028470470022028C41F233331A40C4
:1037D0000B0742EA13420284704700220288012943
:1037E00002D142F0040202E040F2FB331A400280B0
:1037F000704721B1828842F08002828004E0828892
:103800004FF670731A40828070470022028840F29F
:10381000F7331A400A43028070470022828802F080
:1038200080020A4382807047002202894FF6F073BB
:103830001A400A4302817047002202894FF67773CB
:103840001A400A430281704781847047818570471E
:10385000818670470187704781877047A0F84010C4
:10386000704700220288D2B20A43028070470146A4
:10387000888E70470146088F70470146888F7047D1
:103880000146B1F8400070470146888C70470146F8
:10389000088D704702460020138A0B4201D0012098
:1038A00000E000207047028ACB439BB21A4002829C
:1038B000704730B50246002000230024158A05EA2F
:1038C0000103958905EA010413B10CB1012000E060
:1038D000002030BD028ACB439BB21A40028270475F
:1038E00010B50446864820180CD0B0F5784F13D197
:1038F00001210803FEF794FE00214FF48050FEF7EB
:103900008FFE0AE001218803FEF797FE00214FF4A5
:103910008040FEF792FE00E000BF00BF10BD10B572
:103920000022028802F441520B884C8823438C8881
:103930002343CC8823430C8923434C8923438C891C
:103940002343CC8923431A4302800B8A038210BD90
:103950000021018041808180C1800181418181817C
:10396000C18107210182704721B1028842F04002E3
:10397000028004E002884FF6BF731A40028070474D
:1039800070B5002300240B1101259D40ACB21AB183
:1039900085882543858004E08588E643B6B23540B6
:1039A000858070BD10B51AB183880B43838004E015
:1039B0008388CC43A4B22340838010BD81817047AB
:1039C000014688897047A1F57E42FF3A04D00288FB
:1039D00042F48072028004E002884FF6FF631A40CE
:1039E0000280704721B1828842F00402828004E0A4
:1039F00082884FF6FB731A408280704702884FF22C
:103A0000FF731A40028002880A43028070470188CF
:103A100041F480510180704721B1028842F4005284
:103A2000028004E002884DF6FF731A40028070475E
:103A300002460020012901D0108B00E0908A7047D7
:103A40000146088A7047B1F5804F04D1028842F4DC
:103A50008042028004E002884BF6FF731A40028025
:103A600070470246002013890B4201D0012000E07C
:103A700000207047202905D10289028842F04002C7
:103A8000028008E0402901D1028904E00289CB4389
:103A90009BB21A4002817047F0B502460020002315
:103AA0000024002501F00F070126BE40B3B20C111F
:103AB0000126A640B4B2968806EA040516891E427D
:103AC00002D00DB1012000E00020F0BD10B50022B1
:103AD000552905D10389038843F0400303800DE095
:103AE000562901D1038909E001F00F040123A34005
:103AF0009AB20389D443A4B22340038110BD0000CD
:103B000000C8FFBF10B504464FF40041FD48FEF762
:103B100098F9C021FC48FEF794F94FF40071F94878
:103B2000FEF78FF9052C7ED008DC012C0DD0022C7D
:103B30001AD0032C78D0042C77D1D6E0062C75D07F
:103B4000072C74D0202CF7D176E03F21EE48FEF709
:103B500078F94FF40061EB48FEF771F94FF480619A
:103B6000E848FEF76CF945E18021E748FEF767F980
:103B70003C21E548FEF765F90321E348FEF75FF9CC
:103B80004FF40061DF48FEF75AF94FF48061DD48D9
:103B9000FEF755F97F21DB48FEF753F9DB48007843
:103BA00010F0400F03D00121D648FEF748F9D7485E
:103BB000007810F0200F03D00221D248FEF73FF921
:103BC000D248007810F0100F03D00421CD48FEF742
:103BD00036F9CE48007810F0080F03D00821C94804
:103BE000FEF72DF9C948007810F0040F03D010211A
:103BF000C448FEF724F9C548007810F0020F03D03E
:103C00002021C048FEF71BF9C048007810F0010FD2
:103C100003D04021BB48FEF712F98021BC48FEF7D3
:103C20000EF9402104E07DE044E0E2E09FE0BBE0EB
:103C3000B748FEF704F9DDE08021B348FEF7FFF84E
:103C40003D21B148FEF7FDF80221AF48FEF7F7F835
:103C50004FF40061AB48FEF7F2F84FF48061A948D9
:103C6000FEF7EDF87F21A748FEF7EBF8A7480078AC
:103C700010F0040F03D01021A248FEF7E0F8A3488B
:103C8000007810F0020F03D020219E48FEF7D7F8ED
:103C90009E48007810F0010F03D040219948FEF7AC
:103CA000CEF880219A48FEF7CAF840219848FEF7DE
:103CB000C6F89FE040219448FEF7C1F83E219248A3
:103CC000FEF7BFF801219048FEF7B9F84FF4006104
:103CD0008C48FEF7B4F84FF480618A48FEF7AFF8DD
:103CE000102089491031086084E040218648FEF7A1
:103CF000A6F880218448FEF7A2F84FF4807181482D
:103D0000FEF79DF84FF400717E48FEF798F84FF4E7
:103D100000617C48FEF793F84FF480617948FEF724
:103D20008EF867E080217848FEF789F840217648D0
:103D3000FEF785F838217448FEF783F807217248AA
:103D4000FEF77DF84FF480716E48FEF77AF84FF475
:103D500000716C48FEF773F84FF400616948FEF794
:103D60006EF84FF480616748FEF769F842E0802101
:103D70006548FEF764F840216348FEF760F84FF4A9
:103D800080716048FEF75BF84FF400715D48FEF704
:103D900056F84FF400615B48FEF751F84FF480612C
:103DA0005848FEF74CF825E080215748FEF747F8C1
:103DB00040215548FEF743F839215348FEF741F8B2
:103DC00006215148FEF73BF84FF480714D48FEF74D
:103DD00038F84FF400714B48FEF731F84FF40061AA
:103DE0004848FEF72CF84FF480614648FEF727F864
:103DF00000E000BF00BF4FF400414248FEF71FF84B
:103E000010BD2DE9F04704460D46002641480078D4
:103E1000082876D2DFE800F0750434B7E7F4F3F24F
:103E200044F080043C48048000BF40F226613A48D8
:103E3000001FFDF71CFE0028F7D040F2266136482F
:103E4000001FFDF739FE4FF0000914E02021324831
:103E5000001FFDF7FDFD50B12F4800882870012696
:103E600020212D48001FFDF7FCFD4FF6FE7909F1DA
:103E700001001FFA80F94FF6FD708145E6DBCBE1CA
:103E8000FCF77CFC25480078012807D10820FCF7C6
:103E9000AAFCFCF7C2FD8046FCF770FC1F480078C6
:103EA000012806D1194909784906080EFCF7CEFC0D
:103EB00005E0164909784906080EFCF794FCFCF762
:103EC000ACFD8046B8F1000F04D0FCF76EFC012079
:103ED000BDE8F08711480078012804D104F03F00C4
:103EE000FCF7B4FC03E004F03F00FCF77CFCFCF7BB
:103EF00094FD8046B8F1000F12D0FCF756FC02206A
:103F0000E6E788E100100140000801403100002090
:103F1000000C01400900002004480040300000204F
:103F2000FCF72CFCFD480078012808D1FC490978F1
:103F3000012202EB4101C8B2FCF788FC07E0F84916
:103F40000978012202EB4101C8B2FCF74CFCFCF7F6
:103F500064FD8046B8F1000F03D0FCF726FC032077
:103F6000B6E7EE480078012803D1FCF7C3FD2870BE
:103F700002E0FCF787FD28700120FCF77BFEFCF7D0
:103F800014FC012648E14FF48050E64908606006C1
:103F9000040E44F080042146E348FFF70FFD00BF04
:103FA0000121E148FFF75DFD0028F9D0DE48FFF769
:103FB00007FD28700121DC48FFF75CFD0021DA488D
:103FC000FFF7FCFC00BF0121D748FFF74AFD00289E
:103FD000F9D0D548FFF7F4FC287001263003D14909
:103FE000091F086018E13F21D048FDF72AFF04F0BF
:103FF000010014F0020F04D0022203E0D0E07BE0C5
:1040000043E00022104314F0040F01D0042200E02A
:104010000022104314F0080F01D0082200E0002213
:10402000104314F0100F01D0102200E000221043C2
:1040300014F0200F01D0202200E00022104381B2B2
:10404000BA48FDF7FCFE4FF04430B9490860491505
:10405000B748FDF7F6FE4FF40061B548FDF7F1FEF5
:10406000B348FDF7DBFE07464FF40061B048FDF7AB
:10407000E6FE4FF40071AE48FDF7E1FE2F70012619
:104080004FF01130AA490860C6E0A948FDF7C6FE06
:10409000074607F47F4727433946A548FDF7D8FE72
:1040A0004FF48071A248FDF7CAFE4FF48071A0481A
:1040B000FDF7C7FE4FF400719D48FDF7C2FE4FF0BB
:1040C00044309B490860C9149948FDF7BAFE9848E6
:1040D000FDF7A4FE07464FF400619548FDF7AFFEDB
:1040E0004FF400719248FDF7AAFE4FF0113090494D
:1040F00008602F7001268FE04FF400718C48FDF7A7
:10410000A0FE3F218948FDF79CFE04F0010014F059
:10411000020F01D0022200E00022104314F0040F2D
:1041200001D0042200E00022104314F0080F01D057
:10413000082200E00022104314F0100F01D01022DA
:1041400000E00022104314F0200F01D0202200E0F4
:104150000022104381B27548FDF771FE4FF04430E4
:104160007349086009157248FDF769FE4FF4006154
:104170006F48FDF766FE6E48FDF750FE07464FF4A8
:1041800000616B48FDF75BFE4FF400716848FDF776
:1041900056FE4FF01130664908602F7001263BE053
:1041A0006348FDF73BFE074607F47F472743394640
:1041B0005F48FDF74DFE4FF480715D48FDF73FFE0F
:1041C0004FF480715A48FDF73CFE4FF40071584897
:1041D000FDF737FE4FF04430554908600915544843
:1041E000FDF72DFE4FF400615148FDF72AFE5048BF
:1041F000FDF714FE07464FF011304D490860C91411
:104200004B48FDF71CFE4FF400714948FDF717FEBF
:104210002F70012600E000BF00BF012E01D000205A
:1042200056E6012054E62DE9F05F04460D464FF0B6
:10423000000B0026B0463F48007808286DD2DFE822
:1042400000F06C0453BEE8F5F4F304F03F044021A1
:104250003948FDF706FC3848001D04804FF000097E
:104260003CE040213448FDF7F3FB80B1BBF1000F87
:104270000DD140213048FDF7F4FB2F48001D05808B
:104280004FF0010B012E02D14FF6FE792AE02021DA
:104290002948FDF7DDFB80B12748001D008800F0AC
:1042A000FF08A04500D1012620212348FDF7D9FBB6
:1042B000BBF1010F01D14FF6FE79B9F5604F09DD71
:1042C0004FF0000A03E00AF101001FFA80FABAF584
:1042D0007A7FF8DB09F101001FFA80F94FF6FD70D3
:1042E0008145BEDB00BFBCE1FCF748FA0B48007813
:1042F000012807D10820FCF776FAFCF78EFB8046F0
:10430000FCF73CFA05480078012817D104490978E0
:104310004906080EFCF79AFA16E0A1E130000020E9
:1043200031000020140C014000380040000801401A
:10433000001001400900002000480040FF490978B2
:104340004906080EFCF74FFAFCF767FB8046B8F108
:10435000000F04D0FCF729FA0120BDE8F09FF848CF
:104360000078012804D104F03F00FCF76FFA03E065
:1043700004F03F00FCF737FAFCF74FFB8046B8F13A
:10438000000F03D0FCF711FA0220E6E7EC480078B2
:10439000012803D12846FCF759FA02E02846FCF729
:1043A00022FAFCF73AFB8046B8F1000F03D0FCF785
:1043B000FCF90320D1E7FCF7F8F9012651E14FF4AD
:1043C0008050E04908606006040E04F07F04214636
:1043D000DD48FFF7F3FA00BF0121DB48FFF741FB9F
:1043E0000028F9D0D848FFF7EBFA2946D648FFF75E
:1043F000E5FA00BF0121D448FFF733FB0028F9D0CC
:10440000D148FFF7DDFA01263003CE49091F0860C5
:1044100027E13F21CD48FDF714FD04F0010014F021
:10442000020F04D0022203E0DFE07AE042E0002243
:10443000104314F0040F01D0042200E000221043C6
:1044400014F0080F01D0082200E00022104314F0FD
:10445000100F01D0102200E00022104314F0200FB2
:1044600001D0202200E00022104381B2B748FDF7BE
:10447000E6FC4FF40071B648FDF7E3FC4FF48061B1
:10448000B348FDF7DEFCB248FDF7C8FC074607F469
:104490007F472F433946AE48FDF7DAFC4FF4806181
:1044A000AB48FDF7CCFC4FF40071A948FDF7C7FC01
:1044B0000126D6E0A648FDF7B1FC074607F47F4782
:1044C00027433946A248FDF7C3FC4FF48071A0484A
:1044D000FDF7B5FC4FF480719D48FDF7B2FC4FF439
:1044E00000719B48FDF7ADFC4FF480619848FDF7E3
:1044F000A8FC9748FDF792FC074607F47F472F4337
:1045000039469348FDF7A4FC4FF480619048FDF7CD
:1045100096FC4FF400718E48FDF791FCFDB2012628
:104520009FE03F218A48FDF78CFC04F0010014F065
:10453000020F01D0022200E00022104314F0040F09
:1045400001D0042200E00022104314F0080F01D033
:10455000082200E00022104314F0100F01D01022B6
:1045600000E00022104314F0200F01D0202200E0D0
:104570000022104381B27548FDF761FC4FF4806161
:104580007348FDF75EFC4FF400717148FDF759FC6C
:1045900000BF00BF00BF00BF00BF00BF00BF00BF23
:1045A00000BF00BF00BF00BF00BF00BF00BF00BF13
:1045B0004FF400616648FDF744FC6548FDF72EFCAA
:1045C000074607F47F472F4339466148FDF740FC13
:1045D0004FF400615E48FDF732FC4FF400715C4817
:1045E000FDF72DFCFDB201263BE05948FDF716FC16
:1045F000074607F47F47274339465548FDF728FC0F
:104600004FF480715248FDF71AFC4FF48071504806
:10461000FDF717FC4FF400714D48FDF712FC4FF405
:1046200080614B48FDF70DFC4FF400614848FDF7F1
:1046300008FC4748FDF7F2FB074607F47F472F4386
:1046400039464348FDF704FC4FF400614048FDF74C
:10465000F6FB4FF400713E48FDF7F1FB012600E048
:1046600000BF00BF012E01D0002076E6012074E6D5
:10467000F8B504460D46164669462046FFF7C1FBCD
:104680000746012F0AD126B19DF80000284300906B
:1046900006E09DF80000A843009001E00020F8BD6E
:1046A0009DF800102046FFF7BEFD07463846F6E7A6
:1046B0002DE9F04104460D461020244914310860CC
:1046C00028784006070E47F0800739462148FFF753
:1046D00075F900BF01211F48FFF7C3F90028F9D081
:1046E0001C48FFF76DF92870012617E0A85D400609
:1046F000070E47F0800739461648FFF75FF900BFFD
:1047000001211448FFF7ADF90028F9D01148FFF74F
:1047100057F9A91901F8010C701CC6B2A642E5DBD5
:1047200000210C48FFF74AF900BF01210948FFF7B3
:1047300098F90028F9D007480EE000003100002069
:1047400030000020140C01400038004000080140F7
:104750000010014000300140FFF732F9A91901F8BB
:10476000010C1020314908600120BDE8F0812DE9DD
:10477000F04104460D4610202C49091D0860122105
:104780002B48FFF71BF900BF01212948FFF769F902
:104790000028F9D02648FFF713F9C7B2002611E028
:1047A000AF5D39462248FFF709F900BF01212048D3
:1047B000FFF757F90028F9D01D48FFF701F9C7B2F4
:1047C000701CC6B2A642EBDB10201849086001201D
:1047D000BDE8F0812DE9F04104460E4600270BE0CC
:1047E000F119F05DFFF70DFB0546012D02D02846BB
:1047F000BDE8F081781CC7B2A742F1DB0120F7E7E2
:104800002DE9F04104460E4600270BE0F15D09203A
:10481000FFF709FD0546012D02D02846BDE8F081CD
:10482000781CC7B2A742F1DB0120F7E7100801406E
:10483000003001402DE9FF5F04460D4616461F4635
:104840004FF0000B012003900C2001909DF8041004
:104850000398FFF7E8FC00900098012803D0009827
:1048600004B0BDE8F09F022003904FF02308012020
:1048700002904146DDE90220FFF7FAFE0090009821
:10488000012801D00098EBE74FF0230A0A2003909B
:10489000802001909DF804100398FFF7C4FC00905D
:1048A0000098012801D00098DAE74FF0000913E0E2
:1048B0000920039014F8090001909DF80410039852
:1048C000FFF7B1FC00900098012801D00098C7E7DD
:1048D00009F1010000F0FF09A945E9DB0A20039076
:1048E00001A90398FFF78DFA00900098012801D0E4
:1048F0000098B5E79DF80400A84201D00020AFE77A
:104900000D2003904FF08008012002904146DDE920
:104910000220FFF7ADFE00900098012801D000981A
:104920009EE70020019012E00420039001A9039863
:10493000FFF767FA00900098012801D000988FE7F0
:104940000120FBF7E4FE0BF1010000F0FF0B9DF8E6
:10495000040010EA0A0F02D1BBF1640FE4DB02206D
:1049600003904FF02308002002904146DDE9022029
:10497000FFF77EFE00900098012801D000986FE7B5
:104980000A20039039460398FFF73BFA00900098FD
:10499000012801D0009863E73878D0B14FF00009C2
:1049A00013E00920039001A90398FFF72AFA009069
:1049B0000098012801D0009852E79DF8040006F8FD
:1049C000090009F1010000F0FF0938784845E8DCEA
:1049D00001E0002044E704200390002001909DF8AE
:1049E00004100398FFF71FFC00900098012801D0E5
:1049F000009835E70A2003904FF0800801200290CC
:104A00004146DDE90220FFF733FE009000980128BF
:104A100001D0009824E7012022E7F8B508240825F2
:104A20000026324629462046FFF722FE0746012F80
:104A300001D03846F8BD122469462046FFF7E1F957
:104A40000746012F01D03846F4E79DF8000000F03A
:104A50000C0000909DF8000040F0800000909DF850
:104A600000102046FFF7DFFB0746012F01D0384634
:104A7000E0E7132469462046FFF7C3F90746012FF4
:104A800001D03846D6E79DF8000000F00C000090F9
:104A90009DF8000040F0800000909DF80010204636
:104AA000FFF7C1FB0746012F01D03846C2E71424A7
:104AB00069462046FFF7A5F90746012F01D0384681
:104AC000B8E79DF8000040F0030000909DF800104A
:104AD0002046FFF7A8FB0746012F01D03846A9E77B
:104AE0002424262000909DF800102046FFF79BFB11
:104AF0000746012F01D038469CE718245520009026
:104B00009DF800102046FFF78EFB0746012F01D0CD
:104B100038468FE7252469462046FFF772F9074695
:104B2000012F01D0384685E79DF8000000F0800095
:104B300000909DF8000040F00F0000909DF80010DC
:104B40002046FFF770FB0746012F01D0384671E77A
:104B50002724F42000909DF800102046FFF763FB07
:104B60000746012F01D0384664E72324F420009043
:104B70009DF800102046FFF756FB0746012F01D095
:104B8000384657E70C24102000909DF8001020466E
:104B9000FFF749FB0746012F01D038464AE7262494
:104BA000382000909DF800102046FFF73CFB074698
:104BB000012F01D038463DE7152469462046FFF70E
:104BC00020F90746012F01D0384633E79DF8000051
:104BD00040F0470000909DF800102046FFF723FBAF
:104BE0000746012F01D0384624E7012022E7F8B517
:104BF000082400252A4621460820FFF739FD0646ED
:104C0000012E01D03046F8BD69461220FFF7F9F8B1
:104C10000646012E01D03046F5E79DF8000000F071
:104C20000C0000909DF8000040F0830000909DF87B
:104C300000101220FFF7F7FA0646012E01D0304689
:104C4000E1E769461320FFF7DCF80646012E01D0A4
:104C50003046D8E79DF8000000F00C0000909DF869
:104C6000000040F0830000909DF800101320FFF733
:104C7000DAFA0646012E01D03046C4E7694615200F
:104C8000FFF7BFF80646012E01D03046BBE79DF87E
:104C9000000020F0880000909DF800101520FFF71C
:104CA000C2FA0646012E01D03046ACE755200090EE
:104CB0009DF800101820FFF7B6FA0646012E01D025
:104CC0003046A0E769462520FFF79BF80646012EEF
:104CD00001D0304697E79DF8000000F0800000907A
:104CE0009DF8000040F00F0000909DF80010252076
:104CF000FFF799FA0646012E01D0304683E7F320EC
:104D000000909DF800102720FFF78DFA0646012E2F
:104D100001D0304677E7F32000909DF80010232063
:104D2000FFF781FA0646012E01D030466BE71020CE
:104D300000909DF800100C20FFF775FA0646012E32
:104D400001D030465FE7482000909DF800102620F3
:104D5000FFF769FA0646012E01D0304653E769464F
:104D60001520FFF74EF80646012E01D030464AE7DF
:104D70009DF8000020F0400000909DF8000040F0F9
:104D8000070000909DF800101520FFF74CFA06462A
:104D9000012E01D0304636E7012034E770B50C24EF
:104DA000102529462046FFF73EFA0646012E01D07F
:104DB000304670BD1224922529462046FFF733FA6B
:104DC0000646012E01D03046F3E7132496252946E6
:104DD0002046FFF728FA0646012E01D03046E8E7C4
:104DE0001824552529462046FFF71DFA0646012EB0
:104DF00001D03046DDE71924412529462046FFF73A
:104E000012FA0646012E01D03046D2E72624692543
:104E100029462046FFF707FA0646012E01D0304604
:104E2000C7E72724F32529462046FFF7FCF9064665
:104E3000012E01D03046BCE728243F2529462046D4
:104E4000FFF7F1F90646012E01D03046B1E72924DB
:104E5000112529462046FFF7E6F90646012E01D026
:104E60003046A6E71524072529462046FFF7DBF93B
:104E70000646012E01D030469BE7012099E72DE937
:104E8000F84F04464FF0000A0825082600273A4646
:104E900031462846FFF7ECFB8046B8F1010F02D0FF
:104EA0004046BDE8F88F1125402600273A46314696
:104EB0002846FFF7DDFB8046B8F1010F01D04046E0
:104EC000EFE70E25802000909DF800102846FFF7A0
:104ED000AAF98046B8F1010F01D04046E1E712255A
:104EE000802600273A4631462846FFF7C1FB804618
:104EF000B8F1010F01D04046D3E7132580260027E3
:104F00003A4631462846FFF7B3FB8046B8F1010F19
:104F100001D04046C5E71325082601273A46314609
:104F20002846FFF7A5FB8046B8F1010F01D04046A7
:104F3000B7E701250C2000909DF800102846FFF7E8
:104F400072F98046B8F1010F01D04046A9E7022569
:104F5000232601273A4631462846FFF789FB80463B
:104F6000B8F1010F01D040469BE74FF023090A2515
:104F7000802000909DF800102846FFF754F98046E5
:104F8000B8F1010F01D040468BE7092500949DF848
:104F900000102846FFF747F98046B8F1010F01D00D
:104FA00040467EE70D25872000909DF8001028469A
:104FB000FFF739F98046B8F1010F01D0404670E79C
:104FC0000020009011E0042569462846FEF719FFED
:104FD0008046B8F1010F01D0404662E70120FBF79F
:104FE00096FB0AF1010000F0FF0A9DF8000010EAAC
:104FF000090F02D1BAF1640FE5DB02252326002751
:105000003A4631462846FFF733FB8046B8F1010F98
:1050100001D0404645E70A2569462846FEF7F1FEDD
:105020008046B8F1010F01D040463AE79DF80000F4
:1050300002281ED1092569462846FEF7E2FE804671
:10504000B8F1010F01D040462BE79DF80000CC4994
:105050000870092569462846FEF7D3FE8046B8F158
:10506000010F01D040461CE79DF80000C44948707C
:1050700001E0002015E70425002000909DF80010B5
:105080002846FFF7D0F88046B8F1010F01D040461E
:1050900007E70A25802601273A4631462846FFF7CA
:1050A000E7FA8046B8F1010F01D04046F9E6012049
:1050B000F7E62DE9FF5F04464FF0020AB1A0006851
:1050C00000901225802600273A4631462846FFF7F1
:1050D000CFFA8146B9F1010F03D0484604B0BDE8CC
:1050E000F09F1325802600273A4631462846FFF7D1
:1050F000BFFA8146B9F1010F01D04846EEE70E250F
:105100004FF0000841462846FFF78DF88146B9F177
:10511000010F01D04846E1E70D254FF00008414658
:105120002846FFF780F88146B9F1010F01D04846C3
:10513000D4E7022C00DD00249348005D8DF80000C8
:1051400003AB01AA51466846FFF774FB81460E2562
:105150004FF0800841462846FFF765F88146B9F1CF
:10516000010F01D04846B9E7B9F1010F03D19DF80D
:105170000C00052801D00020B0E74FF00009CB4615
:1051800010E001A810F80B0004EB440159447F4AD9
:10519000505401A810F80B0080EA09090BF1010036
:1051A00000F0FF0BBBF1040FEBDB9DF80800484556
:1051B00001D0002092E7012090E72DE9F04786B06A
:1051C000044673A103C9CDE904014FF0070A122573
:1051D000802601273A4631462846FFF749FA80469D
:1051E000B8F1010F03D0404606B0BDE8F0871325A3
:1051F000802601273A4631462846FFF739FA80468D
:10520000B8F1010F01D04046EEE7022C00DD00248A
:105210005D48005D8DF8100004EB44005B49085CBC
:105220008DF8120004EB4400401C085C8DF813005C
:1052300004EB4400801C085C8DF8140004EB44006F
:10524000C01C085C8DF815004FF002090BE09DF8BA
:10525000160004A911F8091048408DF8160009F14C
:10526000010000F0FF09B9F1060FF0DB03AB01AA62
:10527000514604A8FFF7DEFA80469DF80C0001288D
:1052800004D19DF804004449087001E00020ABE718
:105290000120A9E7FEB504460D4640A103C9CDE9AA
:1052A000010106274CB1012C07D0032C05D0072C97
:1052B00003D00F2C01D00020FEBD8DF809406B46B5
:1052C0002A46394601A8FFF7B5FA0646012E01D055
:1052D0003046F1E79DF80000132801D00020EBE7ED
:1052E0000120E9E72DE9F04190B0044601270420B0
:1052F00009A9C8557F1C002606E0A05D09A9C8556C
:10530000781CC7B2701CC6B2082EF6DB8DF824706C
:10531000B84601AB02AA414609A8FFF78BFA054639
:10532000012D03D0284610B0BDE8F0819DF808009B
:105330000B2803D19DF80900052801D00020F2E7D1
:10534000002609E002A830448078A15D884201D09F
:105350000020E8E7701CC6B2082EF3DB0120E2E76C
:105360002DE9F04104460D4616461F463B4632469F
:1053700029462046FFF75EFA80464046BDE8F081A8
:105380004100002000200000566600086B0300204A
:105390009370000000000000430000200600FFFFA3
:1053A0000000000070B51224802529462046FEF733
:1053B0003AFF0646012E01D0102070BD132480252F
:1053C00029462046FEF72FFF0646012E01D0102069
:1053D000F3E71824852529462046FEF724FF0646D4
:1053E000012E01D01020E8E7192461252946204626
:1053F000FEF719FF0646012E01D01020DDE71C2420
:10540000622529462046FEF70EFF0646012E01D0F2
:105410001020D2E723242F2529462046FEF703FF3C
:105420000646012E01D01020C7E7252487252946EE
:105430002046FEF7F8FE0646012E01D01020BCE7FC
:105440002624592529462046FEF7EDFE0646012E64
:1054500001D01020B1E72724FA2529462046FEF77F
:10546000E2FE0646012E01D01020A6E728243F25A3
:1054700029462046FEF7D7FE0646012E01D0102011
:105480009BE72924112529462046FEF7CCFE064637
:10549000012E01D0102090E71020DF490870002075
:1054A0008BE7F8B504460A2569462846FEF7A9FCAD
:1054B0000646012E01D01020F8BD9DF8000010F026
:1054C0007F0F0CD00A25802000909DF80010284600
:1054D000FEF7A9FE0646012E01D01020ECE70925B3
:1054E00000270DE0E05D00909DF800102846FEF7D3
:1054F0009AFE0646012E01D01020DDE7781CC7B2C7
:10550000192FEFDB0A2569462846FEF77AFC064686
:10551000012E01D01020CFE79DF8000000F07F00A1
:10552000192801D01120C7E70125012000909DF81E
:1055300000102846FEF777FE0646012E01D0102007
:10554000BAE7FF200090002701250DE069462846B4
:10555000FEF757FC0646012E01D01020ACE70120D3
:10556000FBF7D5F8781CC7B29DF8000010F0F00FDB
:1055700001D0642FEADB642F01D120209CE70020BA
:105580009AE738B569460120FEF73BFC0446012C3A
:1055900001D0102038BD9DF8000000F0F00040F070
:1055A0000D0000909DF800100120FEF73CFE04461F
:1055B000012C01D01020EDE70020EBE7FEB5012023
:1055C0009649087001A9A020FEF71BFC0446694615
:1055D0000320FEF716FC0446A02002908021022042
:1055E000FEF721FE0446012C01D01020FEBD002054
:1055F000029000210320FEF716FE0446012C01D084
:105600001020F3E786490A20FEF7FBFB0446012C35
:1056100001D01020EAE700250BE08248411909205B
:10562000FEF7EFFB0446012C01D01020DEE7681CDA
:1056300085B27B4800788542EFDBC5E07948007889
:10564000022806D177484078FE2802D1002073490D
:105650000870734800783F2801DD3F2601E070485C
:1056600006786F4801780920FEF7DDFD0446012C1D
:1056700001D01020BAE7701CC6B201250BE06948C2
:10568000415D0920FEF7CFFD0446012C01D010201A
:10569000ACE7681C85B2B542F1DB40210420FEF77F
:1056A000C2FD0446012C01D010209FE704210120F7
:1056B000FEF7B9FD0446012C01D0102096E702A99F
:1056C0000A20FEF79EFB0446012C01D010208DE736
:1056D00018E09DF808003D280BDA5248815D09204A
:1056E000FEF7A1FD0446012C01D010207EE7701CBE
:1056F000C6B202A90A20FEF784FB0446012C01D0A1
:10570000102073E7464800788642E2DB02A90420B5
:10571000FEF777FB0446012C01D0102066E708E075
:1057200002A90420FEF76DFB0446012C01D01020D5
:105730005CE73A48007820B19DF8080010F0400F6F
:10574000EED008210120FEF76EFD0446012C01D0A9
:1057500010204BE7002032490870012031490870C1
:1057600025E002A90A20FEF74CFB0446012C01D0DB
:1057700010203BE79DF80800002818DD002512E006
:105780002848274A127881180920FEF73AFB044678
:10579000012C01D0102029E721480078401C204925
:1057A0000870681C85B29DF808008542E8DB1B483C
:1057B000007828B11B480078194909788842D0DC64
:1057C00080210A20FEF72FFD1448007800287FF47E
:1057D00035AF60210420FEF726FD0446012C01D0E0
:1057E000102003E7A02002909DF804100220FEF78D
:1057F0001AFD0446012C01D01020F7E6002002908B
:105800009DF800100320FEF70EFD0446012C01D088
:105810001020EBE60020E9E60A0000200C00002042
:10582000070000206B02002070B501240F252946D7
:105830002046FEF7F8FC0646012E01D0102070BD70
:105840000020FCE72DE9F041012410250126324615
:1058500029462046FEF70CFF0746012F02D01020F4
:10586000BDE8F0810020FBE770B5A02421460220AE
:10587000FEF7D9FC0546012D01D0102070BD002493
:1058800021460320FEF7CFFC0546012D01D0102054
:10589000F4E700BF0020F1E7FEB504460D463348AB
:1058A000007810B3012000F067F841F6A47701E01A
:1058B000781E87B2002FFBDC41F6A47701E0781E4A
:1058C00087B2002FFBDC6946122000F067F806461D
:1058D000012E01D01020FEBD9DF8000010F0100F29
:1058E00042D00020214908703EE002A90420FEF7C2
:1058F00088FA0646012E01D01020ECE79DF808003A
:105900002040029001A90520FEF77BFA0646012EF1
:1059100001D01020DFE79DF80400284001909DF899
:1059200008100420FEF77FFC0646012E01D010204F
:10593000D1E79DF80800204002909DF80410052052
:10594000FEF771FC0646012E01D01020C3E708487F
:105950000078102808D19DF8080010F0200F02D020
:1059600001200449087000BF0020B4E703000020B4
:105970000A0000200D00002010B504462CB94FF499
:1059800000410548FCF75DFA04E04FF4004102488D
:10599000FCF755FA10BD000000100140F8B50446B0
:1059A0000D460F2704F18000C0B200909DF8001052
:1059B0003846FEF738FC06460EB90020F8BD0F2722
:1059C00069463846FEF71DFA06460EB90020F5E78F
:1059D0009DF8000028700120F0E72DE9F041044611
:1059E0000D460F2704F1400000F0FF0841463846FD
:1059F000FEF719FC064616B90020BDE8F0810F2716
:105A000005F1C00000F0FF0841463846FEF70BFCE8
:105A100006460EB90020F0E70120EEE7F8B504468F
:105A20000D46164669462046FFF7B8FF0746012F88
:105A30000CD12EB128789DF800100843009007E0A3
:105A400029789DF800008843009001E00020F8BD0F
:105A50009DF800102046FFF7C0FF07463846F6E7DE
:105A60000020FC4908700320FB4908700020FB4916
:105A70000870FB4908700320FA4908700D20FA49A4
:105A800008700C20F9490870084600780F2814DDCA
:105A90000220F7490870F5480078401EC006000E45
:105AA000F4490870084600784010F3490870F1483E
:105AB0000078C010F14908702CE0EC480078072805
:105AC00014DD0120EA490870E8480078401E00070C
:105AD000000EE8490870084600784010E649087052
