:020000040800F2
:1000000028220020F1330008991100089B110008F4
:100010009F110008A3110008A711000800000000AC
:10002000000000000000000000000000AB1100080C
:10003000AD110008000000002B360008B1110008C7
:100040000B3400080B3400080B3400080B34000894
:100050000B3400080B3400080B3400080B34000884
:100060000B3400080B3400080B3400080B34000874
:100070000B3400080B3400080B3400080B34000864
:100080000B3400080B3400080B3400080B34000854
:10009000D31100080B3400080B340008DF110008EE
:1000A000E3110008E5110008E7110008E911000854
:1000B0000B340008EB1100080B340008F3110008A2
:1000C000F5110008F7110008F9110008FB110008EC
:1000D0000B340008DB110008DD1100080B340008A8
:1000E000E11100080B3400080B340008DFF80CD0D5
:1000F00009F02AFD004800472903000828220020B3
:1001000010B50024A9E095480078102804D02028D4
:100110001AD0302872D188E0002091490880914A95
:100120009149924800F06EF904464CB9412090493B
:100130000870C0208F49087030208849087002E09C
:1001400020208649087087E00021032005F0C0FCCC
:100150000020874908708749087004F0F0001028D3
:1001600006D0202821D0302821D0402858D156E070
:100170003B207D49087096204870112088708020AF
:10018000C870012008714E204871422088713120CA
:10019000C8713020087232204872362088720F20D1
:1001A000C8720C20744908803AE000BF38E06E48FD
:1001B0000078FF2806D1704A6A4801886A4800F032
:1001C000F8FE2BE00121032005F082FC6B4800784B
:1001D000012807D1684A63480188634806F02FFB6D
:1001E00004460DE065480078022808D1624A5D485F
:1001F00001885D4806F0FAFB044601E02BE000248C
:1002000044B100205C490880402059490870C02052
:10021000584908700021032005F05AFC00E000BF97
:1002200000BF30204D49087016E00121032005F081
:100230004FFC534B4D4A504801884B4800F07AF927
:100240000020504908804649088031204349087001
:1002500008F01AFC00E000BF00BF4048007800280A
:100260007FF451AF10BD1AE047480078012808D14B
:100270004649087000F0FCF943480078401C4249A8
:100280000870434A00214348006804F016FEFFF757
:1002900037FF142300221146104605F059FBE3E70F
:1002A0002CE03D480078202802D100203A4908700F
:1002B00039480578002413E03748007840FA04F5FF
:1002C00005F0010028B1611CC8B2002105F000FC56
:1002D00004E0611CC8B2012105F0FAFB601CC4B245
:1002E000042CE9DB2C480078401C2B4908704FF4A3
:1002F000FA7300221146104605F02AFBD1E705F0FB
:1003000047FD03F035FF0523244A0021244804F06B
:10031000CFFF0C23234A0021234804F0C9FF02E049
:10032000FF2005F062FAFBE710B503F023FE002082
:1003300004F02EFD1749086003231C4A00211C48C5
:1003400004F0B6FF03F0FCFE002010BD70477047BC
:100350007047704770477047704700000C000020DE
:100360001000002016000020EB0A0020DC0900200D
:10037000320000203300002018000020340000204C
:100380001200002014000020020000200D000020B8
:10039000000000200800002001000020D8090020F3
:1003A000A1020008D807002067020008D803002037
:1003B000FF020008BF490978FF2906D1BE49097824
:1003C00009B100200BE0012009E0BB490A78B949D6
:1003D0000978491C8A4201D1012000E00020B64979
:1003E0000978B44A117070470020B2490870B349C7
:1003F0000880B3490880B3490880B3490880B349ED
:10040000087070472DE9F04103460E4617464FF03D
:1004100001081878AE4908705879AE490870987983
:10042000A5490870FFF7C6FF10B90020BDE8F081AC
:10043000A7480078632812D004DC612812D0622813
:1004400072D104E06F283CD073286DD168E0D87970
:10045000A14908700846007840F0100867E04FF0A6
:10046000200864E0D8799D490870987A9C49087002
:10047000987B9C4908709948007848B9D87A9A497D
:100480000870187B99490870587B9949087015E0E5
:100490009248007801280FD1D87A96490870187BC5
:1004A00095490870587B95490870D87B9449087025
:1004B000187C9449087001E00020B7E74FF040082D
:1004C00035E000209049086004250BE08E48006864
:1004D00000028D490860585D096808438A49086030
:1004E000681EC5B2002DF1DC002404E003F10A000F
:1004F000005D3055641C844800688442F6D382480D
:100500000068042806D1002098737F480068401CCA
:100510007D4908607C48008838804FF0300806E04C
:100520004FF0010803E0FFE74FF0000800BF00BFF5
:1005300040467BE770B50446654D2D78613D132D2F
:1005400028D2DFE805F01B0A1027112727270C13F4
:100550001F191A120B271415230000BF00BF802596
:100560005B4E357016E000BF00BF00BF00BF00BF8C
:100570008125574E35700DE000BF00BF8225544ED7
:10058000357007E08325524E357003E08425504EC8
:10059000357000BF00BF5D4D2D7805F0C005002D02
:1005A0003FD14B4D2D78802D12D100255572564DDF
:1005B00029602D68002D38D0002004E0265C02F16F
:1005C0000A052E54401C504D2D68A842F6D32CE04D
:1005D0003F4D2D78812D04D1002555724A4E35604E
:1005E00023E03B4D2D78822D11D13C4D2D78557255
:1005F0003A4D2D781DB90525434E356015E0374D30
:100600002D78012D11D107253F4E35600DE0304D7D
:100610002D78842D09D10025557208253A4E356074
:1006200003E000255572384E3560294D2D78157040
:10063000354D2D785570344D2D882D0A9570324DDD
:100640002D682D0CD570304D2D682D0E1571214D56
:100650002D785571184D2D7895712C4D2D78D571BB
:100660002B4D2D781572284D2D880A351D8070BDB3
:1006700010B55020274908702748007840F0020044
:10068000487000200F49088002200F490880084662
:1006900002884FF4A0711F4808F020FC0A48018826
:1006A000032009F02EF8032008F0B2FE10BD01204F
:1006B00070470000220000202100002010000020D0
:1006C0000E00002014000020120000200C0000206A
:1006D0001A00002020000020230000202400002019
:1006E00025000020290000202600002027000020EF
:1006F000280000202A0000202B0000202C000020D1
:100700002D0000202E0000201C00002032000020C0
:1007100033000020DC0900200D0000200320FE49EA
:10072000087070470A0A0270417070472DE9F04F57
:1007300087B00446894615466078039094F802B065
:10074000E07802902079019004F105084FEA0B410E
:10075000029841EA00200199084300904FF41041AB
:100760002046FFF7DFFF02202880EC4A0099881A14
:10077000914279D020DCEA4AA1EB0200914274D088
:100780000DDCB1F1011F3CD0E6480844C0B3B0F520
:10079000827F6DD0A0F2FF10002868D1E7E0B0F5AD
:1007A000807F72D0B0F5047F70D0B0F5407F6ED0FE
:1007B000B0F5A06FF1D179E140F6FF12811A9042B5
:1007C0007ED00EDCA0F2011000287AD0A0F20260E8
:1007D000002877D0B0F5807F75D0B0F5FE7FDCD1F2
:1007E00047E2A1F60560002873D0FB286DD0B0F574
:1007F000805F6BD0A0F58050FB380028CDD1E4E0BD
:1008000018E098F8000078B14FF40070C64908600D
:1008100006F06BFF064666B14FF4DE412046FFF757
:1008200081FF0220288004E04FF40070BE49091DBA
:1008300008605BE2262007F05AF906463EB14FF405
:10084000DE412046FFF76EFF022028800BE0B7480C
:1008500000782070B548407860709020A07000202B
:10086000E0700420288041E206E1C5E000E03CE2BF
:10087000002007F012FA064656B14FF4DE4120463A
:10088000FFF750FF0220288022E058E176E1E6E001
:10089000002705E0A548801CC05DE055781CC7B264
:1008A000042FF7DB207861784840A1784840E17850
:1008B00048402071902060710020A071072006E060
:1008C000F5E1D8E079E1A6E103E067E028E02880DF
:1008D0000CE2012007F0E1F906463EB14FF4DE419B
:1008E0002046FFF71FFF0220288018E0002706E0BF
:1008F0008E48801CF91C405CE055781CC7B2042F60
:10090000F6DB207861784840A1784840E17848409B
:100910002071902060710020A07107202880E5E1FF
:10092000022007F0BAF906463EB14FF4DE412046F8
:10093000FFF7F8FE0220288018E0002706E07B4839
:10094000801CB91D405CE055781CC7B2042FF6DB53
:10095000207861784840A1784840E178484020718B
:10096000902060710020A07107202880BEE1002047
:1009700007F0FDF906463EB14FF4DE412046FFF791
:10098000D1FE0220288008E06848807B20709020FB
:1009900060700020A07003202880A7E1012007F0EC
:1009A000E6F906463EB14FF4DE412046FFF7BAFEB7
:1009B0000220288008E05D48807B207090206070D5
:1009C0000020A0700320288090E1022007F0CFF9DA
:1009D00006463EB14FF4DE412046FFF7A3FE02205B
:1009E000288008E05148807B2070902060700020B3
:1009F000A0700320288079E10121082007F02AFA5D
:100A000006462EBB494890F82F0030B96720207069
:100A1000002060700220288020E0002705E0434885
:100A20000F30C05DE055781CC7B2404890F82F00E9
:100A3000B842F4DC3D4991F82F1008194FF41041E9
:100A4000FFF770FE394890F82F00801C288005E0E1
:100A500067202070002060700220288046E106F0A8
:100A600071FD064636B14FF4DE412046FFF75AFECF
:100A7000022028803AE139E1522007F038F8064692
:100A80003EB14FF4DE412046FFF74CFE02202880A5
:100A90000BE0264800782070244840786070902051
:100AA000A0700020E070042028801FE1B9F10D0F34
:100AB00006D06720207000206070022028803DE072
:100AC00098F8000018B960208DF8100002E061204D
:100AD0008DF8100098F801008DF81100002707E04C
:100AE000B81C18F800100DF11200C155781CC7B2DF
:100AF000062FF5DB002706E00C48801CC15D06A828
:100B0000C155781CC7B2042FF6DB04A807C806F04D
:100B1000B0FB064696B10BE034000020020A01004B
:100B200001040100FEFEFEFF10080140DC1C002055
:100B3000672020700020607002202880D6E0B9F184
:100B4000060F06D0672020700020607002202880E9
:100B500013E098F80000214606F0F2FB064636B195
:100B600067202070002060700220288005E090201F
:100B700020740020607412202880B7E0B9F1160FAD
:100B800006D067202070002060700220288013E0CB
:100B900098F80000A11D06F0F8FB064636B1672064
:100BA0002070002060700220288005E090202070D6
:100BB000002060700220288098E0B9F10A0F06D06A
:100BC00067202070002060700220288022E098F8C2
:100BD0000100000698F8021040EA014098F803105E
:100BE00040EA012098F8041040EA010A98F8000051
:100BF000514606F0F6FB064636B16720207000200D
:100C000060700220288005E0902020700020607035
:100C1000022028806AE0B9F10A0F06D06720207010
:100C2000002060700220288022E098F80100000671
:100C300098F8021040EA014098F8031040EA0120B9
:100C400098F8041040EA010A98F80000514606F0AE
:100C5000FBFB064636B16720207000206070022042
:100C6000288005E0902020700020607002202880FD
:100C70003CE0B9F1060F06D06720207000206070BC
:100C80000220288012E098F8000006F010FC0646CA
:100C900036B167202070002060700220288005E0B7
:100CA0009020207000206070022028801EE0B9F1A2
:100CB000060F06D067202070002060700220288078
:100CC00012E098F8000006F021FC064636B16720D5
:100CD0002070002060700220288005E090202070A5
:100CE000002060700220288000E000BF00BF07B035
:100CF000BDE8F08F2DE9FC5F044615460020019009
:100D00006078009094F8028094F8039094F804A01E
:100D1000671D4FEA084040EA092040EA0A0B4FF4F9
:100D200010412046FFF7FEFC02202880BBF1011F86
:100D300006D0FD48584430B1B0F5807F5DD12FE03A
:100D400005F0EFF95AE0202001903878012803D10E
:100D5000002005F0C4F909E03878032803D1022007
:100D600005F0BDF902E0012005F0B9F901A920461E
:100D700005F094FB06465EB99DF8041060184FF428
:100D80001041FFF7CFFC9DF80400801C288006E08E
:100D90004FF4DE412046FFF7C5FC022028802DE0FD
:100DA000202001903878012803D1002005F097F920
:100DB00009E03878032803D1022005F090F902E019
:100DC000012005F08CF901A9204605F0C7FB064675
:100DD0005EB99DF8041060184FF41041FFF7A2FCB3
:100DE0009DF80400801C288006E04FF4DE41204678
:100DF000FFF798FC0220288000E000BF00BFBDE89C
:100E0000FC9F2DE9F04F8DB005468946164600201F
:100E10000C900B9068780A90A8780990E878089070
:100E200095F804806F1D3878079078780690B87828
:100E30000590F8780490387903900998010408988F
:100E400041EA002040EA080002904FF41041284691
:100E5000FFF768FC02203080B4480078022850D1A7
:100E6000B9F1050F45DDA9F10500404507D04FF464
:100E7000DE412846FFF756FC0220308096E00998B4
:100E800020B1022806D003280ED108E04FF0000A56
:100E9000D3460DE04FF0000A4FF0010B08E04FF091
:100EA000010A4FF0000B03E04FF0010AD34600BFE8
:100EB00000BF08F0FF0153460BAA3846CDF800B03A
:100EC00006F05BFB0C90002403E0385D2855601CA5
:100ED000C4B29DF82C008442F7DB9DF82C106818F2
:100EE0004FF41041FFF71EFC9DF82C00801C308051
:100EF0005CE04FF4DE412846FFF714FC022030800E
:100F000054E08A480078012850D1B9F1050F46DD38
:100F1000A9F10500404507D04FF4DE412846FFF710
:100F200001FC0220308041E0FF200B9008F0FF011F
:100F30000BAA384605F099F80C900C9838BB0024A1
:100F400003E0385D2855601CC4B29DF82C00844233
:100F5000F7DB9DF82C003080B8F1050F26D10798FB
:100F600020BB0698012821D10398F8B9059800F014
:100F70000F006F49085C6F490871059800116E49B0
:100F800051F820006B49086004F092FF0EE04FF426
:100F9000DE412846FFF7C6FB0220308006E04FF412
:100FA000DE412846FFF7BEFB022030800DB0BDE8D1
:100FB000F08F2DE9FE4F054688461446687802906A
:100FC000A8780190E878009095F804906E1D01983B
:100FD0000104009841EA002040EA090B002020802B
:100FE0000298182846D008DC01280DD009284DD0D9
:100FF0000F2827D0112876D130E0192840D0C028FA
:1010000072D0FF28F7D147E0BBF1010F12D1307841
:1010100000F00F00022802D14449087002E00120CC
:10102000424908704FF410412846FFF77BFB02202D
:10103000208006E04FF4DE412846FFF773FB0220D4
:101040002080A6E02946009805F0AAFE4FF4104142
:10105000681CFFF767FB032020809AE03178009836
:1010600005F0F8FE4FF41041681CFFF75BFB03200E
:1010700020808EE0224641462846FFF757FB88E055
:10108000224641462846FFF735FE82E02246414689
:101090002846FFF7B6FE7CE0BBF1010F13D1307894
:1010A00005F09BFC38B94FF410412846FFF73AFB96
:1010B0000220208028E04FF4DE412846FFF732FB73
:1010C0000220208020E040F20110834515D13078C5
:1010D00005F0AAFB48B94FF410412846FFF722FB60
:1010E0000220208010E04CE00FE04FF4DE41284663
:1010F000FFF718FB0220208006E04FF4DE4128466F
:10110000FFF710FB0220208043E0B8F1050F30DD2F
:10111000A8F10500484511D04FF4DE412846FFF7FD
:1011200001FB022020802BE0FFFEFEFF34000020A8
:10113000E4000020C81C0020A400002022464946EC
:10114000304605F07CFB8246BAF1000F09D100273A
:1011500003E0F05DE855781C87B22088B842F8DCDF
:101160000EE04FF4DE412846FFF7DCFA0220208033
:1011700006E04FF4DE412846FFF7D4FA0220208033
:1011800007E04FF410412846FFF7CCFA02202080F8
:1011900000BF00BFBDE8FE8F704700BFFEE700BF85
:1011A000FEE700BFFEE700BFFEE7704770477047ED
:1011B00010B502F019FA044610480078401C0F4997
:1011C0000870204602F014FA02F0F1FF02F0F6FE79
:1011D00010BD10B507F048FE10BD7047704770474E
:1011E0007047704770477047704710B505F0DFFAD9
:1011F00010BD7047704770477047704779000020F6
:1012000031490143314A1160704770B50021002314
:101210000F22C47804B32D4C246804F4E064C4F5B0
:10122000E064210AC1F10403CA40447804FA03F1DE
:101230008478144021430901254C0678A15504788F
:1012400004F01F050124AC4005786D11AD0005F1D7
:10125000E025C5F8004109E0047804F01F050124E9
:10126000AC401C4D0678761145F8264070BD1A4AF0
:101270000A400243154B1B1F1A60704739B1134ACD
:10128000121D12680243114B1B1D1A6006E00F4A23
:10129000121D126882430D4B1B1D1A6070470428F3
:1012A00008D14FF0E021096941F004014FF0E0223C
:1012B000116107E04FF0E021096921F004014FF0CE
:1012C000E0221161704700000000FA050CED00E01B
:1012D00000E400E080E100E080FFFF1F0146002005
:1012E000FE4A106800F03800084310607047FB4960
:1012F000096821F00801F94A1160114609680143A3
:1013000011607047F549096821F01001F34A116036
:1013100011460968014311607047F148EF49486080
:10132000F04848607047EE48EC494860ED48486036
:101330007047EA48006940F08000E849086170475A
:10134000E648006940F08000E449086170470420E5
:10135000E249C96801F0010109B101200EE0DF494D
:10136000C96801F0040109B1022007E0DB49C9683E
:1013700001F0100109B1032000E00420704700B51E
:1013800002460423FFF7E3FF034603E0FFF7DFFF16
:101390000346521E012B01D1002AF7D102B90523C1
:1013A000184600BD30B5054604244FF43020FFF741
:1013B000E6FF0446042C19D1C848006940F0020039
:1013C000C649086108464561006940F0400008616F
:1013D0004FF43020FFF7D3FF0446052C06D0BF485A
:1013E000006941F6FD710840BC490861204630BDE6
:1013F00010B504244FF43020FFF7C1FF0446042C3D
:1014000018D1B648006940F00400B44908610846A4
:10141000006940F0400008614FF43020FFF7AFFF53
:101420000446052C06D0AD48006941F6FB71084022
:10143000AA490861204610BD00B502460423FFF703
:1014400086FF034603E0FFF782FF0346521E012B8F
:1014500001D1002AF7D102B90523184600BD10B505
:1014600004244FF43020FFF7E7FF0446042C18D182
:101470009A48006940F004009849086108460069EC
:1014800040F0400008614FF43020FFF7D5FF0446DC
:10149000052C06D09148006941F6FB7108408F4940
:1014A0000861204610BD00208C49C96901F0020185
:1014B00009B1012000E00020704730B5A5250424C3
:1014C000FFF7F1FF00B100254FF43020FFF757FF81
:1014D0000446042C3AD1824880498860814888605B
:1014E0000846006940F0200008610846006940F0A5
:1014F000400008614FF43020FFF741FF0446042C00
:101500001BD17648006941F6DF71084073490861D4
:101510000846006940F01000086173480580E00249
:10152000FFF72DFF0446052C10D06C48006941F6EA
:10153000EF7108406949086108E0052C06D067484A
:10154000006941F6EF71084064490861204630BDEA
:1015500078B506460D46042400200090E002FFF70F
:101560000EFF0446042C28D15C48006940F00100BD
:101570005A4908613580E002FFF701FF0446042C58
:1015800012D1B01C0090280C00990880E002FFF7EF
:10159000F6FE0446052C10D05048006941F6FE7155
:1015A00008404E49086108E0052C06D04B48006908
:1015B00041F6FE71084049490861204678BD70B582
:1015C00005460E460424E002FFF7D9FE0446042C2B
:1015D00013D14248006940F00100404908612E8063
:1015E000E002FFF7CCFE0446052C06D03B4800691C
:1015F00041F6FE71084039490861204670BD70B55A
:1016000005460E460424E002FFF7B9FE0446042C0A
:1016100017D13348314988603248886008460069EC
:1016200040F0100008612E80E002FFF7A8FE04469B
:10163000052C06D02948006941F6EF71084027497A
:101640000861204670BD2DE9F04304464FF6FF7651
:101650003746B046B1460425E443E6B2C4F3072753
:10166000C4F307484FEA1469E802FFF788FE05460D
:10167000042D4AD11A48194988601A4888600846DA
:10168000006940F010000861FF2E06D016480830AF
:101690000680E802FFF773FE0546042D08D1FF2FF0
:1016A00006D011480A300780E802FFF768FE0546B9
:1016B000042D0AD1B8F1FF0F07D00B480C30A0F869
:1016C0000080E802FFF75BFE0546042D14D1B9F156
:1016D000FF0F11D004480E3008E000000020024047
:1016E00023016745AB89EFCD00F8FF1FA0F80090FC
:1016F000E802FFF744FE0546052D06D0684800695C
:1017000041F6EF710840664908612846BDE8F0835C
:1017100030B5054604244FF43020FFF730FE044670
:10172000042C41D15F485E4988605F488860084664
:10173000006940F0200008610846006940F0400060
:1017400008614FF43020FFF71AFE0446042C22D122
:101750005348006941F6DF71084051490861084665
:10176000006940F0100008611DB100204F49088059
:1017700002E0A5204D4908804FF43020FFF7FFFD1F
:101780000446052C10D04648006941F6EF71084028
:101790004349086108E0052C06D04148006941F63C
:1017A000DF7108403E490861204630BDF0B505466E
:1017B0000E46174604243B48394988603A488860F9
:1017C000E002FFF7DCFD0446042C19D1344800691F
:1017D00040F010003249086147F0F80030432843D8
:1017E0003249891C0880E002FFF7C9FD0446052C38
:1017F00006D02B48006941F6EF710840284908617E
:101800002046F0BD2648C069800870472448006A19
:10181000704700202249096801F0200109B1012028
:1018200000E00020704729B11D4A126902431C4B99
:101830001A6104E01A4A12698243194B1A6170470F
:1018400001460020012908D1154AD26902F001029F
:101850000AB1012008E0002006E0114AD2680A40DF
:101860000AB1012000E0002070470D49C8607047B0
:1018700004200B49C96801F0010109B101200EE003
:101880000749C96801F0040109B1022007E00449D1
:10189000C96801F0100109B1032000E0042070477D
:1018A0000020024023016745AB89EFCD00F8FF1F00
:1018B00010B50446CC48844208D10121042000F030
:1018C0002DFB0021042000F029FB46E0C74884429C
:1018D00008D10121082000F021FB0021082000F0A0
:1018E0001DFB3AE0C248844208D10121102000F0DB
:1018F00015FB0021102000F011FB2EE0BD488442B2
:1019000008D10121202000F009FB0021202000F057
:1019100005FB22E0B848844208D10121402000F0B4
:10192000FDFA0021402000F0F9FA16E0B3488442A5
:1019300008D10121802000F0F1FA0021802000F080
:10194000EDFA0AE0AE48844207D10121801500F08B
:10195000E5FA0021A01500F0E1FA10BD10B5012153
:10196000084600F0DBFA0021012000F0D7FA10BD94
:101970002DE9F04102460025002600200023002426
:10198000002791F803C00CF00F0591F803C00CF08C
:10199000100CBCF1000F03D091F802C04CEA050511
:1019A00091F800C0BCF1000F31D0146800202BE08A
:1019B0004FF0010C0CFA00F3B1F800C00CEA03067A
:1019C0009E4220D183004FF00F0C0CFA03F7BC436A
:1019D00005FA03FC4CEA040491F803C0BCF1280F9B
:1019E00006D14FF0010C0CFA00FCC2F814C00AE05A
:1019F00091F803C0BCF1480F05D14FF0010C0CFA6F
:101A000000FCC2F810C0401C0828D1D31460B1F803
:101A100000C0BCF1FF0F34DD546800202EE000F15F
:101A2000080C4FF0010808FA0CF3B1F800C00CEAFA
:101A300003069E4221D183004FF00F0C0CFA03F7EE
:101A4000BC4305FA03FC4CEA040491F803C0BCF162
:101A5000280F05D100F1080C08FA0CF8C2F8148020
:101A600091F803C0BCF1480F07D100F1080C4FF00A
:101A7000010808FA0CF8C2F81080401C0828CED3E0
:101A80005460BDE8F0814FF6FF7101800221817042
:101A90000421C17070470246002093680B400BB1CF
:101AA000012000E0002070470146886880B270473E
:101AB00002460020D3680B400BB1012000E000205B
:101AC00070470146C86880B2704701617047416144
:101AD00070470AB1016100E041617047C160704721
:101AE0004FF480320A438261816182618269826936
:101AF000704702460020434B18684FF68073184029
:101B000040EA021008433F4B186070473E49C861E5
:101B10007047F0B50A46002300240021002500F09C
:101B20000046B6F1004F02D1364EF16901E0354E64
:101B30007168C0F3034583B200F44016B6F5401F48
:101B400008D121F070612F4E766826F070662D4F17
:101B50007E6012E000F48016B6F5801F06D10326E1
:101B600006FA05F4A14341F0706106E0460D360126
:101B700003FA06F6B14341F0706122B1460D360119
:101B800003FA06F6314300F00046B6F1004F02D1E9
:101B90001C4EF16101E01B4E7160F0BD30B50022BA
:101BA0008B071C0F0F2303FA04F2164B08338C101B
:101BB00053F824309343134C08348D1044F82530E7
:101BC00023468C1053F824308C07240F00FA04F4B9
:101BD00023430C4C08348D1044F8253030BD0A499D
:101BE000DC3108607047000000080140000C014033
:101BF000001001400014014000180140001C014089
:101C0000002001400000014000002042DF48006841
:101C100040F00100DD49086008464068DC490840A2
:101C2000DA49486008460068DA490840D749086040
:101C30000846006820F4802008600846406820F4C8
:101C4000FE0048604FF41F0088607047CF49096864
:101C500021F48031CD4A11601146096821F48021B8
:101C60001160B0F5803F03D0B0F5802F0ED106E0B3
:101C7000C649096841F48031C44A116007E0C3498C
:101C8000096841F4A021C14A116000E000BF00BF13
:101C9000704710B501460022002300204A11012A96
:101CA00002D1BA4C236806E0022A02D1B74C236A5B
:101CB00001E0B64C636A01F01F02012494401C400D
:101CC0000CB1012000E0002010BD38B500200090CC
:101CD0000024002500BF3120FFF7DBFF05460098F8
:101CE000401C00900098B0F5A06F01D0002DF2D0FC
:101CF0003120FFF7CEFF08B1012400E00024204688
:101D000038BD01460020A14A106820F0F80040EAE2
:101D1000C10010607047A04908607047024600206B
:101D20009A4B586820F47C1042EA01031843974B01
:101D30005860704798490866704701460020934AEA
:101D4000506820F003000843506070478F48406897
:101D500000F00C007047014600208C4A506820F0CB
:101D6000F00008435060704701460020874A5068E1
:101D700020F4E06008435060704701460020834A29
:101D8000506820F4605040EAC1005060704729B1AB
:101D90007E4A527A02437D4B5A7204E07B4A527A61
:101DA00082437A4B5A7270477B49D831086070473A
:101DB00001460020754A506820F4404008435060B6
:101DC00070470021714A20321170704A82F8201049
:101DD000012802D004280AD104E001216B4A2032F4
:101DE000117005E00521694A2032117000E000BF42
:101DF00000BF70476949086070476449096A014338
:101E0000624A11627047654944390860704730B5CD
:101E100000210022002400235C4D6D6805F00C01B8
:101E200021B1042905D0082923D105E05C4D0560C6
:101E300022E05B4D05601FE0544D6D6805F47012A3
:101E4000524D6D6805F48034022505EB92421CB9B1
:101E5000544D554305600BE04C4D6D6805F400355D
:101E60001DB1504D5543056002E04D4D5543056091
:101E700002E04B4D056000BF00BF444D6D6805F0AA
:101E8000F0010909484D6B5C0568DD4045603F4D38
:101E90006D6805F4E061090A434D6B5C4568DD40FF
:101EA00085603A4D6D6805F46051C90A3E4D6B5C22
:101EB0004568DD40C560354D6D6805F44041890BCE
:101EC0003A4D6B5CC568B5FBF3F5056130BD29B1D2
:101ED0002E4A526902432D4B5A6104E02B4A526943
:101EE00082432A4B5A61704729B1284A92690243BA
:101EF000264B9A6104E0254A92698243234B9A61FA
:101F0000704729B1214AD2690243204BDA6104E0CB
:101F10001E4AD26982431D4BDA61704729B11B4AC0
:101F2000D2680243194BDA6004E0184AD26882434F
:101F3000164BDA60704729B1144A12690243134BF9
:101F40001A6104E0114A12698243104B1A6170470A
:101F500012494039086070470F49C86470470B49FF
:101F6000C87170470948406A40F08070074948626C
:101F7000704701460020054A92680A400AB10120D4
:101F800000E000207047014988727047001002404D
:101F90000000FFF8FFFFF6FE0000424280044242CC
:101FA00000127A0000093D0038000020480000209F
:101FB00010B50446BE48844208D101218014FFF7C1
:101FC000ADFF0021A014FFF7A9FF16E0B948844235
:101FD00008D101210014FFF7AEFF00212014FFF704
:101FE000AAFF0AE0B448844207D10121C013FFF7D9
:101FF000A2FF0021E013FFF79EFF10BD10B50022E5
:10200000028802F441520B884C8823438C88234376
:10201000CC8823430C8923434C8923438C89234355
:10202000CC8923431A430280838B4FF2FF742340F1
:1020300083830B8A038210BD2DE9F04F85B00546DE
:102040000C464FF0000902274FF000084FF0010B3B
:102050000026B246A88B4FF240010840A883022018
:102060002884B5F81C90A068022801D100BF38E090
:10207000A08810B94FF0010B01E04FF0020B8D4822
:10208000854200D100E000BF6846FFF7C0FEDDF8E2
:1020900000A0E088B0F5007F0AD14FEA1A2000EBDB
:1020A00080004000A168B0FBF1F0401D86B20BE05B
:1020B0004FEA4B10BAFBF0F000EB80004000A16843
:1020C000B0FBF1F0401D86B20A20B6FBF0F606F038
:1020D0000108A6EB0800C0F34F074FF6FF7000EAB7
:1020E0000828022F01DBFF2F02DD02274FF0000836
:1020F000E08840EA080038432884A088A189084382
:10210000618808432188084340F4006040EA0909D7
:10211000A5F81C9005B0BDE8F08F0021018041803A
:102120008180C180018141818181C181072101823A
:1021300070470021018041808180C180022181603F
:1021400000218181704721B1028842F04002028063
:1021500004E002884FF6BF731A400280704721B135
:10216000828B42F48062828304E0828B4FF6FF33DD
:102170001A408283704730B5002400230C110125DA
:10218000A540ABB21AB185881D43858002E08588E1
:102190009D43858030BD1AB183880B43838002E064
:1021A00083888B438380704781817047014688898B
:1021B00070474FF6FF62914204D0028842F4807269
:1021C000028004E002884FF6FF631A4002807047E5
:1021D00021B1828842F00402828004E082884FF6B6
:1021E000FB731A408280704702884FF2FF731A40D7
:1021F000028002880A4302807047018841F48051BE
:102200000180704721B1028842F40052028004E04C
:1022100002884DF6FF731A40028070470246002084
:10222000012901D0108B00E0908A70470146088A8E
:102230007047B1F5804F04D1028842F48042028099
:1022400004E002884BF6FF731A4002807047024692
:10225000002013890B400BB1012000E000207047E3
:10226000CA4302817047F0B50246002000240023D3
:10227000002501F00F070126BE40B4B20B11012664
:102280009E40B3B2968806EA03051689264016B129
:102290000DB1012000E00020F0BD10B5002201F0DA
:1022A0000F040123A3409AB2D343038110BD000061
:1022B0000030014000380040003C004010B50446AA
:1022C000FE48844208D10121C014FFF727FE0021F7
:1022D000E014FFF723FEC4E0B4F1804F08D10121E0
:1022E0000846FFF728FE00210120FFF724FEB8E092
:1022F000F348844208D101210220FFF71CFE00218F
:102300000220FFF718FEACE0EE48844208D101211C
:102310000420FFF710FE00210420FFF70CFEA0E0D0
:10232000E948844208D101210820FFF704FE00217A
:102330000820FFF700FE94E0E448844208D1012120
:102340001020FFF7F8FD00211020FFF7F4FD88E0D2
:10235000DF48844208D101212020FFF7ECFD002155
:102360002020FFF7E8FD7CE0DA48844208D1012113
:102370004014FFF7D3FD00216014FFF7CFFD70E09C
:10238000D548844209D10121C804FFF7C7FD0021C7
:102390004FF40020FFF7C2FD63E0D048844209D12A
:1023A00001210805FFF7BAFD00214FF48010FFF767
:1023B000B5FD56E0CA48844209D101214805FFF71E
:1023C000ADFD00214FF40010FFF7A8FD49E0C5481E
:1023D000844208D101214020FFF7ADFD00214020BB
:1023E000FFF7A9FD3DE0C048844208D101218020CB
:1023F000FFF7A1FD00218020FFF79DFD31E0BB48E4
:10240000844208D101218015FFF795FD0021A01518
:10241000FFF791FD25E0B648844209D10121080467
:10242000FFF77CFD00214FF48030FFF777FD18E0C7
:10243000B048844209D101214804FFF76FFD002113
:102440004FF40030FFF76AFD0BE0AB48844208D13F
:1024500001218804FFF762FD00214FF48020FFF77F
:102460005DFD10BD00220288944B98420ED0994B1E
:1024700098420BD0B0F1804F08D0914B984205D0D4
:10248000904B984202D0904B984204D14FF68F73F4
:102490001A404B881A438D4B984207D08C4B984278
:1024A00004D04FF6FF431A40CB881A4302808B8832
:1024B00083850B880385814B98420BD0854B9842CE
:1024C00008D08B4B984205D08A4B984202D08A4B59
:1024D000984201D10B7A038601238382704770B53D
:1024E000002400220023058C4FF6FE76354005843B
:1024F000028C8388048B4FF68F752C40B51E2C40C0
:102500000D882C43751E2A400D892A434D882A4385
:102510006A4DA8420BD06F4DA84208D0744DA84216
:1025200005D0744DA84202D0734DA84213D14FF686
:10253000F7752A404D892A434FF6FB752A408D884E
:102540002A434FF6FF652B404FF6FF552B408D89F0
:102550002B43CD892B4383800483CD8885860284D9
:1025600070BD70B5002400220023058C4FF6EF7675
:1025700035400584028C8388048B48F6FF752C4017
:102580004FF6FF452C400D884FF6FF7606EA0525ED
:102590002C434FF6DF752A400D8906EA05152A43BC
:1025A0004D8806EA05152A43444DA84202D0494DFC
:1025B000A8421DD14FF67F752A404D894FF6FF7610
:1025C00006EA05152A434FF6BF752A408D8806EAAC
:1025D00005152A434FF6FF352B404FF2FF752B4070
:1025E0008D8906EA85052B43CD8906EA85052B43AF
:1025F00083800483CD880587028470BD70B5002474
:1026000000220023058C4FF6FF6635400584028CBE
:102610008388848B4FF68F752C404FF6FC752C40C9
:102620000D882C434FF6FF552A400D894FF6FF7653
:1026300006EA05252A434D8806EA05252A431F4D4B
:10264000A84202D0234DA8421DD14FF2FF752A4067
:102650004D894FF6FF7606EA05252A434FF6FF35EA
:102660002A408D8806EA05252A434EF6FF752B4041
:102670004DF6FF752B408D8906EA05152B43CD8954
:1026800006EA05152B4383808483CD8885870284E1
:1026900070BD70B5002200230024058C4EF6FF7635
:1026A00035400584038C8488828B48F6FF752A4068
:1026B0004FF6FF452A400D8820E00000002C014025
:1026C0000004004000080040000C004000100040E2
:1026D0000014004000340140004C01400050014013
:1026E0000054014000180040001C00400020004041
:1026F0000040014000440140004801404FF6FF7691
:1027000006EA05252A434DF6FF752B400D8906EA9A
:1027100005352B434D8806EA05352B43FB4DA84272
:1027200002D0FB4DA84208D14BF6FF752C408D8995
:102730004FF6FF7606EA85152C4384808283CD8888
:10274000A0F84050038470BD828B4FF2FF331A40D3
:102750008283828B4FF6FF7303EA01231A4382833D
:102760007047F0B50C461546002100220026078C64
:102770004EF6FF7C07EA0C070784818B028C4FF62C
:10278000FF7707EA043640F6FF4739404FF6FF77F8
:1027900007EA052739434FF6FF7707EA033739433E
:1027A0004DF6FF773A4046F480573A4381830284DE
:1027B000F0BD828B4FF6F3731A408283828B0A43FB
:1027C00082837047F0B50C46154600210022002692
:1027D000078C4FF6FF6C07EA0C070784818B028C8D
:1027E0004FF6FF7707EA04264FF60C7739404FF68D
:1027F000FF7707EA03172F4339434FF6FF573A4055
:1028000046F480773A4381830284F0BD028B4FF215
:10281000FF331A400283028B4FF6FF7303EA012352
:102820001A4302837047F0B50C461546002100227A
:102830000026078C4FF6EF7C07EA0C070784018B14
:10284000028C4FF6FF7707EA041640F6FF4739403F
:102850004FF6FF7707EA033739434FF6FF7707EA6A
:10286000052739434FF6DF773A4046F010073A43E1
:1028700001830284F0BD028B4FF6F3731A4002838A
:10288000028B0A4302837047F0B50C4615460021BF
:102890000022068C4FF6FE773E400684018B028CA8
:1028A0004FF60C7631407E1C06EA03162E43314368
:1028B0007E1E324044F00106324301830284F0BDA3
:1028C00070B505460C46208850B92389A2886188D6
:1028D0002846FFF7D9FFE1882846FFF7CCFF25E01F
:1028E000208804280AD12389A28861882846FFF716
:1028F0009AFFE1882846FFF789FF17E0208808281B
:102900000AD12389A28861882846FFF75BFFE18806
:102910002846FFF74EFF09E02389A28861882846F0
:10292000FFF71FFFE1882846FFF70EFF70BD2DE976
:10293000F04105460C4600260127608808B90226AA
:1029400000E00026A088012801D1022700E001272D
:102950002088A0B92389A28861882846FFF794FFC0
:10296000E1882846FFF787FF23893A463146284603
:10297000FFF759FFE1882846FFF748FF13E0238956
:10298000A28861882846FFF74EFFE1882846FFF7B6
:102990003DFF23893A4631462846FFF775FFE18817
:1029A0002846FFF768FFBDE8F0810A884B881A4384
:1029B0008B881A43CB881A430B891A434B891A43D5
:1029C0008B891A43A0F8442070474FF6FF7181802D
:1029D00000210180C1804180017270470021018087
:1029E00041808180C180018141818181C1817047A5
:1029F000002101804180012181800021C18001816D
:102A000070470021018041808180C1800181418126
:102A10008181704721B1028842F00102028004E006
:102A200002884FF6FE731A400280704731B1B0F849
:102A3000442042F40042A0F8442005E0B0F84420CD
:102A4000C2F30E02A0F8442070471AB183890B43E9
:102A5000838102E083898B43838170478182704741
:102A600041EA0203A0F8483070471AB183890B434A
:102A7000838102E083898B438381704701894FF60C
:102A8000F8721140018170470A46002101894FF612
:102A90008F73194011430181704730B504460D46CC
:102AA00029462046FFF7F0FF208940F007002081EB
:102AB00030BD2DE9F04104460D4616461F46602DF7
:102AC00006D13B46012231462046FFF7ACFE05E029
:102AD0003B46012231462046FFF7D6FE29462046D6
:102AE000FFF7D2FF208940F007002081BDE8F08188
:102AF00030B50C4600210189C9B24FF6FF7505EAD1
:102B00000325154325432943018130BD002C014095
:102B1000003401402DE9F04105460E46174698461F
:102B2000002443463A4631462846FFF7E1FF2C8908
:102B30004FF6F870044044F007044FF68F700440DD
:102B400044F070042C81BDE8F081F0B504460D46D8
:102B500016461F463B46324629462046FFF7C8FF29
:102B6000208940F480402081F0BD01858282704739
:102B70000A46002101884FF68F73194011430180E6
:102B80007047F0B50C4615461E4600210022002372
:102B90000189028B038C4FF6F877394021434FF6B9
:102BA000FC473A4040F201173A434FF6DD773B408D
:102BB0004FF6FF7707EA06172F433B430181028355
:102BC0000384F0BD0A460021018B4FF68F73194034
:102BD0001143018370470A460021018B48F6FF73B9
:102BE00019404FF6FF7303EA02231943018370472C
:102BF0000A460021818B4FF68F7319401143818360
:102C000070470A460021818B48F6FF7319404FF642
:102C1000FF7303EA022319438183704721B10288BD
:102C200042F08002028004E002884FF67F731A406F
:102C30000280704721B1828842F00402828004E061
:102C400082884FF6FB731A408280704721B18288D8
:102C500042F00802828004E082884FF6F7731A403F
:102C60008280704721B1828842F00102828004E0B4
:102C700082884FF6FE731A40828070470A46002110
:102C8000018B4FF6F77319401143018370470A46D1
:102C90000021018B4FF2FF7319404FF6FF7303EAD7
:102CA00002231943018370470A460021818B4FF6A6
:102CB000F77319401143818370470A460021818BC5
:102CC0004FF2FF7319404FF6FF7303EA02231943D3
:102CD000818370470A460021018B4FF6FB73194030
:102CE0001143018370470A460021018B4FF6FF33E1
:102CF00019404FF6FF7303EA02231943018370471B
:102D00000A460021818B4FF6FB73194011438183E2
:102D100070470A460021818B4FF6FF3319404FF66A
:102D2000FF7303EA02231943818370470A46002197
:102D3000018B4FF67F7319401143018370470A4698
:102D40000021018BC1F30E014FF6FF7303EA02234A
:102D50001943018370470A460021818B4FF67F7328
:102D600019401143818370470A460021818BC1F3CA
:102D70000E014FF6FF7303EA022319438183704764
:102D80000A460021018C4FF6FD731940114301845E
:102D900070470A460021018C4FF6F7731940114322
:102DA000018470470A460021018C4FF6DF731940F9
:102DB0004FF6FF7303EA02131943018470470A4672
:102DC0000021018C4FF67F7319404FF6FF7303EA21
:102DD00002131943018470470A460021018C4FF603
:102DE000FF5319404FF6FF7303EA0223194301848E
:102DF00070470A460021018C4FF2FF7319404FF6CD
:102E0000FF7303EA02231943018470470A46002135
:102E1000018C4DF6FF7319404FF6FF7303EA02333E
:102E200019430184704730B5002301248C40A3B2BC
:102E3000048C9C430484048C02FA01F5ADB22C434B
:102E4000048430BD30B5002304248C40A3B2048C2C
:102E50009C430484048C02FA01F5ADB22C43048433
:102E600030BD70B5034600200024184618300125F7
:102E70008D40ACB21D8CA5431D8409B1082909D130
:102E800000EB6100056825F07005056005681543D5
:102E900005600EE00D1FC5F34E052844056825F4B6
:102EA000E045056005684FF6FF7606EA02263543E1
:102EB000056070BD21B1028842F00202028004E088
:102EC00002884FF6FD731A400280704721B10288D4
:102ED00042F00402028004E002884FF6FB731A40BD
:102EE0000280704721B1828842F08002828004E033
:102EF00082884FF67F731A408280704702884FF6AF
:102F0000F7731A40028002880A4302807047828861
:102F10004FF68F731A40828082880A4382807047FE
:102F200002894FF6F8731A40028102890A4302812E
:102F3000704702894FF67F731A40028102890A4363
:102F40000281704781847047818570478186704710
:102F50000187704781877047A0F84010704702884A
:102F60004FF6FF431A40028002880A4302807047EE
:102F70000146888E70470146088F70470146888F4A
:102F800070470146B1F8400070470146888C704791
:102F90000146088D704702460020138A0B400BB192
:102FA000012000E000207047CA430282704730B51C
:102FB0000246002000230024158A05EA01039589B2
:102FC00005EA010413B10CB1012000E0002030BD7E
:102FD000CA4302827047000010B50446F748844295
:102FE00009D101218803FEF799FF00214FF48040A9
:102FF000FEF794FF32E0F248844209D101214804EF
:10300000FEF799FF00214FF40030FEF794FF25E012
:10301000EC48844209D101218804FEF78CFF00218D
:103020004FF48020FEF787FF18E0E748844209D17B
:103030000121C804FEF77FFF00214FF40020FEF7B6
:103040007AFF0BE0E148844208D101210805FEF730
:1030500072FF00214FF48010FEF76DFF10BD2DE9C7
:10306000F04786B005460E460024A24600BFA146A2
:103070000027B08900B100BF2F462C8A4CF6FF70A4
:103080000440F08804432C822C8A4FF2FF00044055
:10309000F08904432C82AC894EF6F3100440B088CA
:1030A00031890843718908430443AC81AC8A4FF6E7
:1030B000FF400440B0890443AC8201A8FEF7A7FE9C
:1030C000BE48874202D1DDF810A001E0DDF80CA077
:1030D000A88900F4004040B10AEBCA0000EB0A10D6
:1030E00031684900B0FBF1F807E00AEBCA0000EBD9
:1030F0000A1031688900B0FBF1F86420B8FBF0F0E9
:1031000004012009642101FB1089A88900F4004012
:1031100040B1322000EBC900B0FBF1F000F0070035
:10312000044308E0322000EB09106421B0FBF1F009
:1031300000F00F0004432C8106B0BDE8F0874FF487
:103140001651016000218180C18001810C214181E3
:1031500000218181704710B502460020108A4FF28D
:10316000FF0318400B884C8823438C882343CC886A
:1031700023431843108210BD0021018041808180CB
:10318000C180704721B1828942F40052828104E0FB
:1031900082894DF6FF731A4082817047F0B503466D
:1031A000002400260025002040F66A17B94200D10D
:1031B00000BF1846C1F3421401F01F06012707FAA9
:1031C00006F5012C01D10C3004E0022C01D11030A5
:1031D00000E014301AB107682F43076002E0076867
:1031E000AF430760F0BD1AB1838A0B43838202E0CC
:1031F000838A8B4383827047028A4FF6F0731A40AA
:103200000282028A0A430282704782894FF2FF7368
:103210001A40828182890A438281704721B1828962
:1032200042F00202828104E082894FF6FD731A4067
:1032300082817047028A4FF6DF731A400282028A47
:103240000A430282704721B1028A42F4804202821C
:1032500004E0028A4BF6FF731A4002827047C1F302
:1032600008028280704701468888C0F308007047D2
:10327000818941F0010181817047028BD2B20283C2
:10328000028B42EA012202837047028B02F47F42E2
:103290000283028B0A430283704721B1828A42F083
:1032A0002002828204E0828A4FF6DF731A40828213
:1032B000704721B1828A42F01002828204E0828A41
:1032C0004FF6EF731A408282704721B1828A42F032
:1032D0000802828204E0828A4FF6F7731A408282E3
:1032E000704721B1828942F40042828103E08289E1
:1032F000C2F30E028281704721B1828A42F40062D9
:10330000828204E0828A4FF2FF731A408282704701
:10331000828A4FF6FB731A408282828A0A43828233
:10332000704721B1828A42F00202828204E0828ADE
:103330004FF6FD731A408282704702460020B1F5B5
:10334000007F00D100BF13880B400BB1012000E0CB
:103350000020704701F40072B2F5007F00D100BF79
:10336000CA430280704770B502460024002300253E
:10337000002040F66A16B14200D100BFC1F34215E9
:1033800001F01F03012606FA03F3012D02D19689ED
:10339000334006E0022D02D1168A334001E0968ABE
:1033A00033400C12012606FA04F41688344013B197
:1033B0000CB1012000E0002070BD00000038014089
:1033C0000044004000480040004C004000500040D5
:1033D00010B50022002340F66A14A14200D100BFBC
:1033E0000A1201249440A3B2DC43048010BD000003
:1033F0000648804706480047FEE7FEE7FEE7FEE78F
:10340000FEE7FEE7FEE7FEE7FEE7FEE7F33400082F
:10341000ED0000080CB50020019000906A4800689B
:1034200040F480306849086000BF6748006800F4D5
:10343000003000900198401C0190009818B9019844
:10344000B0F5A06FF1D16048006800F4003010B111
:103450000120009001E0002000900098012843D155
:103460005A48006840F01000584908600846006853
:1034700020F0030008600846006840F00200086081
:1034800051484068504948600846406848600846CE
:10349000406840F4806048600846406820F47C1032
:1034A00048600846406840F4E810486008460068F4
:1034B00040F08070086000BF4348006800F0007072
:1034C0000028F9D04048406820F003003E49486099
:1034D0000846406840F00200486000BF3A48406833
:1034E00000F00C000828F9D10CBD10B5FFF792FFD1
:1034F00010BD10B53448006840F001003249086042
:1035000008464068324908402F494860084600682C
:10351000304908402C4908600846006820F48020A3
:1035200008600846406820F4FE0048604FF41F0021
:103530008860FFF7DAFF10BD10B5002100200022DF
:10354000214B5B6803F00C0121B1042906D0082946
:1035500028D107E0204B214C236027E01E4B1F4C55
:10356000236023E0184B5B6803F47010164B5B6814
:1035700003F48032022303EB904022B9184B4343FB
:10358000164C23600DE0104B5B6803F4003323B14D
:10359000134B4343114C236003E00F4B43430F4C49
:1035A000236003E00C4B0D4C236000BF00BF064BB3
:1035B0005B68C3F303130B4CE15C084B1B68CB4007
:1035C000064C236010BD00000010024000200240A5
:1035D0000000FFF8FFFFF6FE00127A004C0000200A
:1035E00000093D0050000020EFF3108072B67047D4
:1035F00080F3108870471D484FF0FF0101700020D4
:1036000080F309881A48012101701A484FF080514F
:10361000016062B6FEE717484FF0805101607047C5
:1036200014484FF080510160704772B6EFF3098083
:1036300028B1203880E8F00F0F490968086000B50C
:103640000E4880475DF804EB0D480E490A78027079
:1036500009480D490A680260106890E8F00F2030B0
:1036600080F309884EF0040E62B6704722ED00E048
:103670008200002004ED00E088000020533700089D
:103680007B0000207C0000209000002070477047E5
:1036900010B504462046FCF759FE10BD10B504468F
:1036A0002046FCF754FE10BD10B5FCF751FE10BDCE
:1036B00010B5FCF74EFE10BD70B5044610464FF035
:1036C00080750560051F28462C606FF00106051FF8
:1036D00028462E604FF01236051F28462E604FF008
:1036E0000336051F28462E604FF00236051F284678
:1036F0002E607610051F28462E60051F284629607B
:103700004FF01136051F28462E604FF01036051F6A
:1037100028462E604FF00936051F28462E604FF0D0
:103720000836051F28462E604FF00736051F28462D
:103730002E604FF00636051F28462E604FF00536E6
:10374000051F28462E604FF00436051F28462E60C0
:1037500070BD10B5FCF7FEFD10BD10B50446204647
:10376000FCF7F9FD10BD10B5FCF7F6FD10BD00002B
:10377000174818481848194819481A481A481B4841
:103780001B481C481C481D481D481E481E481F4811
:103790001F482048204821482148224822482348E1
:1037A00023482448244825482548264826482748B1
:1037B000274828482848294829482A482A482B4881
:1037C0002B482C482C482D482D4800BF704700003E
:1037D000F49B0008F89B0008FC9B0008FE9B000877
:1037E000009C0008029C0008049C0008069C00083D
:1037F000089C00080A9C00080C9C00080E9C00080D
:10380000109C0008129C0008149C0008169C0008DC
:10381000189C00081A9C00081C9C00081E9C0008AC
:10382000209C0008229C0008249C0008269C00087C
:10383000289C00082A9C00082C9C00082E9C00084C
:10384000309C0008329C0008349C0008369C00081C
:10385000389C00083A9C00083C9C00083E9C0008EC
:10386000409C0008429C0008449C0008469C0008BC
:10387000489C00084A9C00084C9C00084E9C00088C
:10388000509C00080246002005E011F8013B02F8B8
:10389000013B431CD8B20B78002BF6D11370704754
:1038A0002DE9F04105460E4614460027FC480078F5
:1038B000002804DD112020700020BDE8F081287868
:1038C000012808D0022807D0032802D0042804D1F8
:1038D00000E000BF00BF00BF03E001202070002017
:1038E000EBE700BFFFF780FE074605F10F0130460A
:1038F000FFF7C8FF80463846FFF77AFE00202070A9
:103900004046DAE70146002002E0491C421CD0B2E2
:103910000A78002AF9D170472DE9F04105460F4693
:1039200014464FF00008DE480078002803DD12201E
:103930002070BDE8F0812878012808D0022807D03F
:10394000032802D0042804D100E000BF00BF00BF5C
:1039500002E001202070ECE700BFFFF745FE804643
:103960003846FFF7CFFF06460F2E05DD4046FFF72E
:103970003FFE0B202070DCE7394605F10F00FFF712
:1039800081FF4046FFF734FE0020207000BFD0E7E3
:10399000F0B5024612F8344F95785678343A0B4613
:1039A00018680FE000F10B073F5DB74300F10B0C07
:1039B0000CF8047067463F5D17B9877AAF4387728A
:1039C0001B1D18680028EDD1F0BDB649B64A127823
:1039D000885CB649095CB34A515C01EBC001B44A4A
:1039E0001170704710B50024FFF7FEFD0446AC4887
:1039F0000078F0B9AF480078D8B9FFF7E6FFAC48D7
:103A00000078AD490978884213D0AC48A8490978B4
:103A100050F82100AA49086008460068806B401CE5
:103A200009688863A7480068401CA6490860FFF73A
:103A3000F2FD2046FFF7DCFD10BD70B50146002405
:103A4000A14D2D68EC61A04C246821620B461868DA
:103A50001BE09D4C246894F8345000F10B04645D25
:103A6000994D2D6895F835502C43974D2D6895F854
:103A7000346000F10B05AC55847A934D2D6895F8B0
:103A800036502C4384721B1D18680028E1D18E4CDF
:103A9000246894F83420854CA45C8B4D2D6895F8EF
:103AA0003550AC43814DAC542C46A45C44B9864C93
:103AB000246894F836507C4C2478AC437A4D2C70B2
:103AC00070BD2DE9FF4F83B080460E461546109F0E
:103AD000002001903060C146D9F8004018E02078FD
:103AE000012807D0032804D0042805D0052802D1D6
:103AF00003E008E007E000BF00BF012038700020AD
:103B000007B0BDE8F08F00BF09F10409D9F8004003
:103B1000002CE4D162480078002803DD02203870D0
:103B20000020EDE763480078002803DD0D203870A1
:103B30000020E5E7FFF758FD019000200290824643
:103B40008346C146D9F800403DE02078012819D0CD
:103B5000032804D0042827D0052824D125E0208973
:103B600000280CDD2089401E208110C60120029013
:103B7000002001C50AF101001FFA80FA01E04BF0B4
:103B8000010B1BE0606858B1606801C500206060EF
:103B900010C6012002900AF101001FFA80FA01E02C
:103BA0004BF0020B0AE000BF00BF0198FFF720FDB9
:103BB00000203060012038705046A1E700BF09F1B5
:103BC0000409D9F80040002CBFD10298012808D17F
:103BD000002030600198FFF70BFD00203870504640
:103BE0008EE73948006890F830004BF080010843B8
:103BF0003549096881F8300000203349096881F8A7
:103C00003100314906980968C8854046FFF715FF1D
:103C10000198FFF7EDFCFFF7E5FEFFF7E5FC0190EB
:103C20002948006890F8310020B101281BD00228F3
:103C300018D100E000BF24480068C4693CB110C638
:103C4000002030600AF101001FFA80FA09E001202B
:103C50001D49096881F8310041461B480068FFF79B
:103C600097FE06E000BF414617480068FFF790FE48
:103C700000BF00BF1448006890F8310020B101284F
:103C80003FD002283CD136E02078062824D2DFE855
:103C900000F0231D1E032425002001C527E000009D
:103CA00079000020529C00087D0000207E0000204A
:103CB0007C0000207A0000207B000020D011002032
:103CC00090000020600000208800002000BFF7481E
:103CD0000068406A01C50AE000BF00BF0198FFF715
:103CE00087FC0020306001203870504608E700BF94
:103CF000002038700AE0002001C50E20387005E071
:103D000000BF002001C50A20387000BF00BF00209E
:103D1000E649096881F83000E449096881F8310012
:103D2000E2490968C861E14909680862DF49096830
:103D300048620198FFF75CFC5046E1E67CB500253F
:103D400014E06946284601F00EFD064666B9D848DB
:103D500050F8254044B1012C06D0D4E9020100EB13
:103D6000810060640198A064681CC5B21F2DE8DD65
:103D70007CBD002402E0142001F0BAFDCD4800789B
:103D80000028F8D0CC4800686421B0FBF1F0CA49A3
:103D900008600846006828B90020C8490870FF205C
:103DA00001F023FD00BFFFF71FFC0446C448006874
:103DB000C44908600020C24908602046FFF718FC8B
:103DC000C0480068BC490968B0FBF1F0C0F164006C
:103DD000BA490870FFF76CFCFFF7B0FF0A2001F04A
:103DE00087FDE0E700B587B0032000218022B64BB5
:103DF000CDE90132CDE903104FF6FE701E23B34A20
:103E00000090AFF2910001F0ABFA06AAB0A11E201B
:103E100001F01AFC07B000BD002400BFFFF7E4FB6F
:103E20000446A7480068401CA54908602046FFF7E3
:103E3000DFFBFFF739FCF1E700B587B00320002175
:103E40008022A74BCDE90132CDE903104FF6FF7078
:103E50001F23A44A0090AFF23F0001F081FA06AAA6
:103E6000A1A11F2001F0F0FB07B000BD04E000227B
:103E700000F8012B4A1E91B20029F8DC704730B5DA
:103E80004FF4A0719C48FFF7F1FF9B4B03F1200515
:103E900000240AE0002018705D603F20D8730021E4
:103EA000197420332035601C84B2092CF2DB002009
:103EB000187058603F20D873002119748E488F49BC
:103EC000086030BD30B54FF4FD618D48FFF7CEFF7F
:103ED00080217748FFF7CAFF894B03F15C05002476
:103EE0000AE05D613F2083F84C0000214D20C15461
:103EF0005C335C35601CC4B2152CF2D300205861D1
:103F00003F2083F84C0000214D20C15400207D4902
:103F100008607B487C49086030BD00227B4B1A70EA
:103F20007B49002004E0002201F8012B421CD0B2A2
:103F30000428F8DB0022774B1A70774B1A70774B06
:103F40001A605A4B1A60704700207549086075491D
:103F50000870754908707549087075490870754989
:103F6000086057490860574908605349086051493B
:103F70000870704710B5FFF789FBFFF7E5FFFFF703
:103F8000CCFFFFF79FFFFFF77AFF00F0C3FEFFF7BC
:103F900053FFFFF727FFFFF77AFBFFF7E9FB10BDA1
:103FA00063480078012808D15E480078FF2804D2D1
:103FB0005C480078401C5B490870704710B50024CD
:103FC0005B480078012830D1FFF70EFB04465548C6
:103FD0000078002804DD53480078401E51490870DD
:103FE00050480078F0B950480078D8B9FFF7EDFC98
:103FF0004948007847490978884213D02C484649F7
:10400000097850F821004549086008460068806B2F
:10401000401C0968886347480068401C454908609F
:10402000FFF7FEFA2046FFF7E3FA10BD10B50024B3
:104030003F480078012811D1FFF7D6FA04463948E5
:10404000007840B938480078FF2804D23648007814
:10405000401C354908702046FFF7CAFA10BD10B55C
:10406000002433480078012869D1FFF7BDFA0446DF
:104070002D48007800285FDD2B480078401E2A4933
:1040800008700846007860B92648007828B92046AC
:10409000FFF7AEFAFFF7A6FC51E02046FFF7A8FABB
:1040A0004DE02046FFF7A4FA49E045E088000020F3
:1040B000D011002078000020700000206C0000204B
:1040C0008400002074000020D00D0020CC0F0020C0
:1040D00075432F4F532D49492053746174000000DC
:1040E000D00F0020CC11002075432F4F532D49498C
:1040F0002049646C65000000040C0020640000206E
:1041000050120020940000208C0000207D00002030
:104110007E0000207B0000207C000020900000201A
:104120009C000020790000207A00002083000020FD
:1041300082000020600000202046FFF759FA10BDE1
:1041400010B5E948007890B9FFF73FFCE7480078E0
:10415000E7490870E748E549097850F82100E64941
:10416000086008460068E5490860FFF744FA10BD9A
:1041700010B50024022001F0BBFBFFF735FA04461E
:104180000020DF4908602046FFF732FA0A2001F0DC
:10419000AFFBFFF729FA0446D9480068D9490860FF
:1041A0000120D94908702046FFF722FA10BD70B5EA
:1041B0000026FFF7D8FAFFF717FA0646D34800683B
:1041C000401CD24908603046FFF712FAC648007812
:1041D000012853D1CE48007820B1012804D002280C
:1041E00009D103E001250BE0002509E001250120AC
:1041F000C749087004E001250020C549087000BFC8
:1042000000BF05B970BDC348046833E0FFF7ECF99F
:104210000646E08D50B3E08D401E80B2E08528BB9D
:1042200094F8300000F0370040B114F8300F20F05F
:104230003700207001206070303C02E0002084F8DC
:10424000310094F8300000F0080078B93434A078D8
:10425000B14909780843B04908702078AF49085C33
:104260006178084314F83419AC4A505464693046F4
:10427000FFF7BEF994F832001F28C7D100BFC1E78D
:104280004FF48F707047704710B590F8342001F1EB
:104290000B039B5C90F83540A34301F10B04A3543E
:1042A00023469B5C23B98B7A90F83640A3438B72EC
:1042B00010BD2DE9F04F05460F4690469946A87A65
:1042C00097490E5C05F10B00805D11F800B00BEB17
:1042D000C60000F0FF0A874850F82A400020243426
:1042E00060812760207B20EA0800207384F80D900D
:1042F000207B243C00F0080068B994F83600864919
:1043000009780843844908708448805D94F8351022
:1043100008438249885529462046FFF7B5FF206AA1
:1043200020B12046216AFFF733FBE5615046BDE826
:10433000F08F10B5714A1268D061704A126892F815
:10434000343000F10B02D25C6C4B1B6893F83530B3
:104350001A436A4B1B6893F8344000F10B031A555B
:10436000827A664B1B6893F836301A438272634A2E
:10437000126892F83410694A525C604B1B6893F8DB
:1043800035309A43654B5A541A46525C42B95B4ADF
:10439000126892F83630604A12789A435E4B1A706F
:1043A00010BD0023837200F10B01002204E0002302
:1043B00001F8013B531CDAB2042AF8DB704705E030
:1043C00011F8013B00F8013B531E9AB2002AF7DCBA
:1043D000704702E008C908C0521E002AFAD170478F
:1043E0002DE9F84F05460E4617469846DDE90BAB1A
:1043F000DDF8289000200090FFF7F6F8009049487B
:104400000468002C6BD0183454F8040C454908603B
:104410000098FFF7EDF844F8186CA5760020207698
:104420006076E08244F814AC44F80C9C44F8107CAC
:1044300024F808BC24F8068CE077E810207705F013
:104440000700E076217F01208840A077E17E0120EF
:104450008840607700206060A0602061E06020629A
:10446000A0626062E06220633F2084F83400183C60
:1044700000214D2001552046FFF76FF92046FFF738
:1044800007F9FFF7B1F800901A4840F82540214895
:10449000006860610020A0611E48006810B11D48DE
:1044A000006884611B4804603434A0781A49097894
:1044B00008431949087020781849085C6178084356
:1044C00014F83419154A505417480078401C1649FE
:1044D00008700098FFF78CF80020BDE8F88F00986E
:1044E000FFF786F84220F8E7820000207C000020D9
:1044F0007B000020D01100209000002088000020C8
:104500008400002070000020780000209C00002023
:1045100098000020940000207D0000207E000020F4
:10452000529C00088C000020830000202DE9F05FE1
:1045300004460F4691461E464FF0000B2078052892
:1045400004D0012030700020BDE8F09F09F0800AFF
:10455000BAF1000F04D029F080094FF0010801E002
:104560004FF0000800203070FFF73EF88346B9F1A5
:10457000000F2CD0B9F1010F3BD0B9F1020F03D0DD
:10458000B9F1030F46D111E0208900EA0705BD42C9
:1045900006D1B8F1010F05D12089A843208101E09F
:1045A000702030705846FFF723F83AE0208900EA7F
:1045B000070535B1B8F1010F05D12089A843208145
:1045C00001E0702030705846FFF712F829E020898A
:1045D00027EA0005BD4206D1B8F1010F05D12089B7
:1045E0002843208101E0702030705846FFF700F822
:1045F00017E0208927EA000535B1B8F1010F05D190
:1046000020892843208101E0702030705846FEF751
:10461000EFFF06E05846FEF7EBFF00256F203070F5
:1046200000BF00BF28468FE72DE9F04106460D4642
:104630000027F8480078002804DD102028700020AA
:10464000BDE8F081FEF7D0FF0746F348046894B157
:1046500000684068F049086005202070268100202D
:1046600060603F20A0720021E1723846FEF7C0FF73
:104670000020287004E03846FEF7BAFF7220287048
:104680002046DDE730B501464A6808682AB9CC689B
:10469000606028B10025456002E0106000B1426012
:1046A0008B6800259D6230BDF0B506460F46B468A4
:1046B00000202C3460802780207920F02000207199
:1046C0000020607120792C3C88B93434A078D3491B
:1046D00009780843D14908702078D149085C61788D
:1046E000084314F83419CE4A5054012500E000253F
:1046F0003046FFF7C7FF2846F0BD2DE9F0470446D6
:10470000894615464FF0000AC2480078002804DDAB
:104710000F2028702046BDE8F0872078052803D0B8
:10472000012028702046F6E7FEF75EFF82466068AB
:1047300008B1012700E00027B9F1000F03D0B9F15B
:10474000010F40D11BE09FB93F20A0720021E17210
:1047500000202070B0480068606000202081AE48D2
:1047600004605046FEF744FF00202870002605E054
:104770005046FEF73DFF4920287026462AE0D4F82F
:10478000048005E000214046FFF78EFFD8F8008046
:10479000B8F1000FF6D13F20A0720021E172002095
:1047A00020709D4800686060002020819A48046065
:1047B0005046FEF71DFF012F01D1FFF713F900202E
:1047C0002870002606E05046FEF712FF07202870EA
:1047D000264600BF00BF30469DE72DE9F041054663
:1047E0000E46144600278B480078002804DD11206F
:1047F00020700020BDE8F081FEF7F6FE074628781D
:10480000052806D03846FEF7F3FE01202070002070
:10481000F0E705F10A013046FFF734F880463846E4
:10482000FEF7E6FE002020704046E3E72DE9F04168
:1048300005460F4614464FF00008764800780028D9
:1048400003DD12202070BDE8F081FEF7CDFE80462A
:104850002878052805D04046FEF7CAFE01202070C2
:10486000F1E73846FFF74EF806460F2E05DD4046C5
:10487000FEF7BEFE73202070E5E7394605F10A0019
:10488000FFF700F84046FEF7B3FE0020207000BF9F
:10489000D9E7F0B51446059E624F3F6897F830702F
:1048A00047F02007DFF87CC1DCF800C08CF83070DE
:1048B0000027DFF870C1DCF800C08CF83170594F68
:1048C0003F68FE85574F3F68B9620C828B74554F25
:1048D0003F688F6047680F6000274F60C860456879
:1048E00005B1696041604F4F3F6897F834204C4FE5
:1048F000BF5CDFF830C1DCF800C09CF835C027EAA7
:104900000C07DFF81CC10CF802706746BF5C5FB98A
:10491000444F3F6897F836C0404F3F7827EA0C076E
:10492000DFF8F8C08CF80070F0BD2DE9F04F89B0C9
:1049300005460F4691469A46129E00200290354841
:104940000078002805DD02203070002009B0BDE8A5
:10495000F08F35480078002803DD0D2030700020EE
:10496000F4E72878052803D0012030700020EDE717
:1049700009F0800BBBF1000F04D029F080094FF043
:10498000010801E04FF00008FEF72EFE0290B9F199
:10499000000F57D0B9F1010F77D0B9F1020F03D052
:1049A000B9F1030F70D120E0288900EA0704BC4266
:1049B0000FD1B8F1010F02D12889A04328811948ED
:1049C000006884850298FEF713FE002030702046B0
:1049D000BCE74B463A4604A92846CDF800A0FFF7AD
:1049E00058FF0298FEF704FE77E0288900EA0704E2
:1049F000E4B1B8F1010F02D12889A0432881094808
:104A0000006884850298FEF7F3FD00203070204690
:104A10009CE7000079000020680000207D00002055
:104A20007E000020880000207A0000204B463A4695
:104A300004A92846CDF800A0FFF72BFF0298FEF747
:104A4000D7FD4AE0288927EA0004BC420FD1B8F11B
:104A5000010F02D1288920432881BF48006884853E
:104A60000298FEF7C5FD0020307020466EE74B46E9
:104A70003A4604A92846CDF800A0FFF70AFF02989D
:104A8000FEF7B6FD29E000E01FE0288927EA0004D0
:104A90007CB1B8F1010F02D1288920432881AE48AA
:104AA000006884850298FEF7A3FD00203070204640
:104AB0004CE74B463A4604A92846CDF800A0FFF73C
:104AC000E8FE0298FEF794FD07E00298FEF790FDDD
:104AD00000246F203070204638E700BFFEF782FFC9
:104AE000FEF782FD02909C48006890F8310020B3E8
:104AF0009948006890F831000390002096490968B1
:104B000081F8310004A8FFF7BDFD00209249096833
:104B100081F830000298FEF76BFD0024039801280D
:104B200005D0022802D10E20307003E000BF0A2019
:104B3000307000BF00BF204608E787480068848DBA
:104B4000B8F1010F1ED1B9F1000F0ED0B9F1010F6C
:104B50000CD0B9F1020F03D0B9F1030F0AD100E074
:104B600000BF2889A04328810BE000BF288920438B
:104B7000288106E00298FEF73BFD6F203070002090
:104B8000E4E600BF0298FEF733FD002030702046B7
:104B9000DCE670B50025FEF727FD05466E48006887
:104BA000848D2846FEF724FD204670BD2DE9FC5F6C
:104BB0000446894692461E4600200090207805282B
:104BC00004D0012030700020BDE8FC9FFEF70CFDF2
:104BD0000090BAF1000F03D0BAF1010F0AD104E03E
:104BE000208920EA090020810BE0208940EA0900A1
:104BF000208106E00098FEF7FBFC71203070002059
:104C0000E2E700BF4FF0000B656855E0A87C40B3B9
:104C1000012838D0022802D0032844D111E020898D
:104C2000298A00EA0107288AB84209D1394628466C
:104C3000FFF73AFD8046B8F1010F01D14FF0010BAB
:104C400038E02089298A00EA01074FB13946284611
:104C5000FFF72AFD8046B8F1010F01D14FF0010B9B
:104C600028E0288A218920EA0107288AB84209D148
:104C700039462846FFF718FD8046B8F1010F01D1EB
:104C80004FF0010B16E0288A218920EA01074FB175
:104C900039462846FFF708FD8046B8F1010F01D1DB
:104CA0004FF0010B06E00098FEF7A2FC6F20307079
:104CB000002089E700BF2D68002DA7D10098FEF7DE
:104CC00097FCBBF1010F01D1FEF78CFEFEF78CFCC7
:104CD0000090208901900098FEF78AFC0020307037
:104CE000019871E72DE9F04104460D460027207830
:104CF000052804D0012028700020BDE8F081FEF7CF
:104D000073FC074626893846FEF772FC002028709F
:104D10003046F2E770B58C211048FFF7A7F80F4C2A
:104D200004F11C0600250AE00020207066603F2088
:104D3000A0720021E1721C341C36681C85B2042D5F
:104D4000F2DB0020207060603F20A0720021E17241
:104D500002480349086070BD88000020440D00200F
:104D60006800002070B5044600262078032801D092
:104D7000002070BDFEF738FC06462589002D02DDB7
:104D80002089401E20813046FEF732FC2846F0E79D
:104D900070B505460026DF480078002801DD0020B8
:104DA00070BDFEF721FC0646DB480468006820B1B0
:104DB000D94800684068D84908603046FEF718FCBA
:104DC0005CB1032020702581002060603F20E073EB
:104DD000002121742046FFF7E4FA2046E0E72DE9A0
:104DE000F0470446884615464FF00009207803280E
:104DF00004D0012028702046BDE8F087C54800781F
:104E0000002803DD0F2028702046F5E7FEF7ECFBB5
:104E10008146A07A08B1012700E00027B8F1000F11
:104E200003D0B8F1010F3ED11BE09FB93F20E073E2
:104E30000021217400202070B748006860600020C5
:104E40002081B54804604846FEF7D2FB0020287058
:104E5000002605E04846FEF7CBFB49202870264691
:104E600028E005E00023012219462046FFF721FA39
:104E7000A07A0028F6D13F20E073002121740020A1
:104E80002070A5480068606000202081A24804606E
:104E90004846FEF7ADFB012F01D1FEF7A3FD002030
:104EA0002870002606E04846FEF7A2FB072028707F
:104EB000264600BF00BF30469EE72DE9F04105467B
:104EC0000E46144600272878032803D001202070BE
:104ED000BDE8F0818F480078002802DD02202070B4
:104EE000F6E78E480078002802DD0D202070EFE7FD
:104EF000FEF77AFB07462889002808DD2889401E2E
:104F000028813846FEF774FB00202070E0E78448D3
:104F1000006890F8300040F001008149096881F88C
:104F2000300000207E49096881F831007C48006823
:104F3000C6852846FFF7FDF93846FEF759FBFEF710
:104F400051FDFEF751FB07467548006890F83100A7
:104F500020B1012809D0022806D102E000202070EB
:104F60000BE00E20207008E000BF29466C48006866
:104F7000FFF78AF90A20207000BF00BF00206849AF
:104F8000096881F830006649096881F83100644990
:104F90000968C8616249096808623846FEF728FB5B
:104FA00000BF95E72DE9F04104460F4615464FF046
:104FB00000082078032804D0012028700020BDE8D4
:104FC000F081FEF711FB8046A07A20B300267FB166
:104FD000012F0CD107E00223012200212046FFF718
:104FE00068F9701CC6B2A07A0028F4D109E000BFAD
:104FF0000223012200212046FFF75BF9701CC6B294
:1050000000BF00BF4046FEF7F3FAFEF7EBFC0E20B0
:1050100028703046D3E74046FEF7EAFA00202870B1
:1050200000BFCCE770B5044600252078032801D0E6
:10503000012070BDFEF7D8FA0546A07A60B10023C2
:10504000012219462046FFF734F92846FEF7D0FA28
:10505000FEF7C8FC0020ECE720894FF6FF7188427C
:1050600007D22089401C20812846FEF7C1FA002083
:10507000DFE72846FEF7BCFA3220DAE72DE9F047F1
:1050800004460D464FF000092078032802D0012085
:10509000BDE8F087FEF7A8FA8146A07AA87104F16E
:1050A0000B07AE1C4FF0000807E017F8010B06F8DD
:1050B000010B08F1010000F0FF08B8F1040FF4DB68
:1050C000208928804846FEF793FA0020E0E72DE982
:1050D000F04104460E46154600272078032803D0E9
:1050E00001202870BDE8F081FEF77EFA0746002017
:1050F00028702089002801DD268105E0A07A08B902
:10510000268101E0492028703846FEF771FA00BF79
:10511000E8E7000079000020640000207A00002009
:10512000880000202DE9F34F85B0884600200190CB
:10513000FEF75AFA0190F74850F8280030B101986C
:10514000FEF756FA282007B0BDE8F08F0598FF2833
:1051500004D1F148006890F832000590ED490598B7
:1051600051F8205025B90198FEF742FA2920EAE7C4
:10517000012D04D10198FEF73BFA4320E3E74FEA03
:10518000E80708F0070003900120B84000F0FF098D
:1051900001210398814001F0FF0A0021DD4A0598B2
:1051A00042F82010104640F8285095F8346095F8E1
:1051B0003600029095F835B0D848805D00EA0B00C3
:1051C000D0B1D648805D20EA0B00D4498855084606
:1051D000805D28B9D248007802998843D049087088
:1051E000CF48007840EA0900CD490870CB48C05D3F
:1051F00040EA0A00C949C855EC69D4B104F10B0072
:10520000805D20EA0B0004F10B0188550846805DA3
:1052100018B9A07A02998843A072A07A40EA0900DE
:10522000A07204F10B00C05D40EA0A0004F10B011A
:10523000C855286A30B3286A0490049804681FE0AF
:1052400004F10B00805D20EA0B0004F10B0188558E
:105250000846805D18B9A07A02998843A072A07AA6
:1052600040EA0900A07204F10B00C05D40EA0A00A8
:1052700004F10B01C8550498001D049004980468BB
:10528000002CDDD185F8328085F83470039885F8DC
:10529000330085F8369085F835A00198FEF7A8F917
:1052A000A0480078012801D1FEF79CFB00204AE7C6
:1052B0002DE9FE4F06460F4690461C464FF000096A
:1052C000FEF792F9814698480078002805DD4846A7
:1052D000FEF78EF93C20BDE8FE8F8E4850F8240082
:1052E00060BB01208B4941F824004846FEF780F955
:1052F0000023424639463046FEF7DEF9824600205A
:105300000090019003460246514602902046FFF766
:1053100067F8054635B98348007801280CD1FEF7B7
:1053200061FB09E0FEF760F981460020794941F808
:1053300024004846FEF75CF92846CCE74846FEF7CD
:1053400057F92820C7E702F0010343B102F0020336
:105350002BB102E0491E002308C00029FAD1704792
:105360002DE9F04F85B081468A4693461C46DDE91B
:105370000F78129D00200390FEF736F903906A48DB
:105380000078002806DD0398FEF732F93C2005B0CE
:10539000BDE8F08F5F4850F8240088BB01205D49CC
:1053A00041F824000398FEF723F92A46414638467F
:1053B000FFF7C9FF2B465A4651464846FEF77CF98F
:1053C00004901198CDE9008002953A4620460E9B44
:1053D0000499FFF705F8064636B9524800780128C7
:1053E0000CD1FEF7FFFA09E0FEF7FEF8039000206B
:1053F000484941F824000398FEF7FAF83046C6E71A
:10540000FFE70398FEF7F4F82820C0E72DE9F04104
:105410000546002744480078002802DD4020BDE80A
:10542000F0811F2D01D13E20F9E7FEF7DDF8074698
:10543000FF2D03D13848006890F83250354850F8B5
:10544000254024B93846FEF7D3F84320E7E7012C7E
:1054500004D13846FEF7CCF83D20E0E714F8340FCD
:105460002E49085C6178884321782C4A505414F8FE
:1054700034091146085C30B994F836102848007891
:10548000884327490870E06918B12046E169FEF7B2
:10549000FBFE206A18B12046216AFEF779FAA66A57
:1054A00016B13046FFF7EEF80020E08584F83000B2
:1054B00084F831001D480078FF2804D21B4800788A
:1054C000401C1A4908703846FEF792F8FEF7DBFEDA
:1054D000FEF78AF8074615480078002804DD1348CF
:1054E0000078401E114908702046FEF7D7F8104892
:1054F0000078401E0E4908700020064941F825003A
:10550000A069C8B90020616988610A4960690860BA
:1055100018E00000D0110020880000207E0000204C
:105520007D00002082000020790000207A00002009
:105530008300002094000020D4E905014861D4E9EB
:1055400005108861E34800686061E24804603F201C
:1055500084F84C0000214D2001553846FEF748F8EC
:10556000DD480078012801D1FEF73CFA002056E71B
:105570002DE9F041044600271F2C02D13E20BDE852
:10558000F081FF2C0BD1FEF72FF80746D3480068B7
:1055900090F837603846FEF72BF83046EFE7FEF715
:1055A00023F80746CE4850F8245025B93846FEF770
:1055B0001FF84320E3E7012D04D13846FEF718F821
:1055C0003D20DCE73F2085F837003846FEF710F82D
:1055D0000020D4E72DE9F04706460F4614464FF069
:1055E0000008C0480078002804DD11202070002049
:1055F000BDE8F087FDF7F8FF8046FF2E03D1B748DE
:10560000006890F83260B64850F8265035B94046E8
:10561000FDF7EEFF432020700020E9E7012D06D1C1
:105620004046FDF7E5FF432020700020E0E705F14C
:105630004C013846FEF726F981464046FDF7D8FF73
:10564000002020704846D3E72DE9F04706468846FB
:1056500014464FF00009A3480078002803DD12200B
:105660002070BDE8F087FDF7BFFF8146FF2E03D114
:105670009A48006890F83260994850F826502DB941
:105680004846FDF7B5FF43202070EAE7012D05D11C
:105690004846FDF7ADFF43202070E2E74046FEF7A5
:1056A00031F907460F2F05DD4846FDF7A1FF4120E0
:1056B0002070D6E7414605F14C00FEF7E3F8484676
:1056C000FDF796FF0020207000BFCAE770B50546C1
:1056D0000026FDF789FF0646814850F8254024B989
:1056E0003046FDF785FF462070BD012C04D13046C1
:1056F000FDF77EFF4320F7E794F8300000F0080044
:1057000060B314F8300F20F00800207014F830094E
:10571000F8B9E08DC8B93434A078734909780843E2
:105720007149087020787149085C6178084314F861
:1057300034196E4A50543046FDF75AFF66480078D7
:10574000012809D1FEF74EF906E03046FDF750FF7B
:1057500002E03046FDF74CFF0020C5E73046FDF77C
:1057600047FF4420C0E72DE9F04707460D464FF0BC
:10577000000A002028606860FDF736FF8246FF2F90
:1057800003D15648006890F83270554850F82740C9
:105790002CB95046FDF72CFF4320BDE8F087012CC3
:1057A00004D15046FDF724FF4320F6E7207C00F0AB
:1057B000010020B95046FDF71BFF4520EDE700260C
:1057C000D4F80C90D4F808805046FDF711FF00E0A3
:1057D000761C58F8041B0029FAD0B0002860A9EB09
:1057E0000600800068600020D7E72DE9F0410546FB
:1057F0004FF00008FDF7F8FE8046FF2D05D1374831
:10580000006890F83250012608E03448006890F8AB
:105810003200A84201D1012600E00026304850F8AD
:1058200025402CB94046FDF7E3FE4820BDE8F08155
:10583000012C04D14046FDF7DBFE4320F6E794F847
:1058400034702A48C05D94F8351088432749C855FC
:105850000846C05D30B994F8361023480078884374
:105860002149087094F8300040F0080084F83000B6
:105870004046FDF7BDFE012E01D1FEF7B3F8002032
:10588000D4E72DE9F04105460E460027FDF7ACFEB2
:105890000746FF2D03D11148006890F83250104898
:1058A00050F825402CB93846FDF7A2FE2920BDE866
:1058B000F081012C04D13846FDF79AFE4320F6E72B
:1058C0005C2221463046FEF77AFD3846FDF790FE11
:1058D0000020ECE78C0000208200002088000020DF
:1058E000D0110020790000207D0000207E000020E3
:1058F00070B50546002668480078002800DD70BDB8
:10590000002D23DDFDF770FE06466448006890F820
:1059100034406348005D6149096891F83510884357
:105920005F4908550846005D40B95C48006890F83A
:1059300036105C48007888435A4908705748006818
:10594000C5853046FDF754FEFEF74CF800BFD6E79C
:105950002DE9F04706460F46904699464E48007896
:10596000002802DD5520BDE8F08709F1050064211B
:1059700048434FF47A71B0FBF1F14FF4616070432A
:10598000C7EB071200EB8200404400EBC00202EBC1
:10599000001001EB8004250CA4B22046FFF7A8FFFD
:1059A00009E04FF40040FFF7A3FF4FF40040FFF77A
:1059B0009FFF681E85B2002DF3DC0020D3E770B591
:1059C000054600261F2D01DB2A2070BDFDF70CFEC9
:1059D0000646354850F8254024B93046FDF708FE04
:1059E0004320F2E7012C04D13046FDF701FE4320AD
:1059F000EBE7E08D20B93046FDF7FAFD5020E4E7F3
:105A00000020E08594F8300000F0370040B114F831
:105A1000300F20F03700207001206070303C02E031
:105A2000002084F8310094F8300000F00800A8B994
:105A30003434A0781B49097808431A490870207843
:105A40001749085C6178084314F83419144A505413
:105A50003046FDF7CDFDFDF7C5FF02E03046FDF70E
:105A6000C7FD0020B1E770B50025FDF7BDFD054677
:105A70000E4804682846FDF7BBFD204670BD70B592
:105A800004460025FDF7B0FD054608480460284699
:105A9000FDF7AEFD70BD00007900002088000020F9
:105AA0007E0000207D000020D01100209C000020FE
:105AB00010B5002807DA0A07140EE64A00F00F03B3
:105AC0001B1FD45403E00A07130EE34A135410BDFE
:105AD00070B504460D46012D1AD1012C03D1DF48C3
